S01100006770696F5F64656D6F2E7372656360
S1130000F8FF002011040000515A0000515A00006A
S1130010515A0000515A0000515A0000515A000030
S1130020515A0000515A0000515A0000515A000020
S1130030515A0000515A0000515A0000515A000010
S1130040515A0000515A0000515A0000515A000000
S1130050515A0000515A0000515A0000515A0000F0
S1130060515A0000515A0000515A0000515A0000E0
S1130070515A0000515A0000515A0000515A0000D0
S1130080515A0000515A0000515A0000515A0000C0
S1130090515A0000515A0000515A0000515A0000B0
S11300A0515A0000515A0000515A0000515A0000A0
S11300B0515A0000515A0000515A0000515A000090
S11300C0515A0000515A0000515A0000515A000080
S11300D0515A0000515A0000515A0000515A000070
S11300E0515A0000515A0000515A0000515A000060
S11300F0515A00004D040000515A0000515A0000AA
S1130100515A0000515A0000515A00006504000081
S1130110515A0000515A0000515A0000515A00002F
S1130120515A0000515A0000515A0000515A00001F
S1130130515A0000515A0000515A0000515A00000F
S1130140515A0000515A0000515A0000515A0000FF
S11301509115000059140000515A0000515A000032
S1130160515A0000515A0000515A0000515A0000DF
S1130170515A0000515A0000515A0000515A0000CF
S1130180515A0000515A0000515A0000515A0000BF
S1130190515A00003D1D0000515A0000EB170000A9
S11301A0951C0000291A0000515A0000A11A0000F1
S11301B0515A0000515A0000515A0000515A00008F
S11301C0515A0000515A0000515A0000515A00007F
S11301D0515A0000515A0000515A0000515A00006F
S11301E0515A0000515A0000515A0000515A00005F
S1130400FFFFFFFFFFFFFFFFFFFFFFFFFEFFFFFFF9
S113041062B64FF000004FF000014FF000024FF0C1
S113042000034FF000044FF000054FF000064FF0BA
S113043000074FF000084FF000094FF0000A4FF09A
S1130440000B4FF0000C04F0C7FEFEE780B500205F
S113045001F088FDC0B20100014801F0CCFD01BDEE
S1130460E85A000038B5DFF88C0B0068022805D084
S1130470DFF8800B0068012840F09D83DFF8780BDB
S11304800068322800DBC01CDFF8681B09680229F9
S11304900FD1052190FBF1F0401EDFF8601B0860CE
S11304A0DFF8580B0068D0F5B470DFF8541B08600F
S11304B008E0DFF8480B0B210160DFF8440B40F241
S11304C05D110160032001F04DFD0400642202214E
S11304D0002001F05BFF64220321002001F056FF9D
S11304E0E4B2552C1AD1DFF8F80D01210160DFF8D0
S11304F0140B00210160DFF8100B00210160DFF80C
S11305000C0B01210160DFF8080B42210170DFF8B8
S1130510FC0A0068DFF8F81A44544CE3DFF8C00D15
S11305200068012814D1E4B2532C11D1DFF8DC0A9D
S11305300068401CDFF8D41A0860DFF8D00A0068AD
S1130540DFF8CC1A4454DFF8C00A0121016032E319
S1130550DFF88C0D0068012814D1E4B2522C11D1BB
S1130560DFF8A80A0068401CDFF8A01A0860DFF86A
S11305709C0A0068DFF8981A4454DFF8880A0121BD
S1130580016018E3DFF8580D00210160DFF8740AF8
S11305900068012840F0B981DFF8700A00680B2870
S11305A00CDADFF8680A0068401CDFF8601A08609B
S11305B0DFF8580A0068DFF8581A4454DFF84C0A88
S11305C000680B2840F0A181DFF8440A0079DFF8C5
S11305D0401AC97851EA002001F03AFF0022DFF8FE
S11305E0443D01F04DFF0022DFF83C3D02F07CF871
S11305F0DFF8382DC2E90001DFF8140A8079DFF84A
S1130600101A497951EA002001F022FF0022DFF894
S1130610143D01F035FF0022DFF80C3D02F064F8D0
S1130620DFF80C2DC2E90001DFF8E409007ADFF8F5
S1130630E019C97951EA002001F00AFF0022DFF82D
S1130640E43C01F01DFF0022DFF8DC3C02F04CF832
S1130650DFF8E42DC2E90001DFF8D02CD2E9000173
S11306600122DFF8C43C02F015F90CD8DFF8BC0C09
S1130670D0E900230020DFF8C41D02F023F9DFF8DD
S1130680AC2CC2E90001DFF8A82CD2E90001012258
S1130690DFF8943C02F0FEF80CD8DFF8940CD0E9B3
S11306A000230020DFF8941D02F00CF9DFF8802C01
S11306B0C2E90001DFF8802DD2E900010122DFF850
S11306C0683C02F0E7F80CD8DFF86C0DD0E90023A1
S11306D00020DFF8681D02F0F5F8DFF85C2DC2E9B0
S11306E00001DFF84C2CD2E900010022002302F0C3
S11306F05DF97CD2DFF8482DD2E900010022002305
S113070002F0C8F873D2DFF8F408006801F0A0FE24
S113071002000B00DFF82C5DD5E9000102F0BAF805
S113072020D8DFF8202DD2E900010022DFF8183D9F
S113073002F03CF916D2DFF8140D64210160DFF8F1
S1130740100D64210160DFF8040D0268002100200F
S113075001F01CFEDFF8F80C02680121002001F012
S113076015FE44E0DFF89808006801F071FEDFF838
S1130770D45CD5E9002302F08DF820D8DFF8C42C2E
S1130780D2E900010122DFF8C03C02F083F816D858
S1130790DFF8B80C64210160DFF8B40C6421016057
S11307A0DFF8A80C02680021002001F0EFFDDFF85B
S11307B0A00C02680121002001F0E8FD17E0DFF839
S11307C08C0CDFF8901C09680160DFF8840C64214C
S11307D00160DFF8780C02680021002001F0D6FDEA
S11307E0DFF86C0C02680121002001F0CFFDDFF876
S11307F0402BD2E900010022002302F04BF87CD206
S1130800DFF83C2CD2E900010022002302F0CEF8EC
S113081073D2DFF8E807006801F01AFE02000B004B
S1130820DFF8205CD5E9000102F034F820D8DFF8C5
S1130830142CD2E900010022DFF80C3C02F0B6F8D7
S113084016D2DFF80C0C64210160DFF8000C64217F
S11308500160DFF8F80B02680021002001F096FD2A
S1130860DFF8EC0B02680121002001F08FFD44E069
S1130870DFF88C07006801F0EBFDDFF8C85BD5E911
S1130880002302F007F820D8DFF8B82BD2E90001E2
S11308900122DFF8B43B01F0FDFF16D8DFF8B00BFE
S11308A064210160DFF8A40B64210160DFF89C0B74
S11308B002680021002001F069FDDFF8940B026852
S11308C00121002001F062FD17E0DFF8840BDFF85E
S11308D0841B09680160DFF8740B64210160DFF890
S11308E06C0B02680021002001F050FDDFF8600B62
S11308F002680121002001F049FDDFF8440BDFF814
S1130900301AD1E90023C0E90023DFF8FC060068AF
S1130910012840F05081DFF8F40600680B280CDA57
S1130920DFF8E8060068401CDFF8E0160860DFF82E
S1130930DC060068DFF8D8164454DFF8D0060068F7
S11309400B2840F03881DFF8C8060079DFF8C016BC
S1130950C97851EA002001F07BFD0022DFF8C43998
S113096001F08EFD0022DFF8E03A01F0BDFEDFF871
S1130970102CC2E90001DFF898068079DFF89016A0
S1130980497951EA002001F063FD0022DFF894392F
S113099001F076FD0022DFF8B03A01F0A5FEDFF8A1
S11309A0A42AC2E90001DFF86806007ADFF86016BD
S11309B0C97951EA002001F04BFD0022DFF86439C7
S11309C001F05EFD0022DFF8803A01F08DFEDFF8D1
S11309D0B42BC2E90001DFF824060068083001F0F6
S11309E037FD02000B00DFF85C4AD4E9000101F096
S11309F051FF17D8DFF84C2AD2E900010022DFF8B2
S1130A00483A01F0D3FF0DD2DFF8E8050068022868
S1130A1004D1DFF8740B0121016003E0DFF86C0BF3
S1130A2001210160DFF8D405006801F011FD020026
S1130A300B00DFF8104AD4E9000101F02BFF1FD8A6
S1130A40DFF8002AD2E900010022DFF8FC3901F0C6
S1130A50ADFF15D2DFF8F40964210160DFF8F00975
S1130A6064210160DFF8E40902680021002001F03C
S1130A708DFCDFF8DC0902680121002001F086FC0E
S1130A80DFF87C050068083801F0E2FCDFF8B449BF
S1130A90D4E9002301F0FEFE17D8DFF8A829D2E933
S1130AA000010122DFF8A03901F0F4FE0DD8DFF8CF
S1130AB044050068022804D1DFF8CC0A0121016052
S1130AC003E0DFF8C80A01210160DFF8340500689B
S1130AD001F0BEFCDFF86C49D4E9002301F0DAFE32
S1130AE01FD8DFF86029D2E900010122DFF8583964
S1130AF001F0D0FE15D8DFF8540964210160DFF855
S1130B00500964210160DFF84409026800210020D3
S1130B1001F03CFCDFF8380902680121002001F0F3
S1130B2035FCDFF8D804006801F092FC02000B00E9
S1130B30DFF81049D4E9000101F038FF17D2DFF8DB
S1130B400C09DFF8101909680160DFF80409642151
S1130B500160DFF8F80802680021002001F016FCAB
S1130B60DFF8EC0802680121002001F00FFCDFF837
S1130B709004006801F06CFCDFF8C848D4E9002355
S1130B8001F014FF17D2DFF8C40864210160DFF814
S1130B90C008DFF8C01809680160DFF8B00802680F
S1130BA00021002001F0F2FBDFF8A4080268012113
S1130BB0002001F0EBFBDFF83C040068032840F060
S1130BC0CF81032001F0CEF90400E4B2552C1AD1F0
S1130BD0DFF80C0701210160DFF82804002101601F
S1130BE0DFF8240400210160DFF820040121016002
S1130BF0DFF81C0442210170DFF810040068DFF8FC
S1130C0010144454ACE1DFF8D8060068012814D16C
S1130C10E4B2532C11D1DFF8F4030068401CDFF870
S1130C20EC130860DFF8E4030068DFF8E4134454CD
S1130C30DFF8D4030121016092E1DFF8A406006823
S1130C40012814D1E4B2522C11D1DFF8C00300689A
S1130C50401CDFF8B8130860DFF8B0030068DFF861
S1130C60B0134454DFF89C030121016078E1DFF8FC
S1130C70700600210160DFF88C030068012840F051
S1130C80A380DFF8880300680B2809DADFF87C0307
S1130C900068401CDD490860DC480068DC494454B5
S1130CA0DA4800680B2840F08F80D9480079D84989
S1130CB0C97851EA002001F0CBFB0022DFF864364A
S1130CC001F0DEFB0022DFF8603601F00DFDDFF8F5
S1130CD05C26C2E90001CE488079CD49497951EAC0
S1130CE0002001F0B5FB0022DFF8383601F0C8FB24
S1130CF00022DFF8343601F0F7FCDFF83426C2E9CD
S1130D000001C348007AC249C97951EA002001F0C0
S1130D109FFB0022DFF80C3601F0B2FB0022DFF863
S1130D20083601F0E1FCDFF81027C2E90001DFF822
S1130D30FC25D2E900010122DFF8EC3501F0AAFD1F
S1130D400CD8DFF8E805D0E900230020DFF8EC1622
S1130D5001F0B8FDDFF8D425C2E90001DFF8D025A1
S1130D60D2E900010122DFF8C03501F093FD0CD86F
S1130D70DFF8BC05D0E900230020DFF8C01601F03D
S1130D80A1FDDFF8AC25C2E90001DFF8AC26D2E909
S1130D9000010122DFF8903501F07CFD0CD8DFF86A
S1130DA09806D0E900230020DFF8901601F08AFDB0
S1130DB0DFF88426C2E90001DFF88406DFF8701545
S1130DC0D1E90023C0E900238F480068012840F0DE
S1130DD0C7808E4800680B2808DA8C480068401CDD
S1130DE08A490860894800688949445487480068EA
S1130DF00B2840F0B580864800798549C97851EAC6
S1130E00002001F025FB0022DFF8183501F038FB43
S1130E100022DFF8343601F067FCDFF86427C2E90A
S1130E2000017B4880797A49497951EA002001F030
S1130E300FFB0022DFF8EC3401F022FB0022DFF884
S1130E40083601F051FCDFF8FC25C2E900017048C6
S1130E50007A6F49C97951EA002001F0F9FA0022B9
S1130E60DFF8C03401F00CFB0022DFF8DC3501F0C0
S1130E703BFCDFF81027C2E90001DFF80427D2E9C0
S1130E8000010122DFF8C03501F004FD0CD8DFF8C1
S1130E90F006D0E900230020DFF8DC1B01F012FD8E
S1130EA0DFF8DC26C2E90001DFF89825D2E9000169
S1130EB00122DFF8943501F0EDFC0CD8DFF884054D
S1130EC0D0E900230020DFF8B01B01F0FBFCDFF8C1
S1130ED07425C2E90001DFF8AC26D2E90001012241
S1130EE0DFF8643501F0D6FC0CD8DFF89806D0E9B9
S1130EF000230020DFF8801B01F0E4FCDFF88426E7
S1130F00C2E90001DFF87806D0E90023DFF86C0BB2
S1130F10DFF86C1B01F0D6FCDFF86426C2E900019F
S1130F20DFF82005D0E90023DFF8580BDFF8581B61
S1130F3001F0C8FCDFF80C25C2E90001DFF8402607
S1130F40D2E90001DFF8FC44D4E9002301F098FA67
S1130F5001F044FDDFF8342BDFF8343B01F0C4FB2F
S1130F6024480068042840F06582032000F0FAFF5A
S1130F700400E4B2552C14D1DFF8640301210160AC
S1130F802048002101602048002101601F48012100
S1130F9001601F48422101701C4800681C494454E8
S1130FA048E2DFF83C03006801280FD1E4B2532C77
S1130FB00CD116480068401C1449086013480068A6
S1130FC01349445410480121016033E2C4480068C5
S1130FD001281FD1E4B2522C1CD10C480068401CDB
S1130FE00A49086009480068094944540548012130
S1130FF001601FE22404FF1F1C04FF1F6804FF1F7D
S11310006C04FF1F3805FF1F3C05FF1F4005FF1F31
S11310102805FF1FB24800210160DFF8780A006844
S1131020012840F0A981DFF8700A00680B280CDA67
S1131030DFF8640A0068401CDFF85C1A0860DFF817
S1131040580A0068DFF8541A4454DFF84C0A006860
S11310500B2840F09181DFF8440A0079DFF83C1A4C
S1131060C97851EA002001F0F3F90022AD4B01F0F8
S113107007FA0022AC4B01F037FBAC4AC2E900018D
S1131080DFF8180A8079DFF8141A497951EA002048
S113109001F0DEF90022A34B01F0F2F90022A24B89
S11310A001F022FBA24AC2E90001DFF8F009007A4C
S11310B0DFF8E819C97951EA002001F0C9F90022E2
S11310C0984B01F0DDF90022974B01F00DFBDFF89E
S11310D06823C2E90001954AD2E900010122924B3A
S11310E001F0D8FB0AD89148D0E900230020DFF8AA
S11310F04C1301F0E7FB8D4AC2E900018C4AD2E9A6
S113110000010122884B01F0C5FB09D88848D0E9C9
S113111000230020C94901F0D5FB854AC2E900013A
S1131120C54AD2E9000101227F4B01F0B3FB09D883
S1131130C148D0E900230020C04901F0C3FBBE4AE6
S1131140C2E900017A4AD2E900010022002301F039
S11311502DFC77D2DFF8300B006801F079F902003A
S11311600B00B84DD5E9000101F020FC0AD3DFF8EB
S11311701C0B006801F06CF9B24DD5E9002301F0B5
S113118015FC21D26A4AD2E900015FF0FF32DFF890
S1131190003B01F07FFB17D8AC4864210160AC48E8
S11311A04FF4FA510160DFF8900B01210160A74868
S11311B002680021002001F0E9F8A5480268012135
S11311C0002001F0E3F83DE0DFF86C0B0021016042
S11311D0574AD2E900015FF0FF32DFF8B43A01F078
S11311E059FB1CD8964AD2E90001514DD5E9002398
S11311F001F0DCFB13D295484FF4FA510160944896
S113120064210160914802680021002001F0BEF8C9
S11312108F4802680121002001F0B8F812E08B48E1
S1131220642101608A484FF4FA51016087480268DA
S11312300021002001F0AAF885480268012100205D
S113124001F0A4F83A4AD2E900010022002301F097
S113125021FB80F08280DFF8300A006801F0F8F8A2
S113126002000B00774DD5E9000101F09FFB0AD382
S1131270DFF8180A006801F0EBF8724DD5E9002395
S113128001F094FB20D22A4AD2E900010022DFF8BF
S1131290C43A01F08BFB17D2DFF89C0A01210160EC
S11312A06A484FF4FA510160694864210160674853
S11312B002680021002001F069F8654802680121F4
S11312C0002001F063F848E0DFF86C0A00210160B7
S11312D0174AD2E900010022DFF8783A02E000BFA1
S11312E03405FF1F01F062FB24D2114AD2E9000148
S11312F0534DD5E9002301F059FB1BD25348642117
S1131300016053484FF4FA510160504802680021CB
S1131310002001F03BF84E4802680121002001F052
S113132035F81AE00000E04000409F40E804FF1F49
S1131330F004FF1F45484FF4FA510160444864210A
S11313400160424802680021002001F01FF8404873
S113135002680121002001F019F83948DFF8F81972
S1131360D1E90023C0E90023DFF8F009DFF8F01920
S1131370D1E90023C0E90023DFF8E8090068012867
S113138058D1DFF8140700680B280CDADFF80807D7
S11313900068401CDFF800170860DFF8FC060068EE
S11313A0DFF8F8164454DFF8F00600680B2841D142
S11313B0DFF8E8060079DFF8E416C97851EA00207E
S11313C001F046F80022DFF8A03901F059F80022B4
S11313D01D4B01F089F96A4AC2E90001DFF8BC0635
S11313E08079DFF8B816497951EA002001F030F825
S11313F00022DFF8743901F043F80022124B01F0A7
S113140073F9104AC2E90001DFF89006007ADFF8A8
S11314108C16C97951EA002001F01AF80022DFF88D
S1131420483901F02DF80022074B01F05DF9554AC7
S1131430C2E9000131BD00000805FF1F0040AFC034
S1131440F804FF1F1805FF1F008066402804FF1FD3
S11314502C04FF1F7004FF1F80B5DFF8100900681B
S113146050F00100DFF804190860DFF8040900688F
S1131470052840F08480DFF8FC080068002810D1BB
S1131480DFF8F40842F210710160DFF8F00864211B
S11314900160DFF8EC0864210160DFF8E8086421EA
S11314A00160DFF8D0080068022810D1DFF8C8080E
S11314B064210160DFF8C40842F210710160DFF8B2
S11314C0C00864210160DFF8BC0864210160DFF812
S11314D0A4080068012810D1DFF89C086421016089
S11314E0DFF8980864210160DFF8940842F2107173
S11314F00160DFF8900864210160DFF87808006873
S1131500032810D1DFF8700864210160DFF86C084B
S113151064210160DFF8680864210160DFF8640871
S113152042F210710160DFF85008026800210020C7
S113153000F02CFFDFF8440802680121002000F0CD
S113154025FFDFF83C0802680221002000F01EFF9E
S1131550DFF8300802680321002000F017FFDFF8ED
S113156014080068401CDFF80C180860DFF8040851
S11315700068042803D1DFF8FC070021016001BDE5
S11315801005FF1F2005FF1F5405FF1F5005FF1FF7
S113159080B5DFF8F407006850F00100DFF8E817C1
S11315A00860DFF8CC070068032840F01D81DFF8ED
S11315B0DC070068401CDFF8D4170860DFF8CC07AC
S11315C0006840F2A231884240F00E81DFF8BC0787
S11315D000210160DFF8B8070068401CDFF8B0178D
S11315E00860DFF8AC0700680D2804DBDFF8A40707
S11315F00121016003E0DFF89C0700210160DFF8AE
S1131600780702680021002000F0C0FEDFF86C07B4
S113161002680121002000F0B9FEDFF864070268C7
S11316200221002000F0B2FEDFF85807026803210F
S1131630002000F0ABFEDFF8600700680F381528C3
S11316403CD2DFF834070068642805D1DFF82807A6
S113165042F22831016003E0DFF81C0764210160D5
S1131660DFF818070068642805D1DFF8100742F294
S11316702831016003E0DFF8040764210160DFF82A
S113168000070068642805D1DFF8F40641F65831F4
S1131690016003E0DFF8E80664210160DFF8E40696
S11316A00068642805D1DFF8DC0641F65831016092
S11316B003E0DFF8D0066421016095E0DFF8D80686
S11316C00068001E0F2826D2DFF8AC0600686428E4
S11316D005D1DFF8A40642F22831016003E0DFF807
S11316E0980664210160DFF894060068642805D137
S11316F0DFF8880642F22831016003E0DFF87C0657
S113170064210160DFF8780664210160DFF8740663
S11317106421016068E0DFF88006006850382828FA
S113172026D2DFF85C060068642805D1DFF850068D
S113173042F22831016003E0DFF8440664210160CD
S1131740DFF840060068642805D1DFF8380642F265
S11317502831016003E0DFF82C0664210160DFF822
S1131760180664210160DFF81406642101603BE07F
S1131770DFF804060068642805D1DFF8FC0542F2AE
S11317802831016003E0DFF8F00564210160DFF82F
S1131790EC050068642805D1DFF8E00542F2283141
S11317A0016003E0DFF8D40564210160DFF8D005AF
S11317B00068642805D1DFF8C80542F228310160C9
S11317C003E0DFF8BC0564210160DFF8B8050068B8
S11317D0642805D1DFF8AC0542F22831016003E04A
S11317E0DFF8A0056421016001BDDFF8B0050068E1
S11317F0800639D5DFF8A405006850F02000DFF832
S11318009C150860DFF868050068022813D1DFF82A
S1131810900500210160DFF88C050068401EDFF8A8
S113182084150860DFF87C0500681E2803DADFF8F9
S113183074051E210160DFF838050068032813D100
S1131840DFF8500500210160DFF84C050068401EF8
S1131850DFF844150860DFF840050068002803D568
S1131860DFF8340500210160DFF8300500688004EA
S113187040F1D980DFF82405006850F40050DFF807
S11318801C150860DFF8E8040068022813D1DFF8AB
S1131890100500210160DFF80C050068401CDFF82A
S11318A004150860DFF8FC0400683D2803DBDFF85A
S11318B0F4043C210160DFF8B8040068032840F018
S11318C0B280DFF8D00400210160DFF8C0040021F9
S11318D00160DFF8C4040068401CDFF8BC14086031
S11318E0DFF8B4040068B52803DBDFF8AC04B421E6
S11318F00160DFF8A40400682D2819D1DFF878040A
S113190042F228310160DFF87C0442F228310160A0
S1131910DFF8680464210160DFF864046421016075
S1131920DFF86C0400210160DFF86004002101602D
S1131930DFF864040068872819D1DFF83C0442F218
S113194028310160DFF8380442F228310160DFF801
S11319502C0464210160DFF82C0464210160DFF8A9
S1131960300400210160DFF8240400210160DFF865
S1131970280400685A2818D1DFF8FC0364210160A8
S1131980DFF8FC0342F228310160DFF8F003642140
S11319900160DFF8F00364210160DFF8F403002143
S11319A00160DFF8E80300210160DFF8EC03006860
S11319B0002818D1DFF8C00342F228310160DFF8B3
S11319C0C00364210160DFF8B40364210160DFF81F
S11319D0B40364210160DFF8B80300210160DFF87B
S11319E0AC0300210160DFF8B00300680F3815284C
S11319F019D2DFF8840342F228310160DFF8800352
S1131A0064210160DFF8740364210160DFF874036A
S1131A1041F658310160DFF8780300210160DFF8F6
S1131A206C03002101607047DFF87C030068C00785
S1131A3007D5DFF87403006850F00100DFF868137D
S1131A400860DFF864030068400607D5DFF8580330
S1131A50006850F04000DFF850130860DFF84803D6
S1131A600068000607D5DFF84003006850F08000E6
S1131A70DFF8341308607047008076C085EB51B8F6
S1131A801E85014014AE47E17A14FEBF46DF617E35
S1131A90DCA54C403805FF1F4005FF1F2805FF1F2C
S1131AA080B5C2480068C00124D5C048006850F021
S1131AB08070BE4908601921042001F061F80128F2
S1131AC015D11A21042001F05BF801280FD1A84890
S1131AD004210160A84864210160A84864210160D0
S1131AE0A74864210160A7486421016002E0A0487E
S1131AF001210160AD480068800124D5AB4800682D
S1131B0050F04000A94908601821042001F038F879
S1131B10012815D11A21042001F032F801280FD12F
S1131B20934804210160944864210160934864212E
S1131B30016093486421016092486421016002E0DD
S1131B408B480221016099480068400140F19B8064
S1131B509648006850F08060944908601921042078
S1131B6001F00EF8012815D11A21042001F008F81B
S1131B7001280FD17E48042101607F48642101605F
S1131B807E48642101607E48642101607D486421AF
S1131B90016078E07648032101607F4800682D28C1
S1131BA013D1754842F228310160764842F2283157
S1131BB001607248642101607148642101607448C5
S1131BC00021016071480021016073480068872882
S1131BD013D1694842F228310160694842F2283140
S1131BE001606648642101606648642101606848B8
S1131BF000210160654800210160674800685A2897
S1131C0012D15D48642101605D4842F228310160CF
S1131C105A48642101605B48642101605C480021EA
S1131C2001605A48002101605B480068002812D115
S1131C30514842F2283101605148642101604F4803
S1131C40642101604F486421016051480021016012
S1131C504E4800210160504800681E2813D14648B0
S1131C6042F22831016046486421016043486421FE
S1131C700160444841F64C5101604548002101602F
S1131C8042480021016001BD7404FF1F7804FF1F56
S1131C90FFFF1BC010B500244548006804004448F9
S1131CA0006843495FF0FF320A6072B6A1072ED57F
S1131CB040480068401C3F4908603E480078C0071F
S1131CC025D43C480068032812D33B48007873218C
S1131CD03A4A01FB00203A4908603A48006850F04B
S1131CE001003849086034480078401C32490870C3
S1131CF03148007878280ADB0321012000F096FFA0
S1131D000121012000F092FF2F48012101702007DA
S1131D1010D52848002101602748002101702B4874
S1131D20006850F0010029490860092201210120BE
S1131D3000F090FF62B610BD5C05FF1F24480068E8
S1131D4050F080002249086022480078401C214954
S1131D500870704700001C40F004FF1F0005FF1FBF
S1131D60E804FF1F3C05FF1F0000E0401C71034016
S1131D702404FF1F4C05FF1F2804FF1F2C04FF1F12
S1131D803004FF1F3404FF1F0C7103404405FF1F80
S1131D904805FF1F5805FF1F2004FF1FA0900440A3
S1131DA05405FF1F1C04FF1FA0B00440A0D0044032
S1131DB0A0A00440483BFF1F593BFF1F6005FF1FC5
S1131DC0109000400C800040583BFF1F24800040CE
S1131DD0000004405A3BFF1F30B4C0B2002806D0B4
S1131DE0022827D016D3042842D032D34FE0DFF89C
S1131DF04C224FF440731360DFF844224FF44073D5
S1131E001360DFF84022126852F48062DFF8343243
S1131E101A603CE0DFF830224FF4407313608B4AC1
S1131E204FF440731360874A126852F40062854B82
S1131E301A602CE0864A4FF440731360854A4FF4CD
S1131E40407313607F4A126852F480527D4B1A60CB
S1131E501DE0814A4FF440731360804A4FF440738D
S1131E601360784A126852F40052764B1A600EE0FE
S1131E707B4A4FF4407313607A4A4FF44073136003
S1131E80794A126852F48062774B1A60FFE7C0B255
S1131E90764A52F82020D27812F0F302C0B2734B83
S1131EA053F82030DA70C0B2704A52F82020002370
S1131EB09370C0B2002801D1012200E00022C0B218
S1131EC0012801D1012300E00023D2B2DBB21A437E
S1131ED0002A05D0664A12684FF47A735A4304E024
S1131EE0644A12684FF47A735A430B01B2FBF3F35A
S1131EF0C0B25E4C54F82040247814F0E0049BB245
S1131F001D0A15F01F052C43C0B2584D55F820503A
S1131F102C70C0B2554C54F8204063705201090132
S1131F20B2FBF1F19BB2B1EB4311C0B24F4A52F88C
S1131F302020927A12F0E004C0B24C4A52F82020D9
S1131F4011F01F0121439172C0B2484951F8201089
S1131F50C97851F00C01C0B2444A52F82000C17053
S1131F6030BC7047C0B2414951F820100979890644
S1131F70F8D5C0B23D4951F82000C0797047C0B2CD
S1131F803A4A52F8202012791206F8D5C0B2374ADC
S1131F9052F82000C171704738B504000D00EDB24D
S1131FA00A2D04D10D212000C0B2FFF7E8FF29005B
S1131FB0C9B22000C0B2FFF7E2FF31BD38B504005A
S1131FC00D0005E029782000C0B2FFF7E5FF6D1C85
S1131FD028780028F6D131BD0EB400B5C0B041AAAE
S1131FE0010000A800F06EFE00A90020FFF7E6FF44
S1131FF040B05DF810FB0EB400B5C0B041AA0100BA
S113200000A800F05FFE00A90020FFF7D7FF40B052
S11320105DF810FB80B5C0B2144951F82010C9789E
S113202051F02001C0B2114A52F82020D170C0B240
S113203040002D3000F05FFE01BD000040A00440D0
S113204044A00440348004400CB0044010B0044068
S11320500CC0044008C0044040B0044044B00440F4
S113206064D0044060D00440288004408404FF1FEE
S11320704C3BFF1F543BFF1F2DE9F04104000D00B2
S113208016001F00DFF8780300684FF47A7101FB33
S113209000F8E4B2002C0DD0E4B2012C02D0E4B27A
S11320A0022C02D1EDB2022D04DB6821DFF85403C7
S11320B000F07AFE5FEA5800B04203D35FEAD850DA
S11320C0B04206D3DFF840236B21DFF8380300F079
S11320D0A6FE5FEA1840B0FBF6F1002000E0401CC9
S11320E031FA00F2002AFAD138FA00F1B1FBF6F124
S11320F0491E4A1C02FB07F242F21073B2FBF3F2D0
S1132100E4B2002C05D0022C00F0B680C0F0898027
S1132110DDE0DFF8F8321B6853F08073DFF8EC621F
S11321203360EDB2002D0BD0022D25D016D3042D33
S11321303ED02FD3062D57D048D3072D62D06FE061
S1132140DFF8D4321B6853F40063DFF8CC623360E9
S1132150DFF8C8324FF480661E60B8E0DFF8B832AA
S11321601B6853F40063DFF8B0623360DFF8B03209
S11321704FF480661E60F0E7DFF89C321B6853F46E
S11321800063DFF894623360DFF898324FF48066BE
S11321901E60E2E7DFF880321B6853F40063DFF867
S11321A078623360DFF880324FF480661E60D4E7D3
S11321B0DFF864321B6853F48053DFF85C623360E9
S11321C0DFF868324FF480661E60C6E7DFF84832F5
S11321D01B6853F48053DFF840623360DFF85032F9
S11321E04FF480661E60B8E7DFF82C321B6853F4A6
S11321F08053DFF824623360DFF838324FF48066AE
S11322001E60AAE7DFF810321B6853F48053DFF82E
S113221008623360DFF820324FF480661E609CE76A
S1132220B2E0DFF8E8311B6853F00073DFF8DC61DB
S11322303360EDB2002D02D0012D0ED01BE0DFF88B
S1132240D8311B6853F40073DFF8CC613360DFF8D6
S1132250EC314FF440761E6039E0DFF8BC311B6886
S113226053F40073DFF8B0613360DFF8D4314FF416
S113227040761E60F0E787E0DFF894311B6853F086
S11322808073DFF88C613360EDB2002D02D0012D34
S11322900ED01BE0DFF880311B6853F48063DFF855
S11322A078613360DFF89C314FF440761E600EE0B5
S11322B0DFF864311B6853F48063DFF85C613360DA
S11322C0DFF884314FF440761E60F0E75CE0EDB255
S11322D0E4B2DFF8403153F8243013EBC503EDB218
S11322E0E4B2DFF8306156F8246016EBC506F668F0
S11322F036F00406DE60EDB2E4B2DFF8183153F8CC
S1132300243013EBC5032826DE60E4B2DFF8043181
S113231053F8243000265E60E4B2DFF8F83053F856
S1132320243089B29960E4B2DFF8E81051F824103F
S11323300023CB64EDB2E4B2DFF8D81051F82410D6
S113234011EBC50192B20A61E4B2DFF8C81051F88A
S113235024100968C0B210F0070050F008000843C8
S1132360E4B2DFF8B01051F824100860E4B2DFF8EA
S1132370A40050F82400006830F02000E4B2DFF834
S1132380941051F824100860BDE8F08170B5040081
S11323900D001600E4B2002C0ED0E4B2012C02D0E1
S11323A0E4B2022C02D1EDB2022D05DB4FF4DF7151
S11323B0DFF8500000F0F8FC42F21170864207D3B7
S11323C0DFF8882040F2BF11DFF8380000F027FD65
S11323D0E4B2DFF8400050F824008068401C00FBA1
S11323E006F042F21071B0FBF1F0EDB2E4B2DFF8A6
S11323F0241051F8241011EBC501086170BD0000D0
S1132400543BFF1F30300000C85A00003C80044099
S1132410308004401004FF1F3880044004B004409E
S113242008B004400CB0044010B0044010C0044094
S113243014C0044018C004401CC004403090044040
S11324403490044048A004404CA00440685A000062
S1132450010040F10980F446404200F005F851F0D3
S113246000416047010000BF09D0B0FA80F1884004
S1132470C91CC1F58461090501EBD02140057047F1
S1132480F0B540F2FF7581EA030C0CF0004C15EA3C
S113249011541DBF15EA1357AC42AF42E5E0BC41ED
S11324A0C1F31301C3F31303801A994143F4801356
S11324B004D2641E4000494180185941C90241EACE
S11324C05051B1FBF3F603FB1611A2FB0675D7EBD3
S11324D0C020A94102D2761E80185941C90241EA9E
S11324E05051B1FBF3FE03FB1E11A2FB0E75D7EB9B
S11324F0C020A94103D2AEF1010E801859418902CE
S113250041EA9051760546EA8E2EB1FBF3F603FBC1
S11325101611A2FB0675D7EB8020A94102D2761EC4
S113252080185941C90241EA50514EEA060EB1FBE6
S1132530F3F603FB1611A2FB0675D7EBC020A941E5
S113254002D2761E80185941C90241EA5051B1FBAA
S1132550F3F703FB1711A2FB0735D3EBC020A94106
S113256067F100070CBF004247F0010766F3D52767
S11325704FEA1E31B80814F5806412DDBD0775F109
S1132580004250EB0E5051EB045111F5801F5CBF1B
S113259041EA0C01F0BD4CF07F6141F0E0410020C4
S11325A0F0BDBD076D0840EA0E5041F48011D4F12E
S11325B00104B4F120060ADAC4F120060200E04066
S11325C001FA06F3E1401843B24015430EE0342CFF
S11325D013DCC6F1200445EA40056D0820FA06F232
S11325E0154321FA06F0A1400D43002175F1004284
S11325F050F1000051EB0C01F0BD00205FEA0C012A
S1132600F0BDCFB992185B41B3FA83F704BFB2FAB5
S113261082F6BF190B3FB7F120062FBF02FA06F36B
S1132620BB40C7F1200622FA06F638BF3343BA404E
S11326301CB1E419641E33E77F4231F00041B1FA62
S113264081F404BFB0FA80F6A4190B3CB4F120065F
S11326502FBF00FA06F1A140C4F1200620FA06F6C5
S113266038BF3143A0403C1B1AE7AC421ABF05EA0D
S11326701357AF4212E050EA41061CBF52EA430628
S1132680BFE750EA4107304661461CBF41EA0551A5
S1132690F0BD52EA430C08BFC143F0BD00204FF423
S11326A0001616EB410F98BF16EB430F08BF16EB4D
S11326B0410F24BFC14305E016EB430F0CBF614635
S11326C04CEA0551F0BD50F8041B61B150F8042BDD
S11326D0D30744BFA9F101039A18002342F8043B2D
S11326E0091FFAD1EFE77047B0B581EA030C0CF08B
S11326F0004C40F2FF7515EA11541DBF15EA13573B
S1132700AC42AF4239E0E41923EA455343F4801361
S1132710C90241F0004141EA505EC7021100A7FB23
S1132720020200284FF00000EEFB01204FF00001F0
S1132730E3FB072118BF42F0010240180021494180
S1132740E3FB0E01A4F580640F0302D25200404162
S1132750494154F101046CDD470872F1004250F123
S1132760000051EB0451A1F580115CBF41EA0C015A
S1132770B0BD4CEA05510020B0BD05EA1357AC4288
S113278014BFAF4241E050EA410E1CBF52EA430E6F
S113279002E061460020B0BD24423C441BD15FEA04
S11327A0070EF6D0090302BF01460020AEF1140E55
S11327B0B1FA81F7AEEB070401FA07FE0C37C7F153
S11327C0200100FA07F7C8404EEA000E23EA4553F9
S11327D043F48013A2E733F00043B3FA83F704BF52
S11327E0B2FA82FE77440B3FE41BB7F1200E2FBFF1
S11327F002FA0EF3BB40C7F1200E22FA0EFE38BFD8
S113280043EA0E03BA40641C82E750EA410E14BF47
S113281052EA430E6FF000014FF4001717EB430F19
S11328208ABF194617EB410FB5E74CEA0551002062
S1132830B0BDD4F10104B4F120070FDAC4F12007CC
S1132840520828BF42F0010210FA07F501FA07F70F
S1132850E1BF2A43E0403843E1400FE0352C98DCE7
S1132860C7F1200452EA400220FA07F218BF42F0EE
S1132870010231FA07F0A1400A43002172F100423B
S113288050F1000051EB0C01B0BD0268531C036011
S1132890117070474FF4001C1CEB410F94BF1CEBEC
S11328A0430F09E041EA030C50EA4C0C52EA0C0CC9
S11328B003D28B4208BF8242704714BF99429042B0
S11328C07047000070B44FF0004591EA030C44BF18
S11328D06B4000F0F7BA00BF841A71EB030603D211
S11328E0001BB141121973414FF4001C1CEB410F42
S11328F034BF7CEB430443E00C0DA4EB1356352E9C
S113290050DC45EAC323DB0A45EAC121C912B6F10A
S113291020050DDD63FA05F6EB4086EA0305124255
S113292018BF45F00105C01851F100010CD213E0A5
S113293062FA06F5F2405540F3415A40B340F34081
S11329405A408018594107D349085FEA30005FEACA
S1132950350528BF45F0010501F58011420875F1E0
S1132960004250F1000041EB045170BC4FF4001CD4
S11329701CEB410F38BF70470020090D0905704753
S11329801CEB410F10D252EA43060BD0BCEB410FB3
S113299005D80C0DAB43661E342EB5DD02E0AB4307
S11329A08018594170BC704770BC70474FF4001CCC
S11329B01CEB410F94BF1CEB430F09E041EA030CED
S11329C050EA4C0C52EA0C0C03D2994208BF9042D4
S11329D0704714BF8B4282427047000013B5C1F3A5
S11329E00A5240F2FF739A4208D0002A04BF090336
S11329F050EA11300ED1DDE900011CBD090350EA93
S1132A001130F8D101980028154801D515491CBD8D
S1132A1015491CBDDDE9000100220023FFF7C6FFB4
S1132A203DBF81F00041CDE9000108240024DDE927
S1132A30000101220D4BFFF72DFF09D81946DDE9EE
S1132A4000230020FFF71CFDCDE9000184F00204FF
S1132A50DDE90001224602B0BDE8104000F00CBBE5
S1132A60182D4454FB21F9BFFB21F93F0000F03F2E
S1132A70F8B504000D0017001E00EDB2202D02D29F
S1132A80F6B2022E03D32421474800F08DF9EDB2AB
S1132A90E4B2464850F82400FFB257F4807140F87D
S1132AA02510F80705D5FFB2032F02D0FFB2022F7D
S1132AB00DD1E4B23E4850F8240040690121A940F8
S1132AC08843E4B23A4951F8241048612AE0E4B258
S1132AD0374850F8240040690121A9400843E4B272
S1132AE0334951F824104861F6B2012E0DD1E4B2F5
S1132AF02F4850F8240000680121A9400843E4B29B
S1132B002B4951F8241008600CE0E4B2284850F82E
S1132B10240000680121A9408843E4B2244951F803
S1132B2024100860F1BD70B504000D001600EDB26C
S1132B30202D02D2F6B2022E03D349211A4800F006
S1132B4033F9F6B2012E0DD1E4B2194850F824003D
S1132B5000680121A9400843E4B2154951F8241042
S1132B6008600CE0E4B2124850F824000068012127
S1132B70A9408843E4B20E4951F82410086070BD9E
S1132B8038B504000D00EDB2202D03D36B210648A7
S1132B9000F00AF9E4B2064850F824000069E8405D
S1132BA010F0010032BD0000B05500004C04FF1FBE
S1132BB03804FF1F10B5404B1B684FF40074844069
S1132BC023433D4C2360C9B2C0B23C4B53F8203080
S1132BD0D2B2140414F47024D2B2D209D2B2224371
S1132BE052F4897243F82120C0B2354A52F82020A9
S1132BF0526901238B409A43C0B2314B53F82030C1
S1132C005A61C0B22D4A52F82020D2F8A0200123E4
S1132C1013FA01F11143C0B2284A52F82020C2F835
S1132C20A010C0B2573000F066F810BD10B4C9B29D
S1132C30C0B2224A52F820200B00DBB2C0B21F4CB3
S1132C4054F8200050F8230030F4702042F821009A
S1132C5010BC704710B4C9B2C0B2184B53F820303E
S1132C60D2B2140414F47024D2B2D209D2B22243E0
S1132C7052F4897243F82120C0B2114A52F820203C
S1132C80526901238B409A43C0B20D4B53F8203054
S1132C905A61C0B2094A52F82020D2F8A020012378
S1132CA013FA01F11143C0B2044A52F82000C0F8EB
S1132CB0A01010BC70470000388004404C04FF1F73
S1132CC03804FF1F16B504460A46009401AB00A958
S1132CD006487844163000F0BFFA009900220A70C2
S1132CE000285CBF0098001B16BD00BF9FFBFFFFC0
S1132CF025490860704710B504005C2C02DB2348AA
S1132D00FFF779F9202094FBF0F0002803D0022883
S1132D1027D013D337E00120202194FBF1F202FBEA
S1132D20114290401A4908600120202194FBF1F2DD
S1132D3002FB114290401749086024E00120202141
S1132D4094FBF1F202FB1142904013490860012008
S1132D50202194FBF1F202FB114290400F490860DC
S1132D6011E00120202194FBF1F202FB114290407A
S1132D700B4908600120202194FBF1F202FB11426F
S1132D8090400849086010BD08ED00E0305600008E
S1132D9080E200E000E100E084E200E004E100E021
S1132DA088E200E008E100E038B504000D0001F01D
S1132DB01FF92A0021003948FFF71DF90F2003E00D
S1132DC0491E0029FCD1401E0028F2D07FF07F412B
S1132DD000E0491E0029FCD131490968096891F4D1
S1132DE080412F4A126811602D490968096891F4DD
S1132DF000412B4A1268116029490968096891F455
S1132E008031274A1268116025490968096891F4DC
S1132E100031234A126811607FF07F41D1E770B519
S1132E2004000D00160001F0E3F82A0021001D48FB
S1132E30FFF7E1F831001C48FFF7DDF85F2003E0FD
S1132E40491E0029FCD1401E0028EED0174900E09D
S1132E50491E0029FCD112490968096891F480418E
S1132E600F4A126811600E490968096891F400411B
S1132E700B4A126811600A490968096891F48031A3
S1132E80074A1268116006490968096891F400311B
S1132E90034A126811600549D3E700006856000030
S1132EA03804FF1F48570000B85A0000FFFF07000E
S1132EB070B44FF0004591EA030F44BF6B40FFF735
S1132EC00BBD00BF841A71EB030604D26E40001BD5
S1132ED0B141121973414FF4001C1CEB410F34BF74
S1132EE07CEB430684E00C0DA4EB1356362E7DDCFC
S1132EF0012E43DC45EAC32343EA525312BFD202F4
S1132F0092025B08240545EAC12141EA5051D2EB03
S1132F10C020994125D407D1B0FA80F610FA06F101
S1132F2064D00020203608E0B1FA81F6B140C6F141
S1132F30200220FA02F21143B0404FEAF474B4EBD9
S1132F40465434F001064FEA74040AD8D6F5001644
S1132F50760D04F00044F04061FA06F25040F1406E
S1132F604840C00A40EA415021F0004128BF5FEACE
S1132F70500550F1000044EBD12137E045EAC3236A
S1132F80DB0A45EAC121C90AB6F120050EDD42EA91
S1132F900242120CC5F1200603FA06F6EB4042EA9F
S1132FA006056D42984161F100010DE062FA06F5F3
S1132FB0F240554063FA06FC82EA0C02F3405A40A0
S1132FC06D42904161EB030111F4801F05D1641E31
S1132FD0620502D06D004041494121F4801143084B
S1132FE075F1004350F1000041EB045170BC70478F
S1132FF01CEB410F15D223F0004352EA43060BD0D9
S11330004FEA4C0CBCEB410F04D80C0D661E342E59
S1133010B7DDEBE7801A994150EA410608BF002169
S1133020E4E708BF1CEB430F28BF6FF00001DDE7A6
S1133030433A5C55736572735C41646D696E697380
S1133040747261746F725C4465736B746F705C4D01
S1133050505536303530382E31325C7372635C64CF
S11330607269766572735C46544D5C46544D2E63AA
S113307000000000000000002DE9F04D1746504A02
S1133080504BFFF707FC04460D461CD84E4EDFF8A4
S11330903C8132464346FFF727FB00224C4BFFF7A7
S11330A011FC82468B463246434620462946FFF7AA
S11330B009FC02460B4650465946FFF7E1F904461F
S11330C00D4647F00107204629460022414BFFF7F1
S11330D06DFC05D301224FF07953FFF7DBFB53D886
S11330E022462B46FFF700FB0646884632464346F7
S11330F020462946FFF7F8FA82468B463648374978
S113310032464346FFF7F0FA354A364BFFF7DAFB0F
S113311032464346FFF7E8FA334A344BFFF7D2FB13
S113312052465B46FFF7E0FA22462B46FFF7CAFBFE
S113313004460D462E482F4932464346FFF7D4FA3B
S11331402D4A2E4BFFF7BEFB32464346FFF7CCFA1F
S11331502B4A2C4BFFF7B6FB32464346FFF7C4FA23
S1133160294A2A4BFFF7AEFB32464346FFF7BCFA27
S11331700022274BFFF7A6FB02460B4620462946B2
S1133180FFF77EF904460D46B80748BF85F00045B1
S113319017F007000BD00FF2800101EBC0022B46A1
S11331A0D2E900012246FFF78DFB04460D4638079D
S11331B047BF85F00041204620462946BDE8F08DF2
S11331C057CD9E5E1426D13FAA4C58E87AB6FB3FF1
S11331D00000F0BF000040BE845D57134B57B03F62
S11331E0B2934C19ED5EE43FBEDE02B90240F83FF3
S11331F0DE39028FC7C0743F8AAB1283000CC83F0C
S113320024D7E508B6D8F03F0F34580E5895FD3F43
S11332100000F03F0000000000000000000000007B
S113322066732D3852C1E03F182D4454FB21F93FF9
S113323066732D3852C1F03F182D4454FB21F93FD9
S113324066732D3852C10040182D4454FB210940A7
S11332503FD038C6A6F104402DE9F04FA1B0824614
S113326002AE002017461D46029170620DF144081B
S11332700AE017F8011B0298D0470290002800F0DA
S1133280DA82706A401C7062387808B9706AD4E2D5
S11332902528EED10020F06030617061B061F061EA
S11332A0306201E040F0010017F8011F2029F9D035
S11332B023290DD02B2904D02D2906D030290AD05A
S11332C00CE040F0020080B2EEE740F00400FAE7C0
S11332D040F00800F7E740F01000F4E72A290DD188
S11332E029680A1D2A600968F162002904D5494247
S11332F040F00400F16280B27F1C13E00021F1620F
S11333000BE0F16A6FF00043994205D001EB8103B1
S113331002EB43013039F1627F1C3A78A2F13001AB
S11333200A29EED339782E2903D04FF0FF31B16248
S11333301EE017F8011F2A2906D129680A1D2A60F0
S11333407F1C0968B16213E00021B1620BE0B16A2D
S11333506FF00043994205D001EB810302EB430176
S11333603039B1627F1C3A78A2F130010A29EED3D8
S113337030860FF66040397800F054FE08B117F833
S1133380010B8DF83A009DF83A00682802BF39789D
S11333906829622005D06C2804BF38786C2803D1D2
S11333A071208DF83A007F1C11A8B0603978B1F112
S11333B0250029D01C3800F0C080001F022840F2EC
S11333C0BC80133800F0E480093800F0B680801E19
S11333D000F07781401E00F02081401E022840F258
S11333E0AC80001F00F01981401F7BD0401E00F00C
S11333F0CF80401E22D0C01E0BD0801E00F0C8809B
S1133400C01E00F0C58064E1F068411CF160252114
S113341069E12868011D29600068B26A7060002AA9
S113342002D500F00BFE07E0002100F023FE002887
S11334301ABF7168401AB06A306156E12868011DEC
S1133440296000210068CDE900014FF03C0E11A86D
S11334507060DDE9000111B908B9B26ACAB10206A7
S1133460120FA0EB02123032AEF10103D2B29E462B
S11334703A2AA8BF2732000903F8082040EA01705D
S1133480090908BF002804D0726811AB73449A423A
S1133490E5D311A971447160CEF13C00B16A306189
S11334A0884207DA081AB0614FF6EF71308E08408F
S11334B030861AE1002940F1188196F8301001F0A5
S11334C01401102940F01181F16AF268891AB26975
S11334D0891AA1EB000EBEF1010FC0F20681C6F8F5
S11334E018E002E19DF83A00622818D0682806D056
S11334F06A280BD06C2819D0712807D016E02868E8
S1133500011D29600068716A0180EEE02A68101DBF
S113351028601268706AC117C2E90001E5E02868F2
S1133520011D29600068716A0170DEE02868011DD0
S113353029600068716A0160D7E02868C01D20F026
S11335400700286000F108022A60D0E90023CDE9D1
S11335500023002B04D5F068421CF2602D220DE0FC
S1133560308E820704D5F068421CF2602B2205E0FD
S1133570C00705D5F068421CF260202200F808203C
S1133580F06811AA8018706000A800F0E3F9ACE0BC
S11335909DF83A006C2808BF2A6811D0712808BF2A
S11335A02A6802D02A686A280AD1D21D22F00702AA
S11335B02A60144604F108022A60D4E9002303E0D7
S11335C0131D2B6000231268CDE90023682808BF6F
S11335D092B207D0622808BFD2B203D0742818BFB1
S11335E07A2802D10023CDE9002396F830000007A1
S11335F05FD5DDE90023002B08BF002A59D041F034
S11336002000782855D1F068302200F80820401CAA
S1133610421CF26000F808104BE09DF83A00622862
S11336200CD0682810D06A281AD06C2823D07128AE
S113363016D074281FD07A280CD01CE02868021DEC
S11336402A6090F900201AE02868021D2A60B0F967
S1133650002014E02868021D2A60002302680FE09D
S11336602868C01D20F00700286000F108022A60C5
S1133670D0E9002304E02868021D2A600268D317F9
S1133680CDE90023002B04DAF068421CF2602D22FD
S11336900DE0308E820704D5F068421CF2602B22C4
S11336A005E0C00705D5F068421CF260202200F84E
S11336B00820F06811AA8018706000A800F0C0F813
S11336C013E0F068411CF16029680A1D2A6009684A
S11336D009E0F068421CF260252200F8082021B1BC
S11336E0F068421CF26000F80810F06AF168401AB1
S11336F0B169401A3169401AF169401A7169401A76
S1133700316AA0EB010996F830007F1C400710D401
S113371020208DF84000002409E0012310AA00A90C
S1133720504600F040FC002840F08580641C4C4565
S1133730F3DBF4680DF1440B0AE01BF8011B02985B
S1133740D0470290002876D0706A401C7062641ED4
S1133750002CF2D130208DF840004FF0000BB469FA
S113376009E0012310AA00A9504600F01CFC00281F
S113377061D10BF1010BA345F3DB3469D6F804B036
S11337800AE01BF8011B0298D0470290002852D08F
S1133790706A401C7062641E002CF2D130208DF8D7
S11337A040004FF0000BF46909E0012310AA00A9BE
S11337B0504600F0F8FB00283DD10BF1010BA34566
S11337C0F3DB30697168746900EB010B09E01BF8E5
S11337D0011B0298D047029068B3706A401C706263
S11337E0641E002CF3D130208DF840004FF0000B04
S11337F0346A08E0012310AA00A9504600F0D3FB64
S1133800C8B90BF1010BA345F4DB96F8300040076F
S11338107FF53AAD20208DF84000002400E0641CC0
S11338204C45BFF631AD012310AA00A9504600F063
S1133830BAFB0028F3D04FF0FF3021B0BDE8F08F81
S11338402DE9FA47064682B035690A466F2A08BF51
S1133850082705D041F02000782814BF0A27102734
S1133860D6E900013C2480468946642A18BF692AA7
S113387005D1002903DAD8F1000869EB4909B9F147
S1133880000F08BFB8F1000F0CD1306B50B9082FEE
S11338903BD196F83800000737D530203B2485F813
S11338A03B0032E0CDE90089FB17404649463A46E1
S11338B000F00CFCB846A8FB0023DDE90089A8EB66
S11338C002023032A4F1010AD2B254463A2A03DB8E
S11338D09DF80830513B9A180AF8052080465FEAA3
S11338E0010908BFB8F1000F03D0F06861198842DC
S11338F0D8D3082F09D196F83800000705D5605DA4
S1133900302802D0641E30206055C4F13C00B06100
S11339106119F160316B884207DA081A30624FF698
S1133920EF71308F0840308710E000290ED596F8EB
S1133930381001F01401102908D1716B7269891AC9
S1133940326A891A081A0128A8BF306204B0BDE897
S1133950F08700002DE9F24F04468EB0D4E900014F
S1133960CDE9020104AE9DF8380040F0200000903B
S113397061280AD0206B002848BF062004D404BF65
S11339800098672801D1012020636168C1F30A50BF
S113399040F2FF7290421CD1080304BF2068002843
S11339A009D10320A0619DF8380061381A2836D364
S11339B00FF2346108E00320A0619DF838006138FB
S11339C01A2829D30FF21861E068032200F0F6FBED
S11339D0B5E1012816DA204600F02BFC012811DBA2
S11339E0002700200099612920D1E168302201F8E4
S11339F0012B4A1CE2609DF83820612A0CBF782212
S1133A0058220FE0626840F2FE3161F31E52471AF9
S1133A1062604FF0FF30E5E70FF2C051D4E70FF2D8
S1133A20C451D1E70A706169891C616110B900252C
S1133A3000277BE10098612840F09680206B0028E5
S1133A404CBF2125451CDDE902012DB26E1CD4E9D1
S1133A50008900220023FEF7A9FF3ABF89F0004045
S1133A60CDE90280CDE902893F1F8DF810200DF1C8
S1133A70110801E000F20708012E32DBDDE9020142
S1133A8000220023FEF706FF2BD21C2102A800F01F
S1133A90F1FBDDE9020100F073FCF61F8146012E03
S1133AA009DBFEF7D5FC02460B46DDE90201FFF710
S1133AB0FFF9CDE9020108F20700072105E009F04A
S1133AC00F0200F8012D4FEA2919B9F1010F01DBAA
S1133AD0491EF4D5491E5CBF002200F8012DF9D51A
S1133AE0C8E70DF11100A8EB00010DF11106A94280
S1133AF0B8BF0D462DB228002FD4884206DA04A997
S1133B00411849780829A8BF0F2100DA002104AA26
S1133B10821800E06D1E12F80139401E8B42F9D064
S1133B200F2904D104A941184A78521C4A7000286C
S1133B3002D504AE6D1C3F1D2DB2681E0DD4811933
S1133B400A783032D2B23A2A03DB9DF838303A3B55
S1133B509A1801F80129401EF2D5206B002840F183
S1133B60E580681E2063E1E0DDE902010022002314
S1133B70FEF71CFF3CBF81F00041CDE902013FB2DA
S1133B8047F2975078434849DFF820B190FBF1F7AA
S1133B903FB2C7F107069246012E19DBDDE902891F
S1133BA0F00707D552465B4640464946FEF79CFD62
S1133BB08046894676105046594652465B46FEF783
S1133BC093FD82468B46002EEAD1CDE9028921E09D
S1133BD076429046DFF8D89012E0F00707D55246B7
S1133BE05B4640464946FEF77FFD8046894676108F
S1133BF05046594652465B46FEF776FD82468B4652
S1133C00002EEAD1DDE9020142464B46FEF738FCBC
S1133C10CDE90201009866280CBF07F10A000620CE
S1133C20216B4518142DA8BF132530208DF81000E2
S1133C300DF11106DFF87C90012D3DDBDDE9020179
S1133C4000F0B4FB06F1080104220A23B0FBF3F3ED
S1133C5003EB8306A0EB4600303001F8010D0A2087
S1133C60B3FBF0F000EB8006A3EB4603303301F81E
S1133C70013D521EE9D1083D01F10806012DDBDBAF
S1133C80DDE9020100F092FBFEF7ECFB02460B4675
S1133C90DDE90201FFF70CF900224B46FEF724FD93
S1133CA0CDE90201CAE700BFA0860100000024405C
S1133CB00000F03F84D797410DF11100301A0DF147
S1133CC0110602E0401E7F1E761C31783029F9D09F
S1133CD00099662902D13FB2791C03E065290CBF23
S1133CE001210021226B8D182DB2A842B8BF0546D0
S1133CF02DB229001AD4814204DA885D3528A8BF80
S1133D00392000DA30208A19521E00E06D1E12F8A4
S1133D100139491E8342F9D0392802D1885D401CFB
S1133D208855002902D5761E6D1C7F1C3FB29DF874
S1133D30381000972BB23246204600F003F80FB03B
S1133D40BDE8F08F2DE9F043054685B01E46D5F851
S1133D50308089461746012E02DA01260FF28C279D
S1133D6049F02000BDF93040662808BF641C17D014
S1133D70672840F0818014F1040FC0F28380444529
S1133D8080F2808095F83800641C000702D4464510
S1133D90B8BFB04624B2B8EB040848BF4FF00008DF
S1133DA0E868A96924B2012C25DA30234A1C0B5493
S1133DB0B8F1010F03DA95F83810090702D52E215E
S1133DC01154521CAA6118EB040FB8BFC8F10004C7
S1133DD024B26142A0446962B045B8BF464636B2D7
S1133DE0EE613246AB693946181800F0E7F9A8EBE2
S1133DF00600A862C0E00818A64218DA324639461E
S1133E0000F0DCF9A9697118A961A01B6862B8F116
S1133E10010F03DA95F83800000705D5E8682E226B
S1133E200A54E869401CE861C5F82880A4E02246E9
S1133E30394600F0C3F9A8692018361BB8F1010F00
S1133E4003DA95F83810090703D5E9682E2242549D
S1133E50401C36B2A861B045B8BF4646EB6836B2DE
S1133E603246E119C01800F0A9F9A8693018A86110
S1133E70A8EB060068627FE0B9F1610F16D14FF03C
S1133E80700918E0464504DA95F83810090758BF58
S1133E90B046B8F1010848BF4FF00008B9F1670F08
S1133EA014BF4FF045094FF0650904E0B9F1410F23
S1133EB008BF4FF05009A969E86817F8013B0B5493
S1133EC04A1CB8F1010F05DA95F83810090758BFF4
S1133ED0AA6117D52E211154531CAB61B8F1010FFF
S1133EE010DB761E36B2B045B8BF464636B232460F
S1133EF03946181800F062F9A8693018A861A8EBCF
S1133F0006006862A869E9684718200007F8019B61
S1133F1003D42B2007F8010B03E02D2107F8011B24
S1133F20644200260DF1080808E00A2200A800F007
S1133F3053FA019808F8010B761C009C21B2012960
S1133F40F3DA022E06DA49F02000652804BF302097
S1133F5007F8010B4EB9302007F8010B07E0761E75
S1133F6002A8305C303007F8010B012EF7DAA8699B
S1133F70E9684018381AE86195F8380000F0140030
S1133F8010280DD16869A9690818696A0818E969CF
S1133F900818A96A0818696B8842BCBF081A286205
S1133FA005B0BDE8F083F8B504460D4616461F4635
S1133FB0002004E0E86A401CE8627F1E002047B14C
S1133FC016F8011BA868A047A8600028F2D14FF09A
S1133FD0FF30F2BD686A6C747A4C00006E616E004A
S1133FE04E414E00696E6600494E460030000000A6
S1133FF080B5012301220E210020FEF739FD0123A3
S113400001220F210020FEF733FD0123012210219C
S11340100020FEF72DFD0123012211210020FEF7CF
S113402027FD01BD0278C9B28A421AB11CBF10F83B
S1134030012FF9E718BF00207047000000F10103C9
S1134040810704D010F8011B89B18107FAD10268F5
S1134050B2F10131914311F0803F04BF50F8042FB5
S1134060F6E710F8011B11B110F8011BFBE7C01AA9
S113407070470000C9B2830706D0521E22D310F83D
S1134080013B9942F7D11FE0083A13D302F104022D
S113409041EA012141EA014150F8043B121F21BFCA
S11340A04B40A3F1013C2CEA030C1CF0803FF3D0FD
S11340B0C9B2001F083210F8013B521E28BF91EA12
S11340C0030FF8D818BF0120401E70471B4213D1BC
S11340D0094236D12AB18446B0FBF2F002FB10C289
S11340E0704700F081B9FCD30022002370470B0015
S11340F00200002100207047904271EB030CF6D3BC
S113410070B5B1FA81F4B3FA83F52C1BA340C4F162
S1134110200532FA05F63343A2405FF00046E6403C
S113412002E05B085FEA3202841A71EB030524BFE4
S1134130204629467641F4D302000B0030000021CA
S113414070BD012ACFD970B5140C20D0B1FA81F416
S1134150B2FA82F5C4F120046419B4F12006D6D36E
S1134160B2405FF00044F440002502E052085FEAE8
S11341703303C61A71EB020E24BF30467146644104
S11341806D41F3D302000B002000290070BD0C46E2
S1134190B1FBF2F102FB11452D0445EA1045B5FBD4
S11341A0F2F402FB145580B240EA0545B5FBF2F087
S11341B002FB105240EA044070BD000062B38B075A
S11341C008D0521E11F8013B00F8013B00F0248096
S11341D08B07F6D1830740F0208000BF103A07D345
S11341E030B4B1E83810103AA0E83810F9D230BC35
S11341F0530724BFB1E80810A0E8081044BF51F8E1
S1134200043B40F8043BD20724BF31F8022B20F8CA
S1134210022B44BF0B7803707047083A07D3B1E808
S11342200810083A40F8043B40F804CBF7D253078F
S1134230E4E730B4436803F0004201211B031B0B85
S1134240436004BF0368002B08D10DE00368DD0F51
S113425045EA440444605B000360491E4468E30289
S1134260F4D523031B0B436043681A43426008469A
S113427030BC704770B504460D466068C0F30A5000
S113428040F2FF71884207D16068000304BF2068D0
S1134290002817D0022070BD20B92046FFF7C9FFBF
S11342A0012867DA012D0FDB40F2FF71091A8D42F4
S11342B00AD36068002847BF00202F4900202F49F7
S11342C0C4E90001012070BD4142A942616806DAD7
S11342D06FF31E51401941EA0050606041E0401EF6
S11342E063680122451962F31F5305F1350001F09B
S11342F000416360352803D361600020206070BDF5
S1134300002215F11F0F04DA2268236000202035F3
S11343106060684213D0521E25689241C0F12003A8
S1134320D2439D4045EAD27225686668C54006FAC4
S113433003F32B432360636823FA00F06060606832
S113434008436060B2F1004F03D80DD12078C00754
S11343500AD52068401C2060206828B96068401C89
S113436060604FF0FF3070BD6068884204BF206811
S11343700028F6D1002070BD0000F0FF0000F07F9F
S1134380F446400D40EAC120490006D200F014F87A
S1134390004248BF6FF00040604700F00DF84FF056
S11343A0004188428CBF084640426047400D40EAC5
S11343B0C120490080F00D8040F00040490DA1F576
S11343C08061491C05D4D1F11F0154BFC840C017F6
S11343D070474FF00000704791FBF2F303FB12119A
S11343E0C0E9003170470000704780B50123012205
S11343F00F210220FEF73CFB012301220E210220A3
S1134400FEF736FB012301220D210220FEF730FBCB
S1134410012301220C210220FEF72AFB01230122A1
S11344200B210220FEF724FB012301220A21022092
S1134430FEF71EFB0123012209210220FEF718FBCF
S11344400123012208210220FEF712FB01BD80B5E1
S1134450002815D0022865D03BD3042800F0B4808E
S1134460C0F08980062800F00181C0F0D6800828B9
S113447000F04E81C0F02381092800F0728199E197
S113448001220F210220FEF74EFB00220E21022002
S1134490FEF749FB00220D210220FEF744FB002217
S11344A00C210220FEF73FFB00220B210220FEF725
S11344B03AFB00220A210220FEF735FB00220921E3
S11344C00220FEF730FB002208210220FEF72BFB1E
S11344D098E101220F210220FEF725FB01220E2183
S11344E00220FEF720FB01220D210220FEF71BFB18
S11344F000220C210220FEF716FB00220B210220D1
S1134500FEF711FB00220A210220FEF70CFB012218
S113451009210220FEF707FB012208210220FEF7F1
S113452002FB6FE100220F210220FEF7FCFA0122B8
S11345300E210220FEF7F7FA00220D210220FEF7D9
S1134540F2FA00220C210220FEF7EDFA00220B21E0
S11345500220FEF7E8FA01220A210220FEF7E3FA1C
S1134560002209210220FEF7DEFA0022082102209F
S1134570FEF7D9FA46E100220F210220FEF7D3FA12
S113458001220E210220FEF7CEFA00220D21022084
S1134590FEF7C9FA00220C210220FEF7C4FA002219
S11345A00B210220FEF7BFFA00220A210220FEF7A7
S11345B0BAFA002209210220FEF7B5FA01220821E5
S11345C00220FEF7B0FA1DE100220F210220FEF7BF
S11345D0AAFA00220E210220FEF7A5FA01220D21DB
S11345E00220FEF7A0FA00220C210220FEF79BFA1B
S11345F000220B210220FEF796FA00220A21022053
S1134600FEF791FA012209210220FEF78CFA012219
S113461008210220FEF787FAF4E000220F2102208D
S1134620FEF781FA00220E210220FEF77CFA002216
S11346300D210220FEF777FA01220C210220FEF759
S113464072FA00220B210220FEF76DFA00220A21E1
S11346500220FEF768FA002209210220FEF763FA1D
S1134660012208210220FEF75EFACBE000220F218E
S11346700220FEF758FA00220E210220FEF753FA18
S113468000220D210220FEF74EFA01220C21022005
S1134690FEF749FA00220B210220FEF744FA002219
S11346A00A210220FEF73FFA002209210220FEF728
S11346B03AFA002208210220FEF735FAA2E001228C
S11346C00F210220FEF72FFA01220E210220FEF70D
S11346D02AFA00220D210220FEF725FA00220C21DD
S11346E00220FEF720FA00220B210220FEF71BFA1B
S11346F000220A210220FEF716FA012209210220D3
S1134700FEF711FA012208210220FEF70CFA79E0E3
S113471000220F210220FEF706FA00220E210220B9
S1134720FEF701FA00220D210220FEF7FCF9002217
S11347300C210220FEF7F7F900220B210220FEF7DC
S1134740F2F900220A210220FEF7EDF900220921E4
S11347500220FEF7E8F9002208210220FEF7E3F91F
S113476050E000220F210220FEF7DDF900220E2185
S11347700220FEF7D8F900220D210220FEF7D3F91A
S113478000220C210220FEF7CEF900220B21022088
S1134790FEF7C9F900220A210220FEF7C4F900221B
S11347A009210220FEF7BFF9012208210220FEF7A9
S11347B0BAF927E000220F210220FEF7B4F9012202
S11347C00E210220FEF7AFF901220D210220FEF78F
S11347D0AAF901220C210220FEF7A5F900220B21DF
S11347E00220FEF7A0F901220A210220FEF79BF91C
S11347F0012209210220FEF796F901220821022054
S1134800FEF791F901BD000080B500F0D5F95FF421
S1134810E1310320FDF7E0FA0320FDF7FBFB002064
S1134820FDF7F8FBFFF7E1FD4FF47A71002000F08B
S1134830E9F9002000F017FA0023012211210020D9
S1134840FEF716F90023012210210020FEF710F9CB
S11348500023012203210120FEF70AF9002301228B
S113486002210120FEF704F9092206210220FEF7A5
S1134870A1F9092207210220FEF79CF9092200214F
S11348800220FEF797F909220D210020FEF792F984
S1134890092205210020FEF78DF9092218210420A0
S11348A0FEF788F9092219210420FEF783F9092269
S11348B01A210420FEF77EF9B44803684FF4C86255
S11348C000210020FDF7D8FBB14803684FF4C8620B
S11348D001210020FDF7D0FBAE4803684FF4C86205
S11348E002210020FDF7C8FBAB4803684FF4C862FF
S11348F003210020FDF7C0FBA8480068012840D12F
S1134900012203210120FEF70EF9A5480068FFF7F4
S11349109EFD052000F0C2F9002203210120FEF7CC
S113492002F9012202210120FEF7FDF80020FFF721
S11349308EFD052000F0B2F9002202210120FEF7CD
S1134940F2F8012210210020FEF7EDF80020FFF715
S11349507EFD052000F0A2F9002210210020FEF7C0
S1134960E2F8012211210020FEF7DDF80020FFF714
S11349706EFD052000F092F9002211210020FEF7BF
S1134980D2F88648006802284AD101220321012076
S1134990FEF7C9F883480068FFF759FD052000F0C9
S11349A07DF9002203210120FEF7BDF80122022136
S11349B00120FEF7B8F80020FFF749FD052000F0BC
S11349C06DF9002202210120FEF7ADF80122102129
S11349D00020FEF7A8F8744800680A2190FBF1F063
S11349E0FFF735FD052000F059F9002210210020C1
S11349F0FEF799F8012211210020FEF794F86A4885
S1134A0000680A2190FBF1F201FB1200FFF71FFD81
S1134A10052000F043F9002211210020FEF783F85D
S1134A205E480068032853D1012203210120FEF7C8
S1134A307AF85E480068FFF70AFD052000F02EF9B9
S1134A40002203210120FEF76EF801220221012039
S1134A50FEF769F856480068642190FBF1F0FFF70F
S1134A60F6FC052000F01AF9002202210120FEF7CD
S1134A705AF8012210210020FEF755F84C4800682E
S1134A80642190FBF1F201FB12000A2190FBF1F08A
S1134A90FFF7DDFC052000F001F9002210210020C1
S1134AA0FEF741F8012211210020FEF73CF84048AE
S1134AB000680A2190FBF1F201FB1200FFF7C7FC2A
S1134AC0052000F0EBF8002211210020FEF72BF85E
S1134AD032480068042840D1012203210120FEF756
S1134AE022F834480068FFF7B2FC052000F0D6F83D
S1134AF0002203210120FEF716F8012202210120E1
S1134B00FEF711F80020FFF7A2FC052000F0C6F81C
S1134B10002202210120FEF706F8012210210020C4
S1134B20FEF701F80020FFF792FC052000F0B6F82C
S1134B30002210210020FDF7F6FF012211210020A0
S1134B40FDF7F1FF0020FFF782FC052000F0A6F836
S1134B50002211210020FDF7E6FF0C480268002125
S1134B600020FDF713FC0A48026801210020FDF72C
S1134B700DFC0848026802210020FDF707FC0648E6
S1134B80026803210020FDF701FCB5E62804FF1F9D
S1134B902C04FF1F3004FF1F3404FF1F2404FF1FD5
S1134BA05005FF1F5405FF1F1C04FF1F5805FF1F5E
S1134BB02004FF1F5C05FF1F80B504230022002191
S1134BC0002000F07BF800236B226821002000F015
S1134BD0EFF800236C226821002000F0E9F8062396
S1134BE01A226821002000F0E3F808231B22682120
S1134BF0002000F0DDF808231C226821002000F0CA
S1134C00D7F801BD214A126852F400021F4B1A6002
S1134C101F4A1268920892001D4B1A601D4A1268BE
S1134C204FF47A735A43B2FBF1F1491EC0B2020148
S1134C30194BD150C0B2184911EB0011C96851F099
S1134C400101C0B2144A12EB0012D160C0B2124981
S1134C5011EB0011896851F00101C0B20E4A12EB48
S1134C6000108160704780B5C0B20B4911EB001190
S1134C70896851F00201C0B2074A12EB0012916038
S1134C80C0B24430FEF737F801BD00003C80044058
S1134C9000700340543BFF1F00710340002103E0F8
S1134CA0521E002AFCD1491C814203D2024A1268D6
S1134CB09208F6E7704700004C3BFF1F70B4DBB26C
S1134CC0002B03D0DBB2012B1ED13324C0B2002849
S1134CD046D17C4D2D6855F040057A4E35607A4DAD
S1134CE04FF400762E60794D4FF400762E60DBB2DF
S1134CF0002B29D1C0B2764B53F8200012F03F02AA
S1134D0052EA8111417026E0DBB2022B01D12B243F
S1134D10DCE7DBB2032B01D12824D7E7DBB2042B79
S1134D2001D12324D2E7DBB2052B01D12124CDE725
S1134D30DBB2062B01D12024C8E7DBB2072B01D15B
S1134D401724C3E7002031E0C0B2614951F82000C4
S1134D5014F03F0141705F4888210170012025E073
S1134D60584D2D6855F08005564E35605A4D4FF418
S1134D7000762E60594D4FF400762E60DBB2002B86
S1134D8009D1C0B2524B53F8200012F03F0252EA4C
S1134D908111417006E0C0B24D4951F8200014F071
S1134DA03F0141704E4888210170012070BC70475A
S1134DB070B5040015001E00E4B2454850F8240004
S1134DC0807850F01000E4B2414A52F824209070E8
S1134DD0E4B23F4850F82400807850F02000E4B258
S1134DE03B4A52F824209070E4B2394850F8240029
S1134DF04900017101212000C0B200F039F8E4B289
S1134E00334850F82400057101212000C0B200F09D
S1134E102FF8E4B22E4850F8240006710121200036
S1134E20C0B200F025F8E4B2294850F82400807894
S1134E3010F0DF00E4B2264951F824108870E4B27F
S1134E40234850F82400807810F0EF00E4B22049A1
S1134E5051F82410887000F001F870BD012001E0C1
S1134E6000BF401C80B246F2A8118842F8DB7047AC
S1134E70C9B200290DD1C0B2154951F82010897862
S1134E8051F00801C0B2124A52F8200081707047F4
S1134E90521CC0B20E4951F82010C978890704D4B5
S1134EA092B24EF661218A42F2DBC0B2084951F84F
S1134EB02010C97851F00201C0B2054A52F820000E
S1134EC0C170E4E73480044000A0044004A004401E
S1134ED06004FF1F0260064028B004402CB0044068
S1134EE002700640DFF800F09D04FF1F10B5C0B249
S1134EF0002800F00581C0B2010030291ED03229FB
S1134F002CD0602931D0642936D06E293BD0782941
S1134F1040D07D2945D082294AD08C294FD096296A
S1134F2054D0A02959D0AA295ED0B42963D0C82965
S1134F3068D0E1296DD0FA2972D078E09E49182210
S1134F400A709D4900224A709B4900228A70C0B2AF
S1134F50332870DA98490022CA7084E096491822EE
S1134F600A70954901224A70EEE7934918220A70A3
S1134F70914918224A70E7E78F4918220A708E492E
S1134F801A224A70E0E78C4918220A708A491F22C3
S1134F904A70D9E7884913220A70874918224A704F
S1134FA0D2E7854913220A7083491A224A70CBE753
S1134FB0814913220A7080491C224A70C4E77E4941
S1134FC00E220A707C4912224A70BDE77A490E22E9
S1134FD00A70794915224A70B6E777490E220A7099
S1134FE0754918224A70AFE773490E220A70724954
S1134FF01B224A70A8E770490E220A706E491E22CD
S11350004A70A1E76C490C220A706B491C224A7051
S11350109AE769490B220A7067491E224A7093E78E
S113502065490A220A7064491F224A708CE7642089
S1135030FFF75CFFBFE0C0B2652803DA5E490122D6
S1135040CA7010E0C0B2972803DA5B490222CA7022
S113505009E0C0B2C92803DA57490322CA7002E042
S113506055490F22CA705449534AD2780A71C0B2C2
S11350701A2803DA50480021417141E0C0B23328B4
S113508003DA4D48012141713AE0C0B24C2803DAF9
S113509049480221417133E0C0B2652803DA464829
S11350A0032141712CE0C0B27E2803DA4248042176
S11350B0417125E0C0B2972803DA3F4805214171C8
S11350C01EE0C0B2B02803DA3B480621417117E064
S11350D0C0B2C92803DA38480721417110E0C0B2D0
S11350E0E22803DA34480821417109E0C0B2FB2800
S11350F003DA31480921417102E02F480F2141713F
S11351002D484078183080B2322148432A49097822
S1135110491C89B290FBF1F4284800210170284809
S1135120006850F08050264908602648007850F006
S1135130800024490870244898210170234800788D
S1135140C006FBD421480078C0F38100C0B2022815
S1135150F8D11948007810F01F001D4908701D4847
S11351600021017014484379134802791248C17828
S113517011488078FFF7B6FE0F48407810F01F0002
S113518050F0400013490870104800788006FBD5A1
S11351900E4800784006FBD50B48007810F03F001D
S11351A00949087009480078C0F38100C0B2032897
S11351B0F8D12000C0B210BD7C04FF1F014006409E
S11351C03480044008C007400040064006400640C2
S11351D0044006400540064080B500F0E5F800F0C4
S11351E0FFF800F04BF9DFF85001FCF7F5FEDFF8AB
S11351F04C01FCF7F1FEDFF848010068DFF84411C8
S1135200C978491CB0FBF1F2DFF834010168DFF81A
S11352103801FCF7E1FEDFF828010068DFF824110B
S11352204979491CB0FBF1F2DFF814010068DFF89A
S113523014110979491CB0FBF1F1DFF81001FCF7F6
S1135240CBFEDFF80C01FCF7C7FEDFF8080100789D
S1135250400703D5DFF80001FCF7BEFEDFF8F400D9
S11352600078800703D5DFF8F400FCF7B5FEDFF81B
S1135270E4000078C00703D5DFF8E400FCF7ACFED7
S1135280DFF8E0000078000603D5DFF8DC00FCF767
S1135290A3FEDFF8D0000078400603D5DFF8CC0089
S11352A0FCF79AFEDFF8BC000078800603D5DFF82F
S11352B0C000FCF791FEDFF8AC000078400703D58E
S11352C0DFF8B000FCF788FEDFF89800007880076C
S11352D003D5DFF8A400FCF77FFEDFF88800007830
S11352E0C00703D5DFF89400FCF776FEDFF89000E2
S11352F0FCF772FEDFF88C00DFF88C10884204D0D3
S1135300DFF88800FCF768FE03E0DFF88400FCF7B0
S113531063FEDFF88000FCF75FFEDFF87C00FCF73B
S11353205BFEDFF87820DFF87810DFF87800FCF710
S113533053FEFFF769FAFEE7F45500007C5A0000BB
S1135340503BFF1F7C04FF1FA0560000D8560000EE
S1135350D85A000000E007407C570000AC5700001A
S1135360DC57000001E007400C5800003C580000E6
S11353706C5800009C580000CC580000FC580000F9
S1135380905A00000000FF1F000000005C5900005C
S11353908859000010570000A45A0000005B000068
S11353A0F45A0000EC59000080B500F009F80A48EE
S11353B000884FF6FE7108400749088001BD0000CF
S11353C072B606484CF22051018004484DF628116B
S11353D0018062B670470000002005400E200540A1
S11353E080B51C481C4988420BD0002006E01949AE
S11353F0194A52F8202041F82020401CB0F5826F51
S1135400F5D31448FDF774FC1449154A1548801A5D
S113541003E013780B70521C491C0300581E002B28
S1135420F7D111491148401A02E000220A70491CC0
S11354300200501E002AF8D10D490E4A0E48801A67
S113544003E013780B70521C491C0300581E002BF8
S1135450F7D101BD0000FF1F000000001004FF1F72
S1135460D854000064550000E804FF1F5B3BFF1F95
S11354709C04FF1F64550000B055000080B511481E
S1135480006850F478500F4908606020FFF72EFD43
S11354900D4908600C4800684FF47A7148430B4981
S11354A008600A4800680A490968C1F30361491C95
S11354B0B0FBF1F0074908605FF4E1310020FCF72C
S11354C08BFC01BD38800440503BFF1F4C3BFF1F49
S11354D044800440543BFF1F00800340009003407D
S11354E000800B401E0000002D00000001000000A1
S11354F0640000001C25000064000000640000003B
S113550000F00F4040F00F4080F00F40C0F00F401B
S113551000F10F400090044000A0044000B004409B
S113552000C0044000D00440006006400070064003
S11355300B0000005D0100001C25000005000000B8
S1135540630100000B1F00000009000000A00640DA
S113555000B0064000C0064000D0064000A00E4047
S113556000B00E4070B4104C24680F4D2D6855F4F3
S11355707F050D4E3560090611F0706151EA007027
S1135580110511F470010843190411F47021084342
S113559006490860002000E0401CC0B29842FBD3DA
S11355A00148046070BC704700F00140448004402E
S11355B0433A5C55736572735C41646D696E6973DB
S11355C0747261746F725C4465736B746F705C4D5C
S11355D0505536303530382E31325C7372635C642A
S11355E07269766572735C6770696F5C6770696F06
S11355F02E6300000A0A2A2A2A2A2A2A2A2A2A2A5E
S11356002A2A2A2A2A2A2A2A2A2A2A2A2A2A2A2AF6
S11356102A2A2A2A2A2A2A2A2A2A2A2A2A2A2A2AE6
S11356202A2A2A2A2A2A2A2A2A2A2A2A2A2A0A0020
S11356300A4552522120496E76616C6964204952B0
S1135640512076616C756520706173736564207494
S11356506F20656E61626C65206972712066756E7B
S11356606374696F6E210A00417373657274206FED
S11356706363757272656420696E2066696C652067
S113568025732C6C696E652025640A20506C656155
S1135690736520636865636B2E2E0A0A00000000A0
S11356A02A20436F726520467265713A202533645F
S11356B04D487A200942757320467265713A202557
S11356C033644D487A2020202020202020202020D0
S11356D02020202A0A0000002A20666C65782046D3
S11356E07265713A202533644D487A2009666C61ED
S11356F0736820467265713A202533644D487A20D8
S1135700202020202020202020202020202A0A00C1
S11357102A2044657369676E65642042793A207370
S11357206E6F77776F6C66202020204D6F646966FA
S11357306965642042793A206665696368617368C3
S1135740616F202A0A000000417373657274206F30
S113575063637572656420696E2066696C652025D3
S113576073206C696E652025645C6E20506C6573D3
S1135770656120636865636B2E0A0000536F66746D
S11357807761726520526573657420202020202083
S11357902020202020202020202020202020202005
S11357A0202020202020202A0A000000436F726558
S11357B0204C6F636B7570204576656E742052655E
S11357C073657420202020202020202020202020E9
S11357D0202020202020202A0A0000004A5441478B
S11357E02052657365742020202020202020202052
S11357F020202020202020202020202020202020A5
S1135800202020202020202A0A000000506F7765E5
S1135810722D6F6E20526573657420202020202025
S11358202020202020202020202020202020202074
S1135830202020202020202A0A00000045787465BA
S1135840726E616C2050696E2052657365742020FD
S11358502020202020202020202020202020202044
S1135860202020202020202A0A0000005761746391
S113587068646F6728434F5029205265736574200C
S11358802020202020202020202020202020202014
S1135890202020202020202A0A0000004C6F73734F
S11358A0206F6620436C6F636B20526573657420B0
S11358B020202020202020202020202020202020E4
S11358C0202020202020202A0A0000004C6F772D61
S11358D0766F6C74616765204465746563742052E7
S11358E06573657420202020202020202020202083
S11358F0202020202020202A0A0000004C4C57554C
S11359002052657365742020202020202020202030
S11359102020202020202020202020202020202083
S1135920202020202020202A0A0000000A2A2A2AD7
S11359302A64656661756C745F69737220656E7440
S113594065726564206F6E20766563746F722025BE
S1135950642A2A2A2A2A0D0A0A000000666C617346
S113596068202020202020202020202020202020EB
S11359702020202020202020202020202020202023
S11359802020202A0A0000005352414D20202020CC
S11359902020202020202020202020202020202003
S11359A02020202020202020202020202020202AE9
S11359B00A00000010B5074979441831064C7C44AC
S11359C0163404E00A68081D511888470146A142AC
S11359D0F8D110BD0800000014000000EBCCFFFF5C
S11359E074360000E804FF1F000000002573202027
S11359F0257320202020202020202020202020204B
S1135A0020202020202020202A0A000000F00BF86B
S1135A10002801D0FFF7CEFF0020C046C046FEF7A5
S1135A20F3FE00F002F80120704700F001B8000016
S1135A300746384600F002F8FBE7000080B5C04690
S1135A40C046024A11001820ABBEFBE72600020044
S1135A5080B503480178C9B20248FCF7CCFA01BD0D
S1135A6004ED00E02C590000CBF9C5E4D5BCBFD54A
S1135A70B1C8B3ACB9FD3130302500002A20090982
S1135A802042555054204B3630202A0A0000000092
S1135A902A205374617274204D6574686F643A20CF
S1135AA0000000002A204C617465737420557064F2
S1135AB06174653A200000004572726F7220747937
S1135AC070652025730A0A0046544DC6B5C2CAC57E
S1135AD0E4D6C3B4EDCEF3002A2053746172746526
S1135AE0642062793A000000496E707574203D208C
S1135AF025630A0041756720313520323031350085
S1135B0031323A34363A333400000000C046C046DD
S10B5B10C046C046FFF77AFF0E
S9035B0D94
