S01100006770696F5F64656D6F2E7372656360
S1130000F8FF0020110400003D2E00003D2E0000EA
S11300103D2E00003D2E00003D2E00003D2E000030
S11300203D2E00003D2E00003D2E00003D2E000020
S11300303D2E00003D2E00003D2E00003D2E000010
S11300403D2E00003D2E00003D2E00003D2E000000
S1130400FFFFFFFFFFFFFFFFFFFFFFFFFEFFFFFFF9
S113041062B64FF000004FF000014FF000024FF0C1
S113042000034FF000044FF000054FF000064FF0BA
S113043000074FF000084FF000094FF0000A4FF09A
S1130440000B4FF0000C01F0F9FBFEE72DE9F04F33
S1130450A1B0804617461D46029102AE002070628C
S113046011AC6FF000490AE017F8011B0298C0476D
S11304700290002800F07C82706A401C7062387818
S113048008B9706A76E22528EED10020F060306168
S11304907061B061F061306201E040F0010017F872
S11304A0011F2029F9D023290ED02B2904D02D296E
S11304B006D030290CD00FE040F0020080B2EEE705
S11304C040F0040080B2EAE740F0080080B2E6E7BA
S11304D040F0100080B2E2E72A290DD129680A1DF4
S11304E02A600968F162002904D54942F16240F0AA
S11304F0040080B27F1C11E00021F16209E0F16A7E
S1130500494505D001EB810302EB43013039F16227
S11305107F1C3A78A2F130010A29F0D339782E29C8
S11305201CBF4FF0FF31B1621CD117F8011F2A29FB
S113053006D129680A1D2A600968B1627F1C11E08E
S11305400021B16209E0B16A494505D001EB81039C
S113055002EB43013039B1627F1C3A78A2F13001D9
S11305600A29F0D3308639780FF6E43000F00EFE15
S113057008B117F8010B8DF83A009DF83A00682885
S113058004D1387868280AD1622005E06C2804BFB9
S113059038786C2803D171208DF83A007F1C11A89B
S11305A0B0603A781046253825D01C3875D0001F25
S11305B0022872D9133800F09C8009386DD0801E4F
S11305C000F03781401E00F0DD80401E022864D90F
S11305D0001F00F0D780401F34D0401E00F08980F7
S11305E0401E24D0C01E0CD0801E00F08280C01E8D
S11305F000F07F8026E1F068411CF160252101555F
S11306002AE12868011D296000687060B26A002A26
S113061003D500F0CBFD30611EE1002100F0E2FDC6
S113062000281ABF7168401AB06A306114E1286862
S1130630011D296000680021CDE9000111A8706046
S11306407821F2E09DF83A00622818D0682806D094
S11306506A280BD06C2819D0712807D016E02868B6
S1130660011D2960716A00680180F5E02A68101D87
S11306702860706AC1171268C2E90001ECE02868BA
S1130680011D2960716A00680170E5E02868011D98
S11306902960716A00680160DEE02868C01D20F0EE
S11306A007002860034603F108002860D3E900012D
S11306B0CDE90001002904D5F068411CF1602D2129
S11306C00DE0308E810704D5F068411CF1602B21C8
S11306D005E0C00704D5F068411CF16020210155F4
S11306E0F06811A940187060114600A800F0D8F90C
S11306F0B2E09DF83A306C2B08BF286811D0712BFA
S113070008BF286802D06A2B28680AD1C01D20F0CF
S11307100700286084460CF108002860DCE9000129
S113072003E0011D296000680021CDE90001682B68
S113073004BFDDE9000180B20BD0622B04BFDDE908
S11307400001C0B205D0742B18BF7A2B04D1DDE9A7
S113075000010021CDE9000196F8300000075FD5C3
S1130760DDE90001002908BF002859D042F020002B
S1130770782855D1F06830210155401C411CF160A6
S113078002554DE09DF83A0062280CD0682810D03C
S11307906A281AD06C2824D0712816D0742820D046
S11307A07A280CD01DE02868011D296090F900000A
S11307B01BE02868011D2960B0F9000015E02868D5
S11307C0011D29600068002110E02868C01D20F088
S11307D007002860034603F108002860D3E90001FC
S11307E004E02868011D29600068C117CDE90001F3
S11307F0DDE90001002904DAF068411CF1602D21D3
S11308000DE0308E810704D5F068411CF1602B2186
S113081005E0C00704D5F068411CF16020210155B2
S1130820F06811A940187060114600A800F0A5F8FE
S113083012E0F068411CF16029680A1D2A60096809
S1130840015509E0F068411CF160252101551AB1F8
S1130850F068411CF16002557F1CF06AF168401A8F
S1130860B169401A3169401AF169401A7169401A34
S1130870316AA0EB010A96F83000400711D4202019
S11308808DF84000BAF1010F0BDBD346012310AA07
S113089000A9404600F044FC002869D1BBF1010BDB
S11308A0F4D1F36811AA00A9404600F039FC0028ED
S11308B05ED130208DF84000D6F818B0BBF1010F9E
S11308C00ADB012310AA00A9404600F029FC0028F5
S11308D04ED1BBF1010BF4D13369726800A94046D3
S11308E000F01EFC002843D130208DF84000D6F8DB
S11308F01CB0BBF1010F09DB012310AA00A940467B
S113090000F00EFCA0BBBBF1010BF5D1736930699B
S11309107168421800A9404600F002FC40BB302038
S11309208DF84000D6F820B0BBF1010F09DB01239C
S113093010AA00A9404600F0F3FBC8B9BBF1010BB3
S1130940F5D196F8300040077FF599AD20208DF859
S11309504000BAF1010FFFF692AD012310AA00A9DD
S1130960404600F0DDFB18B9BAF1010AF5D186E57D
S11309704FF0FF3021B0BDE8F08F2DE9FA4B86B07F
S113098005462F696F2908BF082605D041F02000CD
S1130990782814BF0A2610263C24D5E90001814694
S11309A08B469DF81820642A18BF692A05D10029AE
S11309B003DAD9F100096BEB4B0BBBF1000F08BF55
S11309C0B9F1000F0CD1286B50B9082E44D195F819
S11309D03800000740D53B24302087F83B003BE03B
S11309E0A4F101084446F017CDE90460484659468D
S11309F0DDE9042300F022FCCDE90201CDE9009BEE
S1130A00DDE90223DDE90401A0FB029BDDE900012D
S1130A10A0EB09003030C0B23A2803D39DF8181077
S1130A205139081808F80700DDE9029BBBF1000FF3
S1130A3008BFB9F1000F03D0E868E1198842CFD3A9
S1130A40082E09D195F83800000705D5E05D302857
S1130A5002D0641E3020E055C4F13C00A861E119C5
S1130A60E960296B884207DA081A2862288F4FF652
S1130A70EF710840288710E000290ED595F838104A
S1130A8001F01401102908D1696B6A69891A2A6A6C
S1130A90891A0C1A012CA8BF2C6208B0BDE8F08B8F
S1130AA02DE9F24F8EB0054604AFD5E90001CDE93A
S1130AB002019DF8380040F020008DF80000612804
S1130AC00BD0286B002848BF062005D404BF9DF82E
S1130AD00000672801D1012028636968C1F30A5026
S1130AE040F2FF7398421CD1080304BF2868002811
S1130AF009D10320A8619DF8380061381A2837D33A
S1130B000FF2606108E00320A8619DF838006138A5
S1130B101A282AD30FF244610322E86800F006FC85
S1130B20BBE1010017D1284600F03BFC012812DB91
S1130B30002400209DF80010612920D1E9683022AA
S1130B4001F8012B4A1CEA609DF83820612A0CBF89
S1130B50782258220FE040F2FE316A6861F31E5297
S1130B606A60441A4FF0FF30E4E70FF2EC51D3E728
S1130B700FF2EC51D0E70A706969891C696110B9F8
S1130B800026B0467FE19DF80000612840F0978080
S1130B90286B00284CBF2126461C36B2771CD5E9A9
S1130BA000ABDDE902010022002300F01DFC3ABF86
S1130BB08BF00040CDE902A0CDE902ABA4F104081A
S1130BC08DF810200DF11109012F33DBDDE902014D
S1130BD00022002300F020FC2CD21C2102A800F0EB
S1130BE033FCDDE9020100F0BDFC0446FF1F012FC8
S1130BF009DB00F0E3FC02460B46DDE9020100F0EC
S1130C00F5FCCDE9020109F20700072104E004F034
S1130C100F0200F8012D2411012C01DB491EF6D529
S1130C20491E5CBF002200F8012DF9D500F2070926
S1130C30012FCBDA0DF11100A9EB00010DF1110721
S1130C40B142B8BF0E4636B2002E31D43046884287
S1130C5006DA04A941184978082928BF0F2100D2CF
S1130C60002104AA821800E0761E401E12F8013901
S1130C708B42F9D00F2904D104A941184A78521C97
S1130C804A70002803D504AF761C08F1040836B274
S1130C90701E0DD4C1190A783032D2B23A2A03D365
S1130CA09DF838303A3B9A1801F80129401EF2D5D4
S1130CB0286B002840F1E780701E2863E3E0DDE93B
S1130CC002010022002300F08FFB05D2DDE90201BE
S1130CD081F00041CDE9020124B247F2975060430C
S1130CE06F4990FBF1F80FFA88F8C8F10704002760
S1130CF0DFF8B091012C19DBDDE902ABE00707D581
S1130D00504659463A464B4600F030FD82468B46E3
S1130D106410384649463A464B4600F027FD0746DC
S1130D208946002CEAD1CDE902AB21E06442924627
S1130D30DFF874B114D0E00707D5504659463A4657
S1130D404B4600F013FD82468B46641038464946F4
S1130D503A464B4600F00AFD07468946002CEAD184
S1130D60DDE9020152465B4600F0D2FDCDE9020105
S1130D709DF8000066280CBF08F10A000620296BC4
S1130D804618142EA8BF132630208DF810000DF13C
S1130D901104464F012E33DBDDE9020100F0F8FBBC
S1130DA004F1080104220A24B0FBF4F303EB830EDC
S1130DB0A0EB4E00303001F8010DB3FBF4F000EB72
S1130DC08004A3EB4403303301F8013D521EEAD101
S1130DD001F10804083E012EDCDBDDE9020100F02C
S1130DE0D7FB00F0F5FB02460B46DDE9020100F0FB
S1130DF0FDFB00223B4600F0B9FCCDE90201CBE744
S1130E000DF11100201A0DF111079DF81110302970
S1130E1006D1401EA8F1010817F8011F3029F8D0A7
S1130E209DF80010662904BF0FFA88F808F1010143
S1130E3003D065290CBF012100212A6B8E1836B21C
S1130E40B042B8BF064636B2002E1CD431468142A9
S1130E5004DAC85D352828BF392000D23020CA19E9
S1130E60521E00E0761E491E12F801398342F9D061
S1130E70392802D1C85D401CC855002903D57F1EFE
S1130E80761C08F101080FFA88F0009033B23A4654
S1130E909DF83810284600F00BF80FB0BDE8F08F2D
S1130EA0A0860100000024400000F03F84D7974151
S1130EB02DE9F04385B00546894617461E46BDF91F
S1130EC03040D5F83080012E02DA01260FF298273F
S1130ED049F0200066280AD0672840F086806FF029
S1130EE003018C42C0F28780444580F28480641CF4
S1130EF066280CD095F83800000702D44645B8BFE0
S1130F00B04624B2B8EB040848BF4FF00008E868C4
S1130F10A96924B2012C25DA4A1C30230B54B8F1F8
S1130F20010F03DA95F83810090702D52E21115460
S1130F30521CAA6118EB040FB8BFC8F1000424B214
S1130F4061426962A044B045B8BF464636B2EE611C
S1130F5032463946AB69181800F0E8F9A8EB0600E8
S1130F60A862C6E00818A64218DA3246394600F0EC
S1130F70DDF9A9697118A961A01B6862B8F1010FB4
S1130F8003DA95F83800000705D5E8682E220A54DC
S1130F90E869401CE861C5F82880AAE02246394681
S1130FA000F0C4F9A8692018A861361BB8F1010F34
S1130FB003DA95F83810090704D5411CA961E968DA
S1130FC02E22425436B2B045B8BF464636B23246F7
S1130FD0E119A869EB68C01800F0A8F9A8693018ED
S1130FE0A861A8EB0600686283E0B9F1610F16D12D
S1130FF04FF0700918E0464504DA95F838100907EF
S113100058BFB046B8F1010848BF4FF00008B9F125
S1131010670F14BF4FF045094FF0650904E0B9F1BB
S1131020410F08BF4FF05009A9694A1CE86817F836
S1131030013B0B54B8F1010F03DA95F83810090796
S113104002D52E211154521CAA61B8F1010F11DBF3
S1131050761E36B2B045B8BF464636B23246394639
S1131060AB69181800F062F9A8693018A861A8EBF8
S113107006006862A869E968471807F8019B002C14
S11310805CBF2B2007F8010B03D52D2007F8010BBB
S1131090644200260DF1080824B2012C0EDB0A225A
S11310A0214600A800F057FD019808F8010B009CA8
S11310B0761C24B2012CF2DA022E06DA49F0200062
S11310C0652804BF302007F8010B1EB9302007F84B
S11310D0010B09E0012E07DB761E02A8305C3030DC
S11310E007F8010B012EF7DAA869E9684018381AE5
S11310F0E86195F8380000F0140010280DD16869F3
S1131100A9690818696A0818E9690818A96A081811
S1131110696B8842BCBF081A286205B0BDE8F08339
S1131120F8B504460D4616461F46002077B116F85A
S1131130011BA868A047A86030B1E86A401CE862B7
S113114000207F1EF3D1F2BD4FF0FF30F2BD00004E
S1131150686A6C747A4C00006E616E004E414E00F9
S1131160696E6600494E4600300050F8041B61B1B8
S113117050F8042BD30744BFA9F101039A180023A4
S113118042F8043B091FFAD1EFE770470278C9B26D
S11311908A421AB11CBF10F8012FF9E718BF0020CA
S11311A070470268531C03601170704700F101031B
S11311B0810704D010F8011B89B18107FAD10268B4
S11311C0B2F10131914311F0803F04BF50F8042F74
S11311D0F6E710F8011B11B110F8011BFBE7C01A68
S11311E070470000C9B2830706D0521E22D310F8FC
S11311F0013B9942F7D11FE0083A13D302F10402EC
S113120041EA012141EA014150F8043B121F21BF88
S11312104B40A3F1013C2CEA030C1CF0803FF3D0BB
S1131220C9B2001F083210F8013B521E28BF91EAD0
S1131230030FF8D818BF0120401E70471B4213D17A
S1131240094236D12AB18446B0FBF2F002FB10C247
S1131250704700F087BCFCD30022002370470B00CA
S11312600200002100207047904271EB030CF6D37A
S113127070B5B1FA81F4B3FA83F52C1BA340C4F121
S1131280200532FA05F63343A2405FF00046E640FB
S113129002E05B085FEA3202841A71EB030524BFA3
S11312A0204629467641F4D302000B003000002189
S11312B070BD012ACFD970B5140C20D0B1FA81F4D5
S11312C0B2FA82F5C4F120046419B4F12006D6D32D
S11312D0B2405FF00044F440002502E052085FEAA7
S11312E03303C61A71EB020E24BF304671466441C3
S11312F06D41F3D302000B002000290070BD0C46A1
S1131300B1FBF2F102FB11452D0445EA1045B5FB92
S1131310F2F402FB145580B240EA0545B5FBF2F045
S113132002FB105240EA044070BD000062B38B0718
S113133008D0521E11F8013B00F8013B00F0248054
S11313408B07F6D1830740F0208000BF103A07D303
S113135030B4B1E83810103AA0E83810F9D230BCF3
S1131360530724BFB1E80810A0E8081044BF51F89F
S1131370043B40F8043BD20724BF31F8022B20F889
S1131380022B44BF0B7803707047083A07D3B1E8C7
S11313900810083A40F8043B40F804CBF7D253074E
S11313A0E4E730B4416801F00042012143681B03C3
S11313B01B0B436004BF0368002B0ED00368446812
S11313C0DD0F45EA440444605B000360491EE30208
S11313D0F4D543681B031B0B436043681A43426004
S11313E0084630BC704700004FF4001C1CEB410F52
S11313F094BF1CEB430F09E041EA030C50EA4C0C88
S113140052EA0C0C03D2994208BF9042704714BFB1
S11314108B428242704700004FF4001C1CEB410FCA
S113142094BF1CEB430F09E041EA030C50EA4C0C57
S113143052EA0C0C03D28B4208BF8242704714BF9D
S1131440994290427047000070B504460D466068AA
S1131450C0F30A5040F2FF72904207D16068000363
S113146004BF2068002818D0022070BD010004D1F8
S11314702046FFF796FF012867DA012D0FDB40F2C3
S1131480FF71091A8D420AD36068002847BF002003
S11314902F4900202F49C4E90001012070BD4142B9
S11314A0A942616806DA2C4A1140401941EA005009
S11314B0606053E001F0004162681203120B42F4D1
S11314C080126260401E451905F13500352803D3AA
S11314D061600020206070BD002215F11F0F05DA45
S11314E0203522686068206000206060684213D064
S11314F0521E9241D243C0F1200325689D4055EA13
S1131500D2722568C540666806FA03F32B4323604C
S1131510636823FA00F06060606808436060B2F1B9
S1131520004F03D80BD12078C00708D52068401C91
S11315302060206818B96068401C60600EE0606834
S1131540884204BF20680028F8D1002070BD000044
S11315500000F0FF0000F07FFFFF0F804FF0FF302E
S113156070BD0000F446400D40EAC120490006D297
S113157000F014F8004248BF6FF00040604700F0EC
S11315800DF84FF0004188428CBF08464042604746
S1131590400D40EAC120490080F00D8040F0004039
S11315A0490DA1F58061491C05D4D1F11F0154BF37
S11315B0C840C01770474FF000007047010040F169
S11315C00980F446404200F005F851F000416047BC
S11315D0010000BF09D0B0FA80F18840C91CC1F5F0
S11315E08461090501EBD0214005704770B44FF0C8
S11315F0004591EA030F44BF6B4000F0B5BA00BF49
S1131600841A71EB030604D26E40001BB141121917
S113161073414FF4001C1CEB410F34BF7CEB4306B9
S113162084E00C0DA4EB1356362E7DDC012E43DC36
S113163045EAC32343EA525312BFD20292025B0823
S1131640240545EAC12141EA5051D2EBC020994119
S113165025D407D1B0FA80F610FA06F164D0002040
S1131660203608E0B1FA81F6B140C6F1200220FA32
S113167002F21143B0404FEAF474B4EB465434F030
S113168001064FEA74040AD8D6F50016760D04F064
S11316900044F04061FA06F25040F1404840C00A6C
S11316A040EA415021F0004128BF5FEA500550F163
S11316B0000044EBD12137E045EAC323DB0A45EAC5
S11316C0C121C90AB6F120050EDD42EA0242120C1C
S11316D0C5F1200603FA06F6EB4042EA06056D4220
S11316E0984161F100010DE062FA06F5F2405540BF
S11316F063FA06FC82EA0C02F3405A406D429041C0
S113170061EB030111F4801F05D1641E620502D050
S11317106D004041494121F48011430875F10043B3
S113172050F1000041EB045170BC70471CEB410FB9
S113173015D223F0004352EA43060BD04FEA4C0C77
S1131740BCEB410F04D80C0D661E342EB7DDEBE75D
S1131750801A994150EA410608BF0021E4E708BF16
S11317601CEB430F28BF6FF00001DDE7B0B581EA41
S1131770030C0CF0004C40F2FF7515EA11541DBF28
S113178015EA1357AC42AF4239E0E41923EA455352
S113179043F48013C90241F0004141EA505EC7029C
S11317A01100A7FB020200284FF00000EEFB01200D
S11317B04FF00001E3FB072118BF42F0010240187B
S11317C000214941E3FB0E01A4F580640F0302D21A
S11317D052004041494154F101046CDD470872F163
S11317E0004250F1000051EB0451A1F580115CBF9F
S11317F041EA0C01B0BD4CEA05510020B0BD05EA38
S11318001357AC4214BFAF4241E050EA410E1CBF33
S113181052EA430E02E061460020B0BD24423C443B
S11318201BD15FEA070EF6D0090302BF0146002070
S1131830AEF1140EB1FA81F7AEEB070401FA07FE1C
S11318400C37C7F1200100FA07F7C8404EEA000E32
S113185023EA455343F48013A2E733F00043B3FA79
S113186083F704BFB2FA82FE77440B3FE41BB7F15F
S1131870200E2FBF02FA0EF3BB40C7F1200E22FA4E
S11318800EFE38BF43EA0E03BA40641C82E750EAF6
S1131890410E14BF52EA430E6FF000014FF40017DB
S11318A017EB430F8ABF194617EB410FB5E74CEA14
S11318B005510020B0BDD4F10104B4F120070FDAC2
S11318C0C4F12007520828BF42F0010210FA07F5BC
S11318D001FA07F7E1BF2A43E0403843E1400FE053
S11318E0352C98DCC7F1200452EA400220FA07F2B2
S11318F018BF42F0010231FA07F0A1400A43002167
S113190072F1004250F1000051EB0C01B0BD000037
S1131910F0B540F2FF7581EA030C0CF0004C15EAB7
S113192011541DBF15EA1357AC42AF42E5E0BC4168
S1131930C1F31301C3F31303801A994143F48013D1
S113194004D2641E4000494180185941C90241EA49
S11319505051B1FBF3F603FB1611A2FB0675D7EB4E
S1131960C020A94102D2761E80185941C90241EA19
S11319705051B1FBF3FE03FB1E11A2FB0E75D7EB16
S1131980C020A94103D2AEF1010E80185941890249
S113199041EA9051760546EA8E2EB1FBF3F603FB3D
S11319A01611A2FB0675D7EB8020A94102D2761E40
S11319B080185941C90241EA50514EEA060EB1FB62
S11319C0F3F603FB1611A2FB0675D7EBC020A94161
S11319D002D2761E80185941C90241EA5051B1FB26
S11319E0F3F703FB1711A2FB0735D3EBC020A94182
S11319F067F100070CBF004247F0010766F3D527E3
S1131A004FEA1E31B80814F5806412DDBD0775F184
S1131A10004250EB0E5051EB045111F5801F5CBF96
S1131A2041EA0C01F0BD4CF07F6141F0E04100203F
S1131A30F0BDBD076D0840EA0E5041F48011D4F1A9
S1131A400104B4F120060ADAC4F120060200E040E1
S1131A5001FA06F3E1401843B24015430EE0342C7A
S1131A6013DCC6F1200445EA40056D0820FA06F2AD
S1131A70154321FA06F0A1400D43002175F10042FF
S1131A8050F1000051EB0C01F0BD00205FEA0C01A5
S1131A90F0BDCFB992185B41B3FA83F704BFB2FA31
S1131AA082F6BF190B3FB7F120062FBF02FA06F3E7
S1131AB0BB40C7F1200622FA06F638BF3343BA40CA
S1131AC01CB1E419641E33E77F4231F00041B1FADE
S1131AD081F404BFB0FA80F6A4190B3CB4F12006DB
S1131AE02FBF00FA06F1A140C4F1200620FA06F641
S1131AF038BF3143A0403C1B1AE7AC421ABF05EA89
S1131B001357AF4212E050EA41061CBF52EA4306A3
S1131B10BFE750EA4107304661461CBF41EA055120
S1131B20F0BD52EA430C08BFC143F0BD00204FF49E
S1131B30001616EB410F98BF16EB430F08BF16EBC8
S1131B40410F24BFC14305E016EB430F0CBF6146B0
S1131B504CEA0551F0BD91FBF2F303FB1211C0E90D
S1131B600031704770470000841A71EB030603D2FA
S1131B70001BB141121973414FF4001C1CEB410FBF
S1131B8034BF7CEB430443E00C0DA4EB1356352E19
S1131B9050DC45EAC323DB0A45EAC121C912B6F188
S1131BA020050DDD63FA05F6EB4086EA03051242D3
S1131BB018BF45F00105C01851F100010CD213E023
S1131BC062FA06F5F2405540F3415A40B340F340FF
S1131BD05A408018594107D349085FEA30005FEA48
S1131BE0350528BF45F0010501F58011420875F15E
S1131BF0004250F1000041EB045170BC4FF4001C52
S1131C001CEB410F38BF70470020090D09057047D0
S1131C101CEB410F10D252EA43060BD0BCEB410F30
S1131C2005D80C0DAB43661E342EB5DD02E0AB4384
S1131C308018594170BC704770BC704780B500F083
S1131C40ABFA00F0C5FA00F011FBDFF8240400F051
S1131C505EFCDFF820040068DFF81C144979491C95
S1131C60B0FBF1F00090DFF80C040068DFF8081412
S1131C700979491CB0FBF1F3DFF8F8030068DFF8D9
S1131C80F813C978491CB0FBF1F2DFF8E8030168E6
S1131C90DFF8E80300F03BFCDFF8E40300784007DA
S1131CA003D5DFF8E00300F032FCDFF8D40300785A
S1131CB0800703D5DFF8D00300F029FCDFF8C00368
S1131CC00078C00703D5DFF8C40300F020FCDFF878
S1131CD0C0030078000603D5DFF8B80300F017FC52
S1131CE0DFF8AC030078400603D5DFF8AC0300F05E
S1131CF00EFCDFF89C030078800603D5DFF89C0314
S1131D0000F005FCDFF888030078400703D5DFF80E
S1131D10900300F0FCFBDFF878030078800703D51C
S1131D20DFF8800300F0F3FBDFF864030078C007FA
S1131D3003D5DFF8740300F0EAFBDFF8700300F06A
S1131D40E6FBDFF86C03DFF86C13884204D0DFF89D
S1131D50680300F0DCFB03E0DFF8600300F0D7FB6E
S1131D6000F00FF8DFF8580300F0D1FBDFF854233C
S1131D70DFF85413DFF8540300F0C9FB00F0F8FB5C
S1131D80FEE780B5DFF8480300F0C1FBDFF8440349
S1131D900068000910F0070000280BD0022811D0B9
S1131DA00CD3042816D011D306281BD016D3072829
S1131DB01CD01FE07CA000F0AAFB1EE07BA000F07A
S1131DC0A6FB1AE07AA000F0A2FB16E079A000F0CE
S1131DD09EFB12E078A000F09AFB0EE077A000F0E2
S1131DE096FB0AE076A000F092FB06E075A000F0F6
S1131DF08EFB02E0B84800F08AFBB84800F087FB8D
S1131E00B448006810F00F00022812D0042814D03F
S1131E10052816D0062818D007281AD008281CD060
S1131E2009281ED00A2820D00C2822D00E2824D01D
S1131E3027E0AB4800F06BFB26E0AA4800F067FB04
S1131E4022E0A94800F063FB1EE0A84800F05FFB15
S1131E501AE0A74800F05BFB16E0A64800F057FB29
S1131E6012E0A54800F053FB0EE0A44800F04FFB3D
S1131E700AE0A34800F04BFB06E0A24800F047FB51
S1131E8002E0A14800F043FBA04800F040FB914869
S1131E900068000B10F00F00002803D0022809D0BE
S1131EA004D30BE09A4800F032FB0AE0994800F0B2
S1131EB02EFB06E0984800F02AFB02E0974800F069
S1131EC026FB974800F023FB00F07EF89548006855
S1131ED0000E10F00F00072806D0092808D00B28A0
S1131EE00AD00F280CD00FE08F4800F010FB0EE052
S1131EF08E4800F00CFB0AE08D4800F008FB06E079
S1131F008B4800F004FB02E08A4800F000FB57A075
S1131F1000F0FDFA88480068000203D5874800F005
S1131F20F6FA1EE07F480068000F002806D0072854
S1131F3008D009280AD00F280CD00FE0804800F000
S1131F40E6FA0EE07F4800F0E2FA0AE07E4800F08C
S1131F50DEFA06E07C4800F0DAFA02E07B4800F0A2
S1131F60D6FA7B480068000B10F00F00052806D055
S1131F70072808D008280AD009280CD00FE0754893
S1131F8000F0C5FA0EE0744800F0C1FA0AE07348A4
S1131F9000F0BDFA06E0724800F0B9FA02E07148B8
S1131FA000F0B5FA01BD00004B3130004B32300077
S1131FB04B3330004B3430004B3630004B3730005D
S1131FC04B3530004B35330080B567480321017031
S1131FD066480021017066480021017065480021AF
S1131FE001706548012101706448802101706348D3
S1131FF000780006FBD5624801786248027862489E
S1132000037862480078C0B20090DBB2D2B2C9B2A1
S11320105F4800F07CFA54480321017053480021C2
S11320200170534800210170524804210170524844
S11320300121017051488021017050480078000648
S1132040FBD54F4801784F4802784F4803784F48F2
S11320500078C0B20090DBB2D2B2C9B24D4800F0F1
S113206056FA4648FF21017001BD00000A00000035
S1132070702C0000A804FF1F8404FF1F7C2A0000AA
S113208000E00740342F0000282D0000742F0000CA
S113209001E00740442F0000942E00007C2D000036
S11320A0942D0000442D0000802F00008C2F000090
S11320B00000FF1F00000000982F0000A42F000064
S11320C0B02F0000C82F0000BC2F00000430000017
S11320D0D42F000024800440202C0000E02F0000B6
S11320E00C300000143000001C30000024300000CC
S11320F02C300000343000003C300000443000003C
S11321004C30000054300000942C0000EC2F0000F0
S1132110A82E0000BC2E0000D02E00004C2B000086
S1132120542F00004C800440AC2D0000C42D00004E
S1132130DC2D0000C82C000050800440642F0000F7
S1132140F42D00000C2E0000242E0000E82C0000CA
S113215000700440E42E0000F82E00000C2F000054
S1132160202F0000602D00000700024006000240FE
S113217005000240040002400F000240000002403B
S11321800B0002400A00024009000240080002401D
S1132190482C0000082D000080B500F009F80A481A
S11321A000884FF6FE7108400749088001BD000011
S11321B072B606484CF22051018004484DF62811AD
S11321C0018062B670470000002005400E200540E3
S11321D080B51C481C4988420BD0002006E01949F0
S11321E0194A52F8202041F82020401CB0F5826F93
S11321F0F5D3144800F0DAF91449154A1548801A41
S113220003E013780B70521C491C0300581E002B6A
S1132210F7D111491148401A02E000220A70491C02
S11322200200501E002AF8D10D490E4A0E48801AA9
S113223003E013780B70521C491C0300581E002B3A
S1132240F7D101BD0000FF1F000000005C04FF1F68
S1132250C42A00000C2B0000A404FF1FB004FF1FBD
S11322601004FF1F302A00007C2A000080B51E489D
S1132270006850F478501C490860602000F0A0F910
S11322801A490860194800684FF47A71484318499C
S113229008601748006817490968C1F30361491CBD
S11322A0B0FBF1F01449086000F008F800F011F8F0
S11322B05FF4E131002000F029F801BD0F48006807
S11322C050F480500D4908600D484FF4E0610160FE
S11322D070470C48006850F001000A4908600A4839
S11322E04FF4A0610160704738800440A804FF1FC8
S11322F0A404FF1F44800440AC04FF1F0480044076
S113230018900440408004400CB0044030B4C0B283
S1132310002808D002282BD018D3042846D036D35E
S1132320052852D060E0DFF804224FF440731360B4
S1132330DFF8FC214FF440731360DFF8F8211268D2
S113234052F48062DFF8EC311A604DE0DFF8E821E6
S11323504FF440731360DFF8E4214FF440731360CB
S1132360DFF8D021126852F40062724B1A603BE02D
S1132370734A4FF440731360724A4FF4407313600E
S11323806C4A126852F480526A4B1A602CE06E4A0E
S11323904FF4407313606D4A4FF440731360654A01
S11323A0126852F40052634B1A601DE0684A4FF4FD
S11323B040731360674A4FF440731360664A1268AF
S11323C052F48062644B1A600EE0644A4FF4407326
S11323D01360634A4FF4407313605F4A126852F407
S11323E000625D4B1A60FFE7C0B25E4A52F82020DB
S11323F0D27812F0F302C0B25A4B53F82030DA709C
S1132400C0B2584A52F8202000239370C0B200286A
S113241008D00022C0B2012804D052F00002D2B287
S1132420002A05D0504A12684FF47A735A4304E0E4
S11324304E4A12684FF47A735A430B01B2FBF3F31A
S1132440C0B2484C54F82040247814F0E0049BB205
S11324501D0A15F01F052C43C0B2424D55F82050FB
S11324602C70C0B23F4C54F82040637052010901F3
S1132470B2FBF1F19BB2B1EB4311C0B2394A52F84D
S11324802020927A12F0E004C0B2364A52F820209A
S113249011F01F0121439172C0B2324951F820104A
S11324A0C97851F00C01C0B22E4A52F82000C17014
S11324B030BC7047C0B22B4A52F820201279120661
S11324C0F8D5C0B2274A52F82000C171704738B518
S11324D004000D00EDB20A2D04D10D212000C0B27C
S11324E0FFF7E8FF2900C9B22000C0B2FFF7E2FFFE
S11324F031BD38B504000D0005E029782000C0B2D4
S1132500FFF7E5FF6D1C28780028F6D131BD0EB425
S113251000B5C0B041AA010000A800F0D7F900A995
S11325200020FFF7E6FF40B05DF810FB18C0044040
S11325301CC00440348004400CB0044010B004407B
S11325400CC0044008C0044040B0044044B00440FF
S113255064D0044060D004402880044024D0044067
S113256020D004408C04FF1FA404FF1FAC04FF1FF1
S113257080B5012301220F21002000F0BDF90A4893
S1132580006830F40040084908604FF4FA7000F025
S113259013FA0548006850F40040034908604FF4FA
S11325A0FA7000F009FAEAE700F00F400149086008
S11325B07047000008ED00E0DFF800F01104FF1F91
S11325C010B5C0B2002800F01481C0B20100302957
S11325D01ED032292CD0602931D0642936D06E29FE
S11325E03BD0782940D07D2945D082294AD08C29F6
S11325F04FD0962954D0A02959D0AA295ED0B42905
S113260063D0C82968D0E1296DD0FA2972D078E066
S1132610A64918220A70A54900224A70A34900223B
S11326208A70C0B2652870D2A0490022CA708CE0BA
S11326309E4918220A709D4901224A70EEE79B497F
S113264018220A70994918224A70E7E79749182214
S11326500A7096491A224A70E0E7944918220A70CF
S113266092491F224A70D9E7904913220A708F4970
S113267018224A70D2E78D4913220A708B491A2214
S11326804A70CBE7894913220A7088491C224A7090
S1132690C4E786490E220A70844912224A70BDE7B3
S11326A082490E220A70814915224A70B6E77F4991
S11326B00E220A707D4918224A70AFE77B490E2228
S11326C00A707A491B224A70A8E778490E220A70D8
S11326D076491E224A70A1E774490C220A70734994
S11326E01C224A709AE771490B220A706F491E2214
S11326F04A7093E76D490A220A706C491F224A7096
S11327008CE76420FFF75CFFCEE0C0B2C92803D297
S113271066490122CA7018E00100C9B240F22D12C4
S113272089B2914203D261490222CA700DE00100CC
S1132730C9B240F2911289B2914203D25B49032299
S1132740CA7002E059490F22CA705849574AD278D0
S11327500A71C0B21F2803D254480021417148E0D5
S1132760C0B23D2803D251480121417141E0C0B2B9
S11327705B2803D24D48022141713AE0C0B2792866
S113278003D24A480321417133E0C0B2972803D2EF
S11327904648042141712CE0C0B2B52803D2434815
S11327A00521417125E0C0B2D32803D23F48062158
S11327B041711EE0C0B2F12803D23C4807214171A7
S11327C017E00100C9B240F20F1289B2914203D25C
S11327D03648082141710CE0C0B240F22D1180B29C
S11327E0884203D231480921417102E02F480F2168
S11327F041712E484078183080B2322148432B4929
S11328000978491C89B290FBF1F429480021017030
S11328102848006850F0805026490860264800780F
S113282050F08000244908702448982101702448FD
S11328300078C006FBD422480078C0F38100C0B2FF
S11328400228F8D11948007810F01F001D490870BB
S11328501D48002101701548437914480279134832
S1132860C17812488078FFF7A7FE1048407810F02E
S11328701F0050F040001449087011480078800689
S1132880FBD50F4800784006FBD50C48007810F0C3
S11328903F000A4908700A480078C0F38100C0B2BA
S11328A00328F8D12000C0B210BD00BF8404FF1F6C
S11328B0014006403480044008C007400040064000
S11328C006400640044006400540064016B504464E
S11328D0009401AB0A4600A9064878441630FDF777
S11328E0B5FD009900220A7000285CBF0098001B07
S11328F016BD00BFAFE8FFFFF8B504000D001700D8
S11329001E00EDB2202D02D2F6B2022E03D32421F2
S1132910264800F077F8EDB2E4B2254850F82400D8
S11329204FF4807140F82510F80705D5FFB2032F46
S113293002D0FFB2132F0DD1E4B21E4850F8240088
S113294040690121A9408843E4B21A4951F824108E
S113295048612AE0E4B2174850F824004069012194
S1132960A9400843E4B2134951F824104861F6B26F
S1132970012E0DD1E4B20F4850F824000068012163
S1132980A9400843E4B20B4951F8241008600CE054
S1132990E4B2084850F8240000680121A9408843A3
S11329A0E4B2044951F824100860F1BD8C2B0000F6
S11329B07004FF1F5C04FF1F0E49096851F00101F8
S11329C00C4A116080B20C4908600C480521016072
S11329D00B48006850F00100094908600848006885
S11329E00006FBD50648006840084000044908601A
S11329F0704700BF388004400800044004000440CD
S1132A000000044038B504000D002A0021000748E6
S1132A10FFF77DFD7FF07F4000E0401E0028FCD1E1
S1132A207FF07F400028F0D0401EFBE70C2B000015
S1132A3070B4104C24680F4D2D6855F47F050D4E6D
S1132A403560090611F0706151EA0070110511F446
S1132A5070010843190411F4702108430649086001
S1132A60002000E0401CC0B29842FBD3014804603F
S1132A7070BC704700F0014044800440C4DABACB13
S1132A80C6B5C2CAA3BA25644D487A2009D7DCCF9B
S1132A90DFC6B5C2CA20A3BA25644D487A0A666C5B
S1132AA06578C6B5C2CAA3BA25644D487A200966BA
S1132AB06C617368C6B5C2CAA3BA25644D487A0A64
S1132AC00A00000000F00F4040F00F4080F00F407B
S1132AD0C0F00F4000F10F400090044000A00440FB
S1132AE000B0044000C0044000D004400B1F0000AC
S1132AF00009000000A0064000B0064000C00640E7
S1132B0000D0064000A00E4000B00E40B6CFD1D495
S1132B10B7A2C9FAD4DA2573CEC4BCFEB5C4B5DAFB
S1132B202564D0D0A3A10AB6CFD1D4CCF5BCFEB2D3
S1132B30BBB3C9C1A2A3ACC7EBBCECB2E2B4EDCE4B
S1132B40F3D4ADD2F22E0A0A000000000A546869D8
S1132B50732076657273696F6E206F6620736F667B
S1132B60747761726520646F65736E277420726573
S1132B70636F676E697A652074686520726576692B
S1132B8073696F6E20636F64652E0000443A5C774E
S1132B906F726B73706163655C6D79776F726B7361
S1132BA0706163655C53575F4B36305C7372635C72
S1132BB0647269766572735C6770696F5C6770696B
S1132BC06F2E63000A2A2A2A2A64656661756C746A
S1132BD05F69737220656E7465726564206F6E2020
S1132BE0766563746F722025642A2A2A2A2A0D0ABC
S1132BF00A00000010B5084979441C31074C7C4494
S1132C001A34A14206D0081D0A68511888470146A3
S1132C10A142F8D110BD00BFA0000000AC0000002C
S1132C20556E7265636F676E697A6564204B696E71
S1132C30657469732066616D696C79206465766971
S1132C4063652E0A00000000466C617368207061A1
S1132C5072616D657465722076657273696F6E203A
S1132C6025642E25642E25642E25640A00000000A8
S1132C700A0A0909B1B1BEA9D3CAB5E7B4F3D1A709
S1132C80204B363020D1A7CFB0C0FDB3CC0A0A0AFE
S1132C90000000000A556E7265636F676E697A659D
S1132CA064204B696E65746973207061636B61673E
S1132CB06520636F64652E00B3E4FFFF0C00000021
S1132CC0A404FF1F00000000455252212120556E2C
S1132CD0646566696E656420502D666C6173682056
S1132CE073697A650A000000455252212120556E0D
S1132CF0646566696E656420466C65784E564D2041
S1132D0073697A650A000000466C61736820766511
S1132D107273696F6E2049442025642E25642E2524
S1132D20642E25640A000000436F7265204C6F63B3
S1132D306B7570204576656E742052657365740AF0
S1132D40000000004C6F772D766F6C74616765200E
S1132D504465746563742052657365740A000000E9
S1132D60455252212120556E646566696E65642062
S1132D7052414D2073697A650A0A000057617463F1
S1132D8068646F6728434F50292052657365740A3D
S1132D90000000004C6F7373206F6620436C6F63F8
S1132DA06B2052657365740A0000000031323820CC
S1132DB06B4279746573206F6620502D666C617365
S1132DC068090000323536206B4279746573206FD0
S1132DD06620502D666C617368090000353132201D
S1132DE06B4279746573206F6620502D666C617335
S1132DF06809000030206B4279746573206F662087
S1132E00466C65784E564D0A000000003132382079
S1132E106B4279746573206F6620466C65784E56F4
S1132E204D0A0000323536206B4279746573206F89
S1132E306620466C65784E564D0A000080B50348FE
S1132E400178C9B20248FFF762FB01BD04ED00E05E
S1132E50C42B000000F009F8002801D0FFF7CAFED7
S1132E600020FFF785FB00F002F80120704700F016
S1132E7001B800000746384600F002F8FBE70000FE
S1132E8080B5C046C046024A11001820ABBEFBE71D
S1132E902600020045787465726E616C2050696E7C
S1132EA02052657365740A0053696C69636F6E2000
S1132EB072657620312E302020200A0053696C6917
S1132EC0636F6E2072657620312E3120200A000057
S1132ED053696C69636F6E2072657620312E3220DF
S1132EE0200A00003332206B4279746573206F66C8
S1132EF02052414D0A0A00003634206B4279746531
S1132F0073206F662052414D0A0A00003936206B47
S1132F104279746573206F662052414D0A0A00009D
S1132F20313238206B4279746573206F66205241C8
S1132F304D0A0A00536F6674776172652052657397
S1132F4065740A00506F7765722D6F6E2052657339
S1132F5065740A000A466C617368D0C5CFA2A3BA2F
S1132F600A000000502D666C617368206F6E6C79E6
S1132F700A0000004A5441472052657365740A00F0
S1132F804C4C57552052657365740A000AC6F4B652
S1132F90AFB7BDCABDA3BA00666C617368C6F4B6A8
S1132FA0AF0A00005352414DC6F4B6AF0A00000008
S1132FB0D7EEBAF3B8FCD0C2A3BA00004D617220B8
S1132FC0323420323031320031393A35373A323204
S1132FD000000000D0BEC6ACD0C5CFA2A3BA00008A
S1132FE0200AB9DCBDC5CAFDA3BA00000AB0E6B127
S1132FF0BED0C5CFA2A3BA00C046C046C046C04694
S1133000FFF728FF2573202025730A0033327069E7
S11330106E000000343870696E0000003634706948
S11330206E000000383070696E000000383170693D
S11330306E00000031303070696E00003130347041
S1133040696E000031343470696E000031393670B5
S10F3050696E000032353670696E0000B5
S9032FF9D4
