S00F000053585F64656D6F2E7372656366
S1130000F8FF002011040000E9460000E946000062
S1130010E9460000E9460000E9460000E946000020
S1130020E9460000E9460000E9460000E946000010
S1130030E9460000E9460000E9460000E946000000
S1130040E9460000E9460000E9460000E9460000F0
S1130050E9460000E9460000E9460000E9460000E0
S1130060E9460000E9460000E9460000E9460000D0
S1130070E9460000E9460000E9460000E9460000C0
S1130080E9460000E9460000E9460000E9460000B0
S1130090E9460000E9460000E9460000E9460000A0
S11300A0E9460000E9460000E9460000E946000090
S11300B0E9460000E9460000E9460000E946000080
S11300C0E9460000E9460000E9460000E946000070
S11300D0E9460000E9460000E9460000E946000060
S11300E0E9460000E9460000E9460000E946000050
S11300F0E9460000553E0000E9460000E9460000DC
S1130100E9460000E9460000E9460000E94600002F
S1130110E9460000E9460000E9460000E94600001F
S1130120E9460000E9460000E9460000E94600000F
S1130130E9460000E9460000E9460000E9460000FF
S1130140713D0000E9460000E9460000E946000070
S11301502D3D0000E9460000E9460000E9460000A4
S1130160E9460000E9460000E9460000E9460000CF
S1130170E9460000E9460000E9460000E9460000BF
S1130180E9460000E9460000E9460000E9460000AF
S1130190E9460000E9460000E9460000E94600009F
S1130400FFFFFFFFFFFFFFFFFFFFFFFFFEFFFFFFF9
S113041062B64FF000004FF000014FF000024FF0C1
S113042000034FF000044FF000054FF000064FF0BA
S113043000074FF000084FF000094FF0000A4FF09A
S1130440000B4FF0000C03F085F8FEE72DE9F04FA8
S1130450A1B0804617461D46029102AE002070628C
S113046011AC6FF000490AE017F8011B0298C0476D
S11304700290002800F07C82706A401C7062387818
S113048008B9706A76E22528EED10020F060306168
S11304907061B061F061306201E040F0010017F872
S11304A0011F2029F9D023290ED02B2904D02D296E
S11304B006D030290CD00FE040F0020080B2EEE705
S11304C040F0040080B2EAE740F0080080B2E6E7BA
S11304D040F0100080B2E2E72A290DD129680A1DF4
S11304E02A600968F162002904D54942F16240F0AA
S11304F0040080B27F1C11E00021F16209E0F16A7E
S1130500494505D001EB810302EB43013039F16227
S11305107F1C3A78A2F130010A29F0D339782E29C8
S11305201CBF4FF0FF31B1621CD117F8011F2A29FB
S113053006D129680A1D2A600968B1627F1C11E08E
S11305400021B16209E0B16A494505D001EB81039C
S113055002EB43013039B1627F1C3A78A2F13001D9
S11305600A29F0D3308639780FF6E43000F00EFE15
S113057008B117F8010B8DF83A009DF83A00682885
S113058004D1387868280AD1622005E06C2804BFB9
S113059038786C2803D171208DF83A007F1C11A89B
S11305A0B0603A781046253825D01C3875D0001F25
S11305B0022872D9133800F09C8009386DD0801E4F
S11305C000F03781401E00F0DD80401E022864D90F
S11305D0001F00F0D780401F34D0401E00F08980F7
S11305E0401E24D0C01E0CD0801E00F08280C01E8D
S11305F000F07F8026E1F068411CF160252101555F
S11306002AE12868011D296000687060B26A002A26
S113061003D500F0CBFD30611EE1002100F0E2FDC6
S113062000281ABF7168401AB06A306114E1286862
S1130630011D296000680021CDE9000111A8706046
S11306407821F2E09DF83A00622818D0682806D094
S11306506A280BD06C2819D0712807D016E02868B6
S1130660011D2960716A00680180F5E02A68101D87
S11306702860706AC1171268C2E90001ECE02868BA
S1130680011D2960716A00680170E5E02868011D98
S11306902960716A00680160DEE02868C01D20F0EE
S11306A007002860034603F108002860D3E900012D
S11306B0CDE90001002904D5F068411CF1602D2129
S11306C00DE0308E810704D5F068411CF1602B21C8
S11306D005E0C00704D5F068411CF16020210155F4
S11306E0F06811A940187060114600A800F0D8F90C
S11306F0B2E09DF83A306C2B08BF286811D0712BFA
S113070008BF286802D06A2B28680AD1C01D20F0CF
S11307100700286084460CF108002860DCE9000129
S113072003E0011D296000680021CDE90001682B68
S113073004BFDDE9000180B20BD0622B04BFDDE908
S11307400001C0B205D0742B18BF7A2B04D1DDE9A7
S113075000010021CDE9000196F8300000075FD5C3
S1130760DDE90001002908BF002859D042F020002B
S1130770782855D1F06830210155401C411CF160A6
S113078002554DE09DF83A0062280CD0682810D03C
S11307906A281AD06C2824D0712816D0742820D046
S11307A07A280CD01DE02868011D296090F900000A
S11307B01BE02868011D2960B0F9000015E02868D5
S11307C0011D29600068002110E02868C01D20F088
S11307D007002860034603F108002860D3E90001FC
S11307E004E02868011D29600068C117CDE90001F3
S11307F0DDE90001002904DAF068411CF1602D21D3
S11308000DE0308E810704D5F068411CF1602B2186
S113081005E0C00704D5F068411CF16020210155B2
S1130820F06811A940187060114600A800F0A5F8FE
S113083012E0F068411CF16029680A1D2A60096809
S1130840015509E0F068411CF160252101551AB1F8
S1130850F068411CF16002557F1CF06AF168401A8F
S1130860B169401A3169401AF169401A7169401A34
S1130870316AA0EB010A96F83000400711D4202019
S11308808DF84000BAF1010F0BDBD346012310AA07
S113089000A9404600F044FC002869D1BBF1010BDB
S11308A0F4D1F36811AA00A9404600F039FC0028ED
S11308B05ED130208DF84000D6F818B0BBF1010F9E
S11308C00ADB012310AA00A9404600F029FC0028F5
S11308D04ED1BBF1010BF4D13369726800A94046D3
S11308E000F01EFC002843D130208DF84000D6F8DB
S11308F01CB0BBF1010F09DB012310AA00A940467B
S113090000F00EFCA0BBBBF1010BF5D1736930699B
S11309107168421800A9404600F002FC40BB302038
S11309208DF84000D6F820B0BBF1010F09DB01239C
S113093010AA00A9404600F0F3FBC8B9BBF1010BB3
S1130940F5D196F8300040077FF599AD20208DF859
S11309504000BAF1010FFFF692AD012310AA00A9DD
S1130960404600F0DDFB18B9BAF1010AF5D186E57D
S11309704FF0FF3021B0BDE8F08F2DE9FA4B86B07F
S113098005462F696F2908BF082605D041F02000CD
S1130990782814BF0A2610263C24D5E90001814694
S11309A08B469DF81820642A18BF692A05D10029AE
S11309B003DAD9F100096BEB4B0BBBF1000F08BF55
S11309C0B9F1000F0CD1286B50B9082E44D195F819
S11309D03800000740D53B24302087F83B003BE03B
S11309E0A4F101084446F017CDE90460484659468D
S11309F0DDE9042300F022FCCDE90201CDE9009BEE
S1130A00DDE90223DDE90401A0FB029BDDE900012D
S1130A10A0EB09003030C0B23A2803D39DF8181077
S1130A205139081808F80700DDE9029BBBF1000FF3
S1130A3008BFB9F1000F03D0E868E1198842CFD3A9
S1130A40082E09D195F83800000705D5E05D302857
S1130A5002D0641E3020E055C4F13C00A861E119C5
S1130A60E960296B884207DA081A2862288F4FF652
S1130A70EF710840288710E000290ED595F838104A
S1130A8001F01401102908D1696B6A69891A2A6A6C
S1130A90891A0C1A012CA8BF2C6208B0BDE8F08B8F
S1130AA02DE9F24F8EB0054604AFD5E90001CDE93A
S1130AB002019DF8380040F020008DF80000612804
S1130AC00BD0286B002848BF062005D404BF9DF82E
S1130AD00000672801D1012028636968C1F30A5026
S1130AE040F2FF7398421CD1080304BF2868002811
S1130AF009D10320A8619DF8380061381A2837D33A
S1130B000FF2606108E00320A8619DF838006138A5
S1130B101A282AD30FF244610322E86800F006FC85
S1130B20BBE1010017D1284600F03BFC012812DB91
S1130B30002400209DF80010612920D1E9683022AA
S1130B4001F8012B4A1CEA609DF83820612A0CBF89
S1130B50782258220FE040F2FE316A6861F31E5297
S1130B606A60441A4FF0FF30E4E70FF2EC51D3E728
S1130B700FF2EC51D0E70A706969891C696110B9F8
S1130B800026B0467FE19DF80000612840F0978080
S1130B90286B00284CBF2126461C36B2771CD5E9A9
S1130BA000ABDDE902010022002300F01DFC3ABF86
S1130BB08BF00040CDE902A0CDE902ABA4F104081A
S1130BC08DF810200DF11109012F33DBDDE902014D
S1130BD00022002300F020FC2CD21C2102A800F0EB
S1130BE033FCDDE9020100F0BDFC0446FF1F012FC8
S1130BF009DB00F0E3FC02460B46DDE9020100F0EC
S1130C00F5FCCDE9020109F20700072104E004F034
S1130C100F0200F8012D2411012C01DB491EF6D529
S1130C20491E5CBF002200F8012DF9D500F2070926
S1130C30012FCBDA0DF11100A9EB00010DF1110721
S1130C40B142B8BF0E4636B2002E31D43046884287
S1130C5006DA04A941184978082928BF0F2100D2CF
S1130C60002104AA821800E0761E401E12F8013901
S1130C708B42F9D00F2904D104A941184A78521C97
S1130C804A70002803D504AF761C08F1040836B274
S1130C90701E0DD4C1190A783032D2B23A2A03D365
S1130CA09DF838303A3B9A1801F80129401EF2D5D4
S1130CB0286B002840F1E780701E2863E3E0DDE93B
S1130CC002010022002300F08FFB05D2DDE90201BE
S1130CD081F00041CDE9020124B247F2975060430C
S1130CE06F4990FBF1F80FFA88F8C8F10704002760
S1130CF0DFF8B091012C19DBDDE902ABE00707D581
S1130D00504659463A464B4600F030FD82468B46E3
S1130D106410384649463A464B4600F027FD0746DC
S1130D208946002CEAD1CDE902AB21E06442924627
S1130D30DFF874B114D0E00707D5504659463A4657
S1130D404B4600F013FD82468B46641038464946F4
S1130D503A464B4600F00AFD07468946002CEAD184
S1130D60DDE9020152465B4600F0D2FDCDE9020105
S1130D709DF8000066280CBF08F10A000620296BC4
S1130D804618142EA8BF132630208DF810000DF13C
S1130D901104464F012E33DBDDE9020100F0F8FBBC
S1130DA004F1080104220A24B0FBF4F303EB830EDC
S1130DB0A0EB4E00303001F8010DB3FBF4F000EB72
S1130DC08004A3EB4403303301F8013D521EEAD101
S1130DD001F10804083E012EDCDBDDE9020100F02C
S1130DE0D7FB00F0F5FB02460B46DDE9020100F0FB
S1130DF0FDFB00223B4600F0B9FCCDE90201CBE744
S1130E000DF11100201A0DF111079DF81110302970
S1130E1006D1401EA8F1010817F8011F3029F8D0A7
S1130E209DF80010662904BF0FFA88F808F1010143
S1130E3003D065290CBF012100212A6B8E1836B21C
S1130E40B042B8BF064636B2002E1CD431468142A9
S1130E5004DAC85D352828BF392000D23020CA19E9
S1130E60521E00E0761E491E12F801398342F9D061
S1130E70392802D1C85D401CC855002903D57F1EFE
S1130E80761C08F101080FFA88F0009033B23A4654
S1130E909DF83810284600F00BF80FB0BDE8F08F2D
S1130EA0A0860100000024400000F03F84D7974151
S1130EB02DE9F04385B00546894617461E46BDF91F
S1130EC03040D5F83080012E02DA01260FF298273F
S1130ED049F0200066280AD0672840F086806FF029
S1130EE003018C42C0F28780444580F28480641CF4
S1130EF066280CD095F83800000702D44645B8BFE0
S1130F00B04624B2B8EB040848BF4FF00008E868C4
S1130F10A96924B2012C25DA4A1C30230B54B8F1F8
S1130F20010F03DA95F83810090702D52E21115460
S1130F30521CAA6118EB040FB8BFC8F1000424B214
S1130F4061426962A044B045B8BF464636B2EE611C
S1130F5032463946AB69181800F0E8F9A8EB0600E8
S1130F60A862C6E00818A64218DA3246394600F0EC
S1130F70DDF9A9697118A961A01B6862B8F1010FB4
S1130F8003DA95F83800000705D5E8682E220A54DC
S1130F90E869401CE861C5F82880AAE02246394681
S1130FA000F0C4F9A8692018A861361BB8F1010F34
S1130FB003DA95F83810090704D5411CA961E968DA
S1130FC02E22425436B2B045B8BF464636B23246F7
S1130FD0E119A869EB68C01800F0A8F9A8693018ED
S1130FE0A861A8EB0600686283E0B9F1610F16D12D
S1130FF04FF0700918E0464504DA95F838100907EF
S113100058BFB046B8F1010848BF4FF00008B9F125
S1131010670F14BF4FF045094FF0650904E0B9F1BB
S1131020410F08BF4FF05009A9694A1CE86817F836
S1131030013B0B54B8F1010F03DA95F83810090796
S113104002D52E211154521CAA61B8F1010F11DBF3
S1131050761E36B2B045B8BF464636B23246394639
S1131060AB69181800F062F9A8693018A861A8EBF8
S113107006006862A869E968471807F8019B002C14
S11310805CBF2B2007F8010B03D52D2007F8010BBB
S1131090644200260DF1080824B2012C0EDB0A225A
S11310A0214600A800F057FD019808F8010B009CA8
S11310B0761C24B2012CF2DA022E06DA49F0200062
S11310C0652804BF302007F8010B1EB9302007F84B
S11310D0010B09E0012E07DB761E02A8305C3030DC
S11310E007F8010B012EF7DAA869E9684018381AE5
S11310F0E86195F8380000F0140010280DD16869F3
S1131100A9690818696A0818E9690818A96A081811
S1131110696B8842BCBF081A286205B0BDE8F08339
S1131120F8B504460D4616461F46002077B116F85A
S1131130011BA868A047A86030B1E86A401CE862B7
S113114000207F1EF3D1F2BD4FF0FF30F2BD00004E
S1131150686A6C747A4C00006E616E004E414E00F9
S1131160696E6600494E4600300050F8041B61B1B8
S113117050F8042BD30744BFA9F101039A180023A4
S113118042F8043B091FFAD1EFE770470278C9B26D
S11311908A421AB11CBF10F8012FF9E718BF0020CA
S11311A070470268531C03601170704700F101031B
S11311B0810704D010F8011B89B18107FAD10268B4
S11311C0B2F10131914311F0803F04BF50F8042F74
S11311D0F6E710F8011B11B110F8011BFBE7C01A68
S11311E070470000C9B2830706D0521E22D310F8FC
S11311F0013B9942F7D11FE0083A13D302F10402EC
S113120041EA012141EA014150F8043B121F21BF88
S11312104B40A3F1013C2CEA030C1CF0803FF3D0BB
S1131220C9B2001F083210F8013B521E28BF91EAD0
S1131230030FF8D818BF0120401E70471B4213D17A
S1131240094236D12AB18446B0FBF2F002FB10C247
S1131250704700F087BCFCD30022002370470B00CA
S11312600200002100207047904271EB030CF6D37A
S113127070B5B1FA81F4B3FA83F52C1BA340C4F121
S1131280200532FA05F63343A2405FF00046E640FB
S113129002E05B085FEA3202841A71EB030524BFA3
S11312A0204629467641F4D302000B003000002189
S11312B070BD012ACFD970B5140C20D0B1FA81F4D5
S11312C0B2FA82F5C4F120046419B4F12006D6D32D
S11312D0B2405FF00044F440002502E052085FEAA7
S11312E03303C61A71EB020E24BF304671466441C3
S11312F06D41F3D302000B002000290070BD0C46A1
S1131300B1FBF2F102FB11452D0445EA1045B5FB92
S1131310F2F402FB145580B240EA0545B5FBF2F045
S113132002FB105240EA044070BD000062B38B0718
S113133008D0521E11F8013B00F8013B00F0248054
S11313408B07F6D1830740F0208000BF103A07D303
S113135030B4B1E83810103AA0E83810F9D230BCF3
S1131360530724BFB1E80810A0E8081044BF51F89F
S1131370043B40F8043BD20724BF31F8022B20F889
S1131380022B44BF0B7803707047083A07D3B1E8C7
S11313900810083A40F8043B40F804CBF7D253074E
S11313A0E4E730B4416801F00042012143681B03C3
S11313B01B0B436004BF0368002B0ED00368446812
S11313C0DD0F45EA440444605B000360491EE30208
S11313D0F4D543681B031B0B436043681A43426004
S11313E0084630BC704700004FF4001C1CEB410F52
S11313F094BF1CEB430F09E041EA030C50EA4C0C88
S113140052EA0C0C03D2994208BF9042704714BFB1
S11314108B428242704700004FF4001C1CEB410FCA
S113142094BF1CEB430F09E041EA030C50EA4C0C57
S113143052EA0C0C03D28B4208BF8242704714BF9D
S1131440994290427047000070B504460D466068AA
S1131450C0F30A5040F2FF72904207D16068000363
S113146004BF2068002818D0022070BD010004D1F8
S11314702046FFF796FF012867DA012D0FDB40F2C3
S1131480FF71091A8D420AD36068002847BF002003
S11314902F4900202F49C4E90001012070BD4142B9
S11314A0A942616806DA2C4A1140401941EA005009
S11314B0606053E001F0004162681203120B42F4D1
S11314C080126260401E451905F13500352803D3AA
S11314D061600020206070BD002215F11F0F05DA45
S11314E0203522686068206000206060684213D064
S11314F0521E9241D243C0F1200325689D4055EA13
S1131500D2722568C540666806FA03F32B4323604C
S1131510636823FA00F06060606808436060B2F1B9
S1131520004F03D80BD12078C00708D52068401C91
S11315302060206818B96068401C60600EE0606834
S1131540884204BF20680028F8D1002070BD000044
S11315500000F0FF0000F07FFFFF0F804FF0FF302E
S113156070BD0000F446400D40EAC120490006D297
S113157000F014F8004248BF6FF00040604700F0EC
S11315800DF84FF0004188428CBF08464042604746
S1131590400D40EAC120490080F00D8040F0004039
S11315A0490DA1F58061491C05D4D1F11F0154BF37
S11315B0C840C01770474FF000007047010040F169
S11315C00980F446404200F005F851F000416047BC
S11315D0010000BF09D0B0FA80F18840C91CC1F5F0
S11315E08461090501EBD0214005704770B44FF0C8
S11315F0004591EA030F44BF6B4000F0B5BA00BF49
S1131600841A71EB030604D26E40001BB141121917
S113161073414FF4001C1CEB410F34BF7CEB4306B9
S113162084E00C0DA4EB1356362E7DDC012E43DC36
S113163045EAC32343EA525312BFD20292025B0823
S1131640240545EAC12141EA5051D2EBC020994119
S113165025D407D1B0FA80F610FA06F164D0002040
S1131660203608E0B1FA81F6B140C6F1200220FA32
S113167002F21143B0404FEAF474B4EB465434F030
S113168001064FEA74040AD8D6F50016760D04F064
S11316900044F04061FA06F25040F1404840C00A6C
S11316A040EA415021F0004128BF5FEA500550F163
S11316B0000044EBD12137E045EAC323DB0A45EAC5
S11316C0C121C90AB6F120050EDD42EA0242120C1C
S11316D0C5F1200603FA06F6EB4042EA06056D4220
S11316E0984161F100010DE062FA06F5F2405540BF
S11316F063FA06FC82EA0C02F3405A406D429041C0
S113170061EB030111F4801F05D1641E620502D050
S11317106D004041494121F48011430875F10043B3
S113172050F1000041EB045170BC70471CEB410FB9
S113173015D223F0004352EA43060BD04FEA4C0C77
S1131740BCEB410F04D80C0D661E342EB7DDEBE75D
S1131750801A994150EA410608BF0021E4E708BF16
S11317601CEB430F28BF6FF00001DDE7B0B581EA41
S1131770030C0CF0004C40F2FF7515EA11541DBF28
S113178015EA1357AC42AF4239E0E41923EA455352
S113179043F48013C90241F0004141EA505EC7029C
S11317A01100A7FB020200284FF00000EEFB01200D
S11317B04FF00001E3FB072118BF42F0010240187B
S11317C000214941E3FB0E01A4F580640F0302D21A
S11317D052004041494154F101046CDD470872F163
S11317E0004250F1000051EB0451A1F580115CBF9F
S11317F041EA0C01B0BD4CEA05510020B0BD05EA38
S11318001357AC4214BFAF4241E050EA410E1CBF33
S113181052EA430E02E061460020B0BD24423C443B
S11318201BD15FEA070EF6D0090302BF0146002070
S1131830AEF1140EB1FA81F7AEEB070401FA07FE1C
S11318400C37C7F1200100FA07F7C8404EEA000E32
S113185023EA455343F48013A2E733F00043B3FA79
S113186083F704BFB2FA82FE77440B3FE41BB7F15F
S1131870200E2FBF02FA0EF3BB40C7F1200E22FA4E
S11318800EFE38BF43EA0E03BA40641C82E750EAF6
S1131890410E14BF52EA430E6FF000014FF40017DB
S11318A017EB430F8ABF194617EB410FB5E74CEA14
S11318B005510020B0BDD4F10104B4F120070FDAC2
S11318C0C4F12007520828BF42F0010210FA07F5BC
S11318D001FA07F7E1BF2A43E0403843E1400FE053
S11318E0352C98DCC7F1200452EA400220FA07F2B2
S11318F018BF42F0010231FA07F0A1400A43002167
S113190072F1004250F1000051EB0C01B0BD000037
S1131910F0B540F2FF7581EA030C0CF0004C15EAB7
S113192011541DBF15EA1357AC42AF42E5E0BC4168
S1131930C1F31301C3F31303801A994143F48013D1
S113194004D2641E4000494180185941C90241EA49
S11319505051B1FBF3F603FB1611A2FB0675D7EB4E
S1131960C020A94102D2761E80185941C90241EA19
S11319705051B1FBF3FE03FB1E11A2FB0E75D7EB16
S1131980C020A94103D2AEF1010E80185941890249
S113199041EA9051760546EA8E2EB1FBF3F603FB3D
S11319A01611A2FB0675D7EB8020A94102D2761E40
S11319B080185941C90241EA50514EEA060EB1FB62
S11319C0F3F603FB1611A2FB0675D7EBC020A94161
S11319D002D2761E80185941C90241EA5051B1FB26
S11319E0F3F703FB1711A2FB0735D3EBC020A94182
S11319F067F100070CBF004247F0010766F3D527E3
S1131A004FEA1E31B80814F5806412DDBD0775F184
S1131A10004250EB0E5051EB045111F5801F5CBF96
S1131A2041EA0C01F0BD4CF07F6141F0E04100203F
S1131A30F0BDBD076D0840EA0E5041F48011D4F1A9
S1131A400104B4F120060ADAC4F120060200E040E1
S1131A5001FA06F3E1401843B24015430EE0342C7A
S1131A6013DCC6F1200445EA40056D0820FA06F2AD
S1131A70154321FA06F0A1400D43002175F10042FF
S1131A8050F1000051EB0C01F0BD00205FEA0C01A5
S1131A90F0BDCFB992185B41B3FA83F704BFB2FA31
S1131AA082F6BF190B3FB7F120062FBF02FA06F3E7
S1131AB0BB40C7F1200622FA06F638BF3343BA40CA
S1131AC01CB1E419641E33E77F4231F00041B1FADE
S1131AD081F404BFB0FA80F6A4190B3CB4F12006DB
S1131AE02FBF00FA06F1A140C4F1200620FA06F641
S1131AF038BF3143A0403C1B1AE7AC421ABF05EA89
S1131B001357AF4212E050EA41061CBF52EA4306A3
S1131B10BFE750EA4107304661461CBF41EA055120
S1131B20F0BD52EA430C08BFC143F0BD00204FF49E
S1131B30001616EB410F98BF16EB430F08BF16EBC8
S1131B40410F24BFC14305E016EB430F0CBF6146B0
S1131B504CEA0551F0BD91FBF2F303FB1211C0E90D
S1131B600031704770470000841A71EB030603D2FA
S1131B70001BB141121973414FF4001C1CEB410FBF
S1131B8034BF7CEB430443E00C0DA4EB1356352E19
S1131B9050DC45EAC323DB0A45EAC121C912B6F188
S1131BA020050DDD63FA05F6EB4086EA03051242D3
S1131BB018BF45F00105C01851F100010CD213E023
S1131BC062FA06F5F2405540F3415A40B340F340FF
S1131BD05A408018594107D349085FEA30005FEA48
S1131BE0350528BF45F0010501F58011420875F15E
S1131BF0004250F1000041EB045170BC4FF4001C52
S1131C001CEB410F38BF70470020090D09057047D0
S1131C101CEB410F10D252EA43060BD0BCEB410F30
S1131C2005D80C0DAB43661E342EB5DD02E0AB4384
S1131C308018594170BC704770BC70472DE9F04161
S1131C4004000D0016001F00DFF8700600684FF452
S1131C507A7101FB00F8E4B2002C0DD0E4B2012C3F
S1131C6002D0E4B2022C02D1EDB2022D04D36821D9
S1131C70DFF84C0600F04AFB5FEA5800B04203D399
S1131C805FEAD850B04206D3DFF838266B21DFF87C
S1131C90300600F076FB5FEA1840B0FBF6F1002056
S1131CA000E0401C31FA00F2002AFAD138FA00F1BF
S1131CB0B1FBF6F1491E4A1C02FB07F242F2107313
S1131CC0B2FBF3F2E4B2002C05D0022C00F0B88091
S1131CD0C0F08980DFE0DFF8F0351B6853F08073D3
S1131CE0DFF8E4653360EDB2002D0BD0022D25D072
S1131CF016D3042D3ED02FD3062D57D048D3072D0D
S1131D0062D06FE0DFF8CC351B6853F40063DFF872
S1131D10C4653360DFF8C0354FF480661E60BAE0F6
S1131D20DFF8B0351B6853F40063DFF8A86533604F
S1131D30DFF8A8354FF480661E60F0E7DFF89435CD
S1131D401B6853F40063DFF88C653360DFF890356B
S1131D504FF480661E60E2E7DFF878351B6853F4C1
S1131D600063DFF870653360DFF878354FF4806620
S1131D701E60D4E7DFF85C351B6853F48053DFF84A
S1131D8054653360DFF860354FF480661E60C6E743
S1131D90DFF840351B6853F48053DFF8386533604F
S1131DA0DFF848354FF480661E60B8E7DFF8243565
S1131DB01B6853F48053DFF81C653360DFF830355B
S1131DC04FF480661E60AAE7DFF808351B6853F4F9
S1131DD08053DFF800653360DFF818354FF4806610
S1131DE01E609CE7B4E0DFF8E0341B6853F0007336
S1131DF0DFF8D4643360EDB2002D02D0012D0FD092
S1131E001DE0DFF8D0341B684FF400763343DFF86D
S1131E10C4643360DFF8E0344FF440761E603AE087
S1131E20DFF8B0341B684FF400763343DFF8A46462
S1131E303360DFF8C8344FF440761E60EFE787E084
S1131E40DFF888341B6853F08073DFF880643360F4
S1131E50EDB2002D02D0012D0ED01BE0DFF874345A
S1131E601B6853F48063DFF86C643360DFF89034EC
S1131E704FF440761E600EE0DFF858341B6853F4CC
S1131E808063DFF850643360DFF878344FF44076D1
S1131E901E60F0E75CE0EDB2E4B2DFF8343453F8EE
S1131EA0243013EBC503EDB2E4B2DFF8246456F832
S1131EB0246016EBC506F66836F00406DE60EDB263
S1131EC0E4B2DFF80C3453F8243013EBC5032826AE
S1131ED0DE60E4B2DFF8F83353F8243000265E60A5
S1131EE0E4B2DFF8EC3353F8243089B29960E4B2F9
S1131EF0DFF8DC1351F824100023CB64EDB2E4B214
S1131F00DFF8CC1351F8241011EBC50192B20A6129
S1131F10E4B2DFF8BC1351F824100968C0B210F021
S1131F20070050F008000843E4B2DFF8A41351F8A6
S1131F3024100860E4B2DFF8980350F82400006825
S1131F4030F02000E4B2DFF8881351F82410086060
S1131F50BDE8F08170B504000D001600E4B2002C59
S1131F6010D0E4B2012C02D0E4B2022C02D1EDB2C2
S1131F70022D07D3DFF8902340F20B21DFF8400352
S1131F8000F0FFF9E4B2002C05D0022C00F0B88078
S1131F90C0F08980DFE0DFF83003006850F0807023
S1131FA0DFF824130860EDB2002D0BD0022D25D0EC
S1131FB016D3042D3ED02FD3062D57D048D3072D4A
S1131FC062D06FE0DFF80C03006850F40060DFF8C3
S1131FD004130860DFF800034FF480610160BAE085
S1131FE0DFF8F002006850F40060DFF8E8120860DF
S1131FF0DFF8E8024FF480610160F0E7DFF8D40213
S1132000006850F40060DFF8CC120860DFF8D002FA
S11320104FF480610160E2E7DFF8B802006850F431
S11320200060DFF8B0120860DFF8B8024FF4806196
S11320300160D4E7DFF89C02006850F48050DFF8B8
S113204094120860DFF8A0024FF480610160C6E7D3
S1132050DFF88002006850F48050DFF878120860DE
S1132060DFF888024FF480610160B8E7DFF86402AA
S1132070006850F48050DFF85C120860DFF87002EA
S11320804FF480610160AAE7DFF84802006850F469
S11320908050DFF840120860DFF858024FF4806186
S11320A001609CE708E1DFF82002006850F000704E
S11320B0DFF814120860EDB2002D02D0012D0FD00C
S11320C01DE0DFF8100200684FF400710843DFF8E8
S11320D004120860DFF820024FF4407101603AE016
S11320E0DFF8F00100684FF400710843DFF8E411F1
S11320F00860DFF808024FF440710160EFE7DBE0AD
S1132100DFF8C801006850F08070DFF8C011086083
S1132110EDB2002D02D0012D0ED01BE0DFF8B4018A
S1132120006850F48060DFF8AC110860DFF8D0017B
S11321304FF4407101600EE0DFF89801006850F43C
S11321408060DFF890110860DFF8B8014FF4447143
S11321500160F0E7B0E0F6B2002E03D0022E52D0B8
S113216029D374E0EDB2E4B2DFF8640150F824003E
S113217010EBC500EDB2E4B2DFF8541151F82410AD
S113218011EBC501C96851F04401C160EDB2E4B27C
S1132190DFF83C0150F8240010EBC500EDB2E4B2C6
S11321A0DFF82C1151F8241011EBC501C96831F086
S11321B03801C1604BE0EDB2E4B2DFF8140150F82D
S11321C0240010EBC500EDB2E4B2DFF8041151F8BD
S11321D0241011EBC501C96851F04801C160EDB28A
S11321E0E4B2DFF8EC0050F8240010EBC500EDB2C7
S11321F0E4B2374951F8241011EBC501C96831F034
S11322003401C16023E0EDB2E4B2314850F8240057
S113221010EBC500EDB2E4B22D4951F8241011EBD6
S1132220C501C96851F04C01C160EDB2E4B228485F
S113223050F8240010EBC500EDB2E4B2244951F883
S1132240241011EBC501C96831F03001C160E4B25A
S11322501F4850F8240008210160E4B21C4850F8DB
S11322602400406D50F00400E4B2194951F82410E0
S11322704865E4B2164850F8240000214166E4B2EF
S1132280134850F82400406D40084000E4B210495F
S113229051F824104865E4B20D4850F82400002198
S11322A0C164E4B20A4850F8240000210165E4B294
S11322B014F13E0000F0B1F870BD00007055FF1F2E
S11322C050400000944800003C80044030800440AA
S11322D01004FF1F3880044004B0044008B00440D8
S11322E00CB0044010B0044010C0044014C00440BA
S11322F018C004401CC00440309004403490044092
S113230048A004404CA00440A448000038B5040090
S11323100D0000F0DBF82A002100394800F038FAFB
S11323200F2003E0491E0029FCD1401E0028F2D0F2
S11323307FF07F4100E0491E0029FCD13149096842
S1132340096891F480412F4A126811602D49096887
S1132350096891F400412B4A1268116029490968FF
S1132360096891F48031274A126811602549096887
S1132370096891F40031234A126811607FF07F41AB
S1132380D1E770B504000D00160000F09FF82A0094
S113239021001D4800F0FCF931001C4800F0F8F958
S11323A05F2003E0491E0029FCD1401E0028EED026
S11323B0174900E0491E0029FCD11249096809683F
S11323C091F480410F4A126811600E490968096846
S11323D091F400410B4A126811600A4909680968BE
S11323E091F48031074A1268116006490968096846
S11323F091F40031034A126811600549D3E70000E3
S1132400984100001C04FF1FA4450000B4480000CC
S1132410FFFF070025490860704710B504005C2CD5
S113242002DB234800F0B4F9202094FBF0F00028EC
S113243003D0022827D013D337E00120202194FBB6
S1132440F1F202FB114290401A4908600120202158
S113245094FBF1F202FB114290401749086024E01A
S11324600120202194FBF1F202FB11429040134918
S113247008600120202194FBF1F202FB11429040FC
S11324800F49086011E00120202194FBF1F202FBC6
S1132490114290400B4908600120202194FBF1F285
S11324A002FB114290400849086010BD08ED00E0AD
S11324B08C42000080E200E000E100E084E200E001
S11324C004E100E088E200E008E100E080B50123D7
S11324D001220E21002000F089F9012301220F219D
S11324E0002000F083F9012301221021002000F0D4
S11324F07DF9012301221121002000F077F901BDAB
S1132500074A12681268012383409A43C9B211F042
S1132510010111FA00F0104301490968086070478D
S11325201C04FF1F10B5012301220E21002000F01E
S11325305DF9012301220F21002000F057F9012346
S113254001221021002000F051F901230122112160
S1132550002000F04BF90E240DE000212000C0B251
S1132560FFF7CEFF642000F0A3F901212000C0B2E0
S1132570FFF7C6FF641CE4B2122CEED310BD0000BA
S113258030B4C0B2002806D0022825D015D30428C0
S113259040D030D34DE0DFF818224FF4407313607D
S11325A0DFF810224FF440731360DFF80C22126836
S11325B052F48062804B1A603BE0804A4FF44073CF
S11325C013607F4A4FF4407313607B4A126852F4DD
S11325D00062794B1A602CE07A4A4FF4407313601E
S11325E0794A4FF440731360734A126852F480526C
S11325F0714B1A601DE0754A4FF440731360744ABE
S11326004FF4407313606C4A126852F400526A4BE0
S11326101A600EE06F4A4FF4407313606E4A4FF431
S1132620407313606D4A126852F480626B4B1A60F7
S1132630FFE7C0B26A4A52F82020D27812F0F302BF
S1132640C0B2674B53F82030DA70C0B2644A52F813
S1132650202000239370C0B2002808D00022C0B20A
S1132660012804D052F00002D2B2002A05D05D4AFB
S113267012684FF47A735A4304E05B4A12684FF4C9
S11326807A735A430B01B2FBF3F3C0B2544C54F8BF
S11326902040247814F0E0049BB21D0A15F01F05B5
S11326A02C43C0B24E4D55F820502C70C0B24C4C47
S11326B054F82040637052010901B2FBF1F19BB25E
S11326C0B1EB4311C0B2464A52F82020927A12F07C
S11326D0E004C0B2424A52F8202011F01F01214305
S11326E09172C0B23E4951F82010C97851F00C01E2
S11326F0C0B23B4A52F82000C17030BC7047C0B22F
S1132700374951F8201009798906F8D5C0B23449FF
S113271051F82000C0797047C0B2314A52F82020E5
S113272012791206F8D5C0B22D4A52F82000C171B0
S1132730704738B504000D00EDB20A2D04D10D2107
S11327402000C0B2FFF7E8FF2900C9B22000C0B2E0
S1132750FFF7E2FF31BD38B504000D0005E029782C
S11327602000C0B2FFF7E5FF6D1C28780028F6D1E1
S113277031BD0EB400B5C0B041AA010000A800F0FC
S1132780B9F800A90020FFF7E6FF40B05DF810FBA0
S11327900EB400B5C0B041AA010000A800F0AAF828
S11327A000A90020FFF7D7FF40B05DF810FB000040
S11327B040A0044044A00440348004400CB00440D1
S11327C010B004400CC0044008C0044040B00440B1
S11327D044B0044064D0044060D0044028800440E5
S11327E04C04FF1F6855FF1F7055FF1FF8B5040008
S11327F00D0016001F00EDB2202D02D2FFB2022FF1
S113280003D324212748FFF781FDEDB2E4B2264823
S113281050F82400F6B24FF48071314340F825108B
S1132820F00705D5F6B2032E02D0F6B2022E0DD172
S1132830E4B21E4850F8240040690121A9408843AD
S1132840E4B21A4951F8241048612AE0E4B2174866
S113285050F8240040690121A9400843E4B2134917
S113286051F824104861FFB2012F0DD1E4B20F4892
S113287050F8240000680121A9400843E4B20B4940
S113288051F8241008600CE0E4B2084850F8240021
S113289000680121A9408843E4B2044951F8241096
S11328A00860F1BD483F00003004FF1F1C04FF1FF7
S11328B0002103E0521E002AFCD1491C814203D2AC
S11328C0024A12689208F6E7704700006855FF1F35
S11328D00023814202DA0B00010018008A4202DA66
S11328E013000A001900814202DA0B0001001800EB
S11328F00800704716B50446009401AB0A4600A9C7
S1132900064878441630FDF7A1FD009900220A70AC
S113291000285CBF0098001B16BD00BF87E8FFFFBE
S113292010B584B000240023002200210320FFF707
S11329305DFF0023002201210320FFF757FF00233E
S1132940002202210320FFF751FF0023002203216C
S11329500320FFF74BFF0023002204210320FFF78D
S113296045FF0023002205210320FFF73FFF00233A
S1132970002206210320FFF739FF0023002207214C
S11329800320FFF733FF002200210220FFF7E2FAC1
S1132990012201210220FFF7DDFADFF868058068D3
S11329A0406930F04000DFF85C1589684861DFF861
S11329B054058068C06830F04000DFF84815896825
S11329C0C86001200290A0200190002000902923DB
S11329D0DFF83425DFF83405C06810F11001042055
S11329E000F0A2FADFF82805006850F01000DFF8C4
S11329F0201508600020040005E0DFF818055021C8
S1132A0040F82410641C782CF7DB002405E0DFF880
S1132A100805012140F82410641C782CF7DB0024FD
S1132A2005E0DFF8F8049B2140F82410641C782C9E
S1132A30F7DB1FBD38B5002403E08CA0FFF7A8FE28
S1132A40641CA4B2782C1CD2002500E06D1CADB22D
S1132A50A02DF2D2ADB2A4B2A020DFF8AC1400FBDA
S1132A600410295C82A0FFF793FEADB29F2D02D023
S1132A7080A0FFF78DFEDFF8A8040078C007E5D436
S1132A800EE07AA0FFF784FE78A0FFF781FE77A01E
S1132A90FFF77EFE75A0FFF77BFE74A0FFF778FEBC
S1132AA031BDDFF8800400210160DFF8580480683C
S1132AB0006D40084000DFF84C1489680865DFF8B1
S1132AC044048068006D30F00200DFF8381489682F
S1132AD00865DFF830048068406950F04000DFF892
S1132AE0241489684861DFF83C0400680028FAD09F
S1132AF0DFF810048068406930F04000DFF8041407
S1132B0089684861DFF8FC038068C06830F04000E1
S1132B10DFF8F0138968C860DFF808040021016059
S1132B20704710B50024DFF8EC03D0F8D021DFF8AB
S1132B30E403D0F8D411DFF8DC03D0F8D801FFF7B0
S1132B40C7FEDFF8D013C1F8DC017620040019E0D9
S1132B50E4B2DFF8C00310EB84004268E4B2DFF8AB
S1132B60B40350F82410E4B2DFF8A80310EB840097
S1132B7050F8040CFFF7ACFEE4B2DFF8981341F808
S1132B802400641EE4B2022CE2D210BD70B400230F
S1132B9000240025002900D101219C2A05D39B296A
S1132BA001D2012200E00022D2B20B0059E0A021A0
S1132BB0DFF8544301FB0041595C1439C9B2D829E8
S1132BC04ED300240025A021DFF83C6301FB006103
S1132BD0591811F8011C1539C9B2D6290AD2A021F5
S1132BE0DFF8246301FB0061591811F8011C55FA40
S1132BF081F5641CA021DFF8106301FB0061591802
S1132C0049781539C9B2D62909D2A021DFF8F8626A
S1132C1001FB00615918497855FA81F5641CA0211B
S1132C20DFF8E46201FB0061591811F8A01C1539A2
S1132C30C9B2D6290AD2A021DFF8CC6201FB006117
S1132C40591811F8A01C55FA81F5641C002C07D002
S1132C50B5FBF4F1A024DFF8B05204FB005419557D
S1132C605B1C511C8B42A2D370BC70470A0000004D
S1132C70256400002C0000002DE9F84F00210027F6
S1132C80002000225FF0000A0023009300260024A5
S1132C905FF0000B5FF000085FF000090025772368
S1132CA01F00012318009B231A00502300930123C3
S1132CB09A4650231E009B231C00974B43F8270081
S1132CC0964840F827200EE00126934850F8270044
S1132CD0924951F827100818022190FBF1F08D4910
S1132CE041F827007F1E002F00F008815FF0000BE1
S1132CF05FF000080098421D51463800FFF746FF78
S1132D00009900E0491E514558D3A0207E4A00FB9B
S1132D1007200818C078032290FBF2F0A0227A4B17
S1132D2002FB07328A181279032392FBF3F210187C
S1132D30A022754B02FB07328A185279032392FBB7
S1132D40F3F21018A022704B02FB07328A5C0323B3
S1132D5092FBF3F2A023DFF8B0C103FB07C3CB1847
S1132D605B785FF0030C93FBFCF39A18A023DFF865
S1132D7098C103FB07C3CB189B785FF0030C93FB4C
S1132D80FCF39A182D328242BCDA481C624941F89D
S1132D90270010F10C019B2903D210F10C010091C2
S1132DA001E09B210091082802D3B0F1060A01E05A
S1132DB05FF0010A5FF0010B5FF000092200711F50
S1132DC03800FFF7E3FE711F00E0491C601F8842D2
S1132DD052D3A0204C4A00FB0720085C032290FB3E
S1132DE0F2F0A022484B02FB07328A1852780323E0
S1132DF092FBF3F21018A022434B02FB07328A180D
S1132E009278032392FBF3F21018A0223E4B02FBAC
S1132E1007328A18D278032392FBF3F2A023DFF857
S1132E20E8C003FB07C3CB181B795FF0030C93FBCB
S1132E30FCF39A18A023DFF8D0C003FB07C3CB1818
S1132E405B795FF0030C93FBFCF39A182D328242FA
S1132E50BBDA0A1D314840F827200E2A02D3B2F10A
S1132E600C0600E09B26901D9B2801D2941D00E0D7
S1132E709B245FF001080025BBF1000F1ED1772FC2
S1132E801CD2254810EB87004068234941F82700ED
S1132E9019F10109B9F1060F10D310F11E019B2994
S1132EA003D210F11E01009101E09B210091112831
S1132EB002D3B0F10F0A01E05FF0010AB8F1000F8C
S1132EC07FF403AF772FBFF400AF144810EB8700F3
S1132ED04268124840F827206D1C062DFFF4F5AE19
S1132EE012F10F009B2802D212F10F0400E09B2480
S1132EF0202AFFF4E9AEB2F11E06E6E6FFF711FE62
S1132F00BDE8F18F1004FF1FB404FF1F1C04FF1F52
S1132F1024800040B84FFF1F9851FF1F7853FF1FB4
S1132F207455FF1FB44FFF1F2DE9F84F80460E0064
S1132F30924699460A9CDDF82CB00C9DE4B2002C14
S1132F4007D1DFF8E802864203D3DFF8E402B04297
S1132F5022D2E4B2012C0BD1DFF8D002864207D38F
S1132F60DFF8D002B04203D316F00300032813D1D4
S1132F70E4B2022C0BD1DFF8B402864207D3DFF8A7
S1132F80B802B04203D316F00300002804D028216D
S1132F90DFF8A802FFF7BAF9E4B2002C01D1012747
S1132FA00AE0E4B2012C01D1022705E0E4B2022CCC
S1132FB001D1042700E01027DFF88402006850F0F4
S1132FC00200DFF87C120860DFF87802006850F035
S1132FD00200DFF8701208605FFA88F85FEA4810B0
S1132FE0DFF8641246505FFA88F85FEA481000F18F
S1132FF0804010F51040C0F810A05FFA88F85FEA2E
S1133000481000F1804010F51040002181805FFAE3
S113301088F85FEA481000F1804010F51040FFB2D4
S11330208782E4B2200210F4E060E4B214F00701F5
S113303008435FFA88F85FEA481101F1804111F50D
S11330401041C8805FFA88F85FEA481000F18040B8
S113305010F5104059464904490CC1825FFA88F8BA
S11330605FEA481000F1804010F510405946C90548
S1133070C90DC183DFF8D401006830F08000DFF8A7
S1133080CC1108605FFA88F85FEA481000F18040CC
S113309010F51040FFB287605FFA88F85FEA4810C5
S11330A000F1804010F510400021C160A80602D450
S11330B0DBF1000000E000205FFA88F85FEA4811C5
S11330C001F1804111F5104188615FFA88F85FEAE7
S11330D0481000F1804010F510400A2181835FFA06
S11330E089F95FEA5910313050F080005FFA88F8AE
S11330F0DFF85C1108F80100DFF8580100684FF4AC
S113310000715FFA89F95FEA591291400843DFF8C8
S1133110441108605FFA89F95FEA6910DFF8381131
S113312051F820005FFA89F95FEA6911DFF8282174
S113313052F821104969012219F01F039A40914362
S113314041615FFA89F919F01F005FFA89F95FEAB2
S11331506911DFF8082152F82110EDB215F00302CD
S1133160EDB2AB09DBB253EA02424FF488731A435F
S113317041F820205FFA89F9B9F1000F01D001204C
S113318000E000205FFA89F95FEA6911DFF8C820DE
S113319052F821105FFA89F95FEA6912DFF8B83052
S11331A053F822205269012313FA00F032EA000096
S11331B04861DFF8A00000684FF40071B20912F012
S11331C0070291400843DFF88C100860E4B2002C39
S11331D003D0022C07D003D308E00020307109E0AB
S11331E00020B08006E00020706003E06E211348E8
S11331F0FFF78CF83000103810F03F00C0B2FFB277
S1133200F90011EBC0010BE0C0B2B20912F00702E1
S1133210124B53F822204FF4817342F82030401CA3
S1133220C0B2C9B28842EFD3BDE8F18F10F00F40AD
S113323013F10F4012F10F4010F10F40A4400000B1
S1133240408004403C8004400090004000800040E6
S113325000100240388004401C04FF1F3004FF1F8C
S1133260DFF800F06504FF1F10B5C0B2002800F0BD
S11332700581C0B2010030291ED032292CD060292A
S113328031D0642936D06E293BD0782940D07D29AD
S113329045D082294AD08C294FD0962954D0A029D0
S11332A059D0AA295ED0B42963D0C82968D0E129AD
S11332B06DD0FA2972D078E09E4918220A709D498F
S11332C000224A709B4900228A70C0B2332870D20F
S11332D098490022CA7084E0964918220A709549D8
S11332E001224A70EEE7934918220A709149182284
S11332F04A70E7E78F4918220A708E491A224A70E9
S1133300E0E78C4918220A708A491F224A70D9E7DB
S1133310884913220A70874918224A70D2E78549DE
S113332013220A7083491A224A70CBE78149132277
S11333300A7080491C224A70C4E77E490E220A7032
S11333407C4912224A70BDE77A490E220A707949F3
S113335015224A70B6E777490E220A707549182279
S11333604A70AFE773490E220A7072491B224A70F1
S1133370A8E770490E220A706E491E224A70A1E71E
S11333806C490C220A706B491C224A709AE76949FD
S11333900B220A7067491E224A7093E765490A2284
S11333A00A7064491F224A708CE76420FFF75CFFAF
S11333B0BFE0C0B2652803D25E490122CA7010E0A2
S11333C0C0B2972803D25B490222CA7009E0C0B296
S11333D0C92803D257490322CA7002E055490F2273
S11333E0CA705449534AD2780A71C0B21A2803D217
S11333F050480021417141E0C0B2332803D24D4806
S1133400012141713AE0C0B24C2803D2494802215B
S1133410417133E0C0B2652803D2464803214171AB
S11334202CE0C0B27E2803D242480421417125E039
S1133430C0B2972803D23F48052141711EE0C0B2B3
S1133440B02803D23B480621417117E0C0B2C92815
S113345003D238480721417110E0C0B2E22803D2F8
S113346034480821417109E0C0B2FB2803D2314835
S11334700921417102E02F480F2141712D48407804
S1133480183080B2322148432A490978491C89B24C
S113349090FBF1F42848002101702848006850F09E
S11334A08050264908602648007850F0800024495E
S11334B0087024489821017023480078C006FBD482
S11334C021480078C0F38100C0B20228F8D119481D
S11334D0007810F01F001D4908701D48002101707C
S11334E014484379134802791248C1781148807806
S11334F0FFF7B6FE0F48407810F01F0050F0400070
S113350013490870104800788006FBD50E480078EF
S11335104006FBD50B48007810F03F0009490870BD
S113352009480078C0F38100C0B20328F8D1200014
S1133530C0B210BD4404FF1F014006403480044063
S113354008C00740004006400640064004400640CC
S11335500540064080B500F0E5F800F0FFF800F003
S11335604BF9DFF85001FFF704F9DFF84C01FFF7DE
S113357000F9DFF848010068DFF84411C978491CF4
S1133580B0FBF1F2DFF834010168DFF83801FFF72E
S1133590F0F8DFF828010068DFF824114979491CA4
S11335A0B0FBF1F2DFF814010068DFF814110979B7
S11335B0491CB0FBF1F1DFF81001FFF7DAF8DFF88E
S11335C00C01FFF7D6F8DFF808010078400703D5AF
S11335D0DFF80001FFF7CDF8DFF8F400007880078A
S11335E003D5DFF8F400FFF7C4F8DFF8E40000784F
S11335F0C00703D5DFF8E400FFF7BBF8DFF8E0000D
S11336000078000603D5DFF8DC00FFF7B2F8DFF836
S1133610D0000078400603D5DFF8CC00FFF7A9F806
S1133620DFF8BC000078800603D5DFF8C000FFF7A0
S1133630A0F8DFF8AC000078400703D5DFF8B0004D
S1133640FFF797F8DFF898000078800703D5DFF8D4
S1133650A400FFF78EF8DFF888000078C00703D5D0
S1133660DFF89400FFF785F8DFF89000FFF781F8A2
S1133670DFF88C00DFF88C10884204D0DFF8880073
S1133680FFF777F803E0DFF88400FFF772F8DFF85C
S11336908000FFF76EF8DFF87C00FFF76AF8DFF8C8
S11336A07820DFF87810DFF87800FFF762F800F090
S11336B0D1F8FEE714420000344300006C55FF1FAC
S11336C04404FF1FC4420000FC420000D448000030
S11336D000E007406443000094430000C44300003A
S11336E001E00740F4430000244400005444000077
S11336F084440000B4440000E4440000E4480000B2
S11337000000FF1F000000001445000044450000B5
S113371050420000F4480000284900001C49000001
S11337202C46000080B500F009F80A4800884FF6DE
S1133730FE7108400749088001BD000072B60648C2
S11337404CF22051018004484DF62811018062B6E4
S113375070470000002005400E20054080B51C483D
S11337601C4988420BD0002006E01949194A52F836
S1133770202041F82020401CB0F5826FF5D3144876
S1133780FEF748FE1449154A1548801A03E01378D9
S11337900B70521C491C0300581E002BF7D1114911
S11337A01148401A02E000220A70491C0200501E0F
S11337B0002AF8D10D490E4A0E48801A03E0137806
S11337C00B70521C491C0300581E002BF7D101BD7D
S11337D00000FF1F000000001004FF1FF84000005D
S11337E04C410000B004FF1F7655FF1F6404FF1F07
S11337F04C4100009841000080B51148006850F425
S113380078500F4908606020FFF72EFD0D490860CD
S11338100C4800684FF47A7148430B4908600A4821
S113382000680A490968C1F30361491CB0FBF1F05F
S1133830074908605FF4E1310020FEF7A1FE01BDF5
S1133840388004406C55FF1F6855FF1F44800440B6
S11338507055FF1F38B572B65948FEF78AFF012329
S113386001220F210020FEF7C1FF012301220421C0
S11338700020FEF7BBFF00F0F6F800F083F900F03B
S11338808BF9FFF74DF86421002000F0B9F900230B
S113389002224FF6FF71022000F0ECF9494800685B
S11338A0C07850F0200047490968C8702D20FEF701
S11338B0B4FD62B6002400254348FEF75AFF43488E
S11338C00078C00775D54248FEF753FF41480068A9
S11338D0400840003F4908603F4800684FF47A714F
S11338E048430121B0FBF1F0401E3C4908603948CF
S11338F0006850F0010037490860374800684FF409
S11339007A71B0FBF1F036490968B1FBF0F4FFF7C6
S1133910C8F8314800684FF47A71B0FBF1F03049CF
S11339200968B1FBF0F5611B2E48FEF722FF294818
S113393000684008400027490860274800684FF4A1
S11339407A7148436421B0FBF1F0401E23490860BA
S11339502048006850F001001E4908601E480068B5
S11339604FF47A71B0FBF1F01D490968B1FBF0F432
S1133970FFF782F9184800684FF47A71B0FBF1F050
S113398017490968B1FBF0F5611B1748FEF7F1FE12
S1133990164801681648FEF7ECFEFFF74BF80B4893
S11339A0007810F0FE00094908704FF47A70FEF7B1
S11339B07FFFFEF7B7FD4FF47A70FEF779FF79E7E2
S11339C04C4600004C04FF1F684600007455FF1F5E
S11339D080480000087103407055FF1F00710340C8
S11339E0047103400C460000844600006455FF1F28
S11339F01049000080B5002300220E210020FEF7AC
S1133A00F5FE0023002210210020FEF7EFFE002324
S1133A10002211210020FEF7E9FE002300220521E7
S1133A200020FEF7E3FE01BD00204349096809694F
S1133A30890811F0080108433F4909680969C90B5D
S1133A4011F0040108433C4909680969C90B11F0E4
S1133A5002010843384909680969890B11F0010119
S1133A600843C0B2704780B5FFF7C4FFFFF7DCFF1F
S1133A70002817D002281DD018D3042822D01DD323
S1133A80062827D022D308282CD027D30A2831D0BF
S1133A902CD30C2836D031D30E283BD036D30F2864
S1133AA03CD03FE02548FEF773FE3EE02448FEF795
S1133AB06FFE3AE02348FEF76BFE36E02248FEF73D
S1133AC067FE32E02148FEF763FE2EE02048FEF751
S1133AD05FFE2AE01F48FEF75BFE26E01E48FEF765
S1133AE057FE22E01D48FEF753FE1EE01C48FEF779
S1133AF04FFE1AE01B48FEF74BFE16E01A48FEF78D
S1133B0047FE12E01948FEF743FE0EE01848FEF7A0
S1133B103FFE0AE01748FEF73BFE06E01648FEF7B4
S1133B2037FE02E01548FEF733FE1548FEF721FE86
S1133B30FFF77AFF02BD00001C04FF1F404700008E
S1133B4054470000684700007C470000904700008D
S1133B50A4470000B8470000CC470000E04700003D
S1133B60F4470000084800001C48000030480000EA
S1133B7044480000584800006C480000A04600007B
S1133B80D841000080B54FF49663642200210120DF
S1133B90FEF754F801BD000080B542F2107000F049
S1133BA0C1F842F21171884204D3104A1921104815
S1133BB0FEF7E7FB0F4800F0B5F842F211718842B6
S1133BC004D30D4A1A210A48FEF7DBFB00234FF405
S1133BD07A5200210020FEF731F800234FF47A5284
S1133BE001210020FEF72AF801BD0000B8460000BC
S1133BF0F83F0000F0D8FFFFD046000070470000F7
S1133C00184A126852F40002164B1A60164A1268D7
S1133C1092089200144B1A60144A12684FF47A7393
S1133C205A43B2FBF1F1491EC0B20201104BD1500C
S1133C30C0B20F4911EB0011C96851F00101C0B2C3
S1133C400B4A12EB0012D160C0B2094911EB00110A
S1133C50896851F00101C0B2054A12EB001081607D
S1133C60704700003C800440007003407055FF1F03
S1133C7000710340F8B504000D0017001E00FFB2E8
S1133C80102F00D30F27E4B2022C0AD11F4800687A
S1133C9050F400601D4908601D484FF480610160C4
S1133CA003E033211B48FEF731FB1848006850F04D
S1133CB00100164908601848002101601748ADB298
S1133CC00560FFB2F80010F0780050F005001449C8
S1133CD00860F6B2012E01D1082000E00020E4B211
S1133CE0210111F03001084350F003000A49086033
S1133CF0F1BD0948006840084000074908600648CB
S1133D00006850F00100044908607047388004409E
S1133D1014B00440A03F0000000004400800044028
S1133D2004000440002848BF4042704780B55A4808
S1133D30006850F00100584908605848584909681B
S1133D400160FFF7D6FFFFF759FF56484068006847
S1133D5090F0010053494968086053480078401CBA
S1133D600D2190FBF1F201FB12004F49087001BDD7
S1133D7010B54E48046872B64C480021016000201A
S1133D80012181402200D2B20A4234D0C0B2484953
S1133D90896811EBC000C06840062CD5454800680E
S1133DA0401C4449086043480078C00723D4424873
S1133DB0008880B2A02804D0404A46214048FEF73B
S1133DC0E0FA40480068A0213F4A01FB00203F4937
S1133DD008603F48006850F010003D4908603948C9
S1133DE00068401C3749086036480068782802D3C8
S1133DF03848012101600120012181402200D2B212
S1133E000A4224D0C0B22A49896811EBC000C068B4
S1133E1040061CD530480068401C2F4908602F48D4
S1133E2024490968016023480021016025480021D4
S1133E3001602B48006850F01000294908601C48B4
S1133E408068C06850F0400019498968C86062B64B
S1133E5010BD000010B572B60020FEF750FC04003F
S1133E60E4B221001F48FEF793FCE4B2732C10D196
S1133E701D480078C00706D51B48007810F0FE00E6
S1133E801949087005E01848007850F001001649F7
S1133E90087062B610BD00000C710340B004FF1F2F
S1133EA00C0004401C04FF1F7555FF1F50800B407D
S1133EB01004FF1F5855FF1F96900040C44800008F
S1133EC0EC3E00005C55FF1FB404FF1F90900040BF
S1133ED00C800040B44FFF1F6055FF1F6455FF1F47
S1133EE024800040044900007455FF1F433A5C5588
S1133EF0736572735C41646D696E69737472617425
S1133F006F725C4465736B746F705CD1EECFF2BEFC
S1133F10FCB5C44B3630C4A3B0E55FD6BBD3D0BB2D
S1133F20F9B1BE494FB2D9D7F75C7372635C707252
S1133F306F6A656374735C53585F64656D6F5C6925
S1133F4073722E6300000000433A5C55736572730C
S1133F505C41646D696E6973747261746F725C4400
S1133F6065736B746F705CD1EECFF2BEFCB5C44B5D
S1133F703630C4A3B0E55FD6BBD3D0BBF9B1BE49DC
S1133F804FB2D9D7F75C7372635C647269766572F9
S1133F90735C6770696F5C6770696F2E6300000003
S1133FA0433A5C55736572735C41646D696E697301
S1133FB0747261746F725C4465736B746F705CD1FE
S1133FC0EECFF2BEFCB5C44B3630C4A3B0E55FD629
S1133FD0BBD3D0BBF9B1BE494FB2D9D7F75C73722A
S1133FE0635C647269766572735C6C70746D725C28
S1133FF06C70746D722E6300433A5C557365727312
S11340005C41646D696E6973747261746F725C444F
S113401065736B746F705CD1EECFF2BEFCB5C44BAC
S11340203630C4A3B0E55FD6BBD3D0BBF9B1BE492B
S11340304FB2D9D7F75C7372635C64726976657248
S1134040735C6D6F746F725C6D6F746F722E63004E
S1134050433A5C55736572735C41646D696E697350
S1134060747261746F725C4465736B746F705CD14D
S1134070EECFF2BEFCB5C44B3630C4A3B0E55FD678
S1134080BBD3D0BBF9B1BE494FB2D9D7F75C737279
S1134090635C647269766572735C46544D5C465425
S11340A04D2E6300433A5C55736572735C41646DD5
S11340B0696E6973747261746F725C4465736B7456
S11340C06F705CD1EECFF2BEFCB5C44B3630C4A3E6
S11340D0B0E55FD6BBD3D0BBF9B1BE494FB2D9D797
S11340E0F75C7372635C647269766572735C646DA9
S11340F0615C646D612E63000080034000900340A6
S113410000800B4000F00F4040F00F4080F00F4063
S1134110C0F00F4000F10F400090044000A00440A4
S113412000B0044000C0044000D004400B1F000055
S11341300009000000A0064000B0064000C0064090
S113414000D0064000A00E4000B00E4070B4104CE9
S113415024680F4D2D6855F47F050D4E3560090612
S113416011F0706151EA0070110511F470010843F7
S1134170190411F47021084306490860002000E086
S1134180401CC0B29842FBD30148046070BC704725
S113419000F0014044800440B6CFD1D4B7A2C9FA9C
S11341A0D4DA2573CEC4BCFEB5C4B5DA2564D0D048
S11341B0A3A10AB6CFD1D4CCF5BCFEB2BBB3C9C15E
S11341C0A2A3ACC7EBBCECB2E2B4EDCEF3D4ADD257
S11341D0F22E0A0A00000000C8E7B9FBB2A6C2EB3F
S11341E0BFAAB9D8BACDC4E3CFA3CDFBB5C4D6B565
S11341F0CAC7B7B4CFE0A3ACB3A2CAD4B0D1BAEAA9
S1134200B6A8D2E52044495056414C20C8A1B7B4C1
S11342100A0000000A0A2A2A2A2A2A2A2A2A2A2AD8
S11342202A2A2A2A2A2A2A2A2A2A2A2A2A2A2A2AEA
S11342302A2A2A2A2A2A2A2A2A2A2A2A2A2A2A2ADA
S11342402A2A2A2A2A2A2A2A2A2A2A2A2A2A0A0014
S11342502A2044657369676E6564204279A3BA7342
S11342606E6F77776F6C662020202020202020201E
S1134270202020202020202020202020202020203A
S1134280202020202020202A0A0000000A45525223
S11342902120496E76616C6964204952512076610F
S11342A06C75652070617373656420746F20656E2E
S11342B061626C65206972712066756E6374696FE2
S11342C06E210A002A20C4DABACBC6B5C2CAA3BA80
S11342D02533644D487A2009D7DCCFDFC6B5C2CA7E
S11342E020A3BA2533644D487A20202020202020A2
S11342F0202020202020202A0A0000002A20666C8A
S11343006578C6B5C2CAA3BA2533644D487A200974
S1134310666C617368C6B5C2CAA3BA2533644D48D6
S11343207A20202020202020202020202020202A25
S11343300A0000002A200909B1B1BEA9D3CAB5E711
S1134340B4F3D1A7204B363020D1A7CFB0C0FDB3F2
S1134350CC20202020202020202020202020202AA3
S11343600A000000536F66747761726520526573AA
S113437065742020202020202020202020202020A0
S11343802020202020202020202020202020202A1F
S11343900A000000436F7265204C6F636B757020D8
S11343A04576656E74205265736574202020202044
S11343B02020202020202020202020202020202AEF
S11343C00A0000004A544147205265736574202056
S11343D020202020202020202020202020202020D9
S11343E02020202020202020202020202020202ABF
S11343F00A000000506F7765722D6F6E205265734E
S1134400657420202020202020202020202020200F
S11344102020202020202020202020202020202A8E
S11344200A00000045787465726E616C2050696EF4
S11344302052657365742020202020202020202015
S11344402020202020202020202020202020202A5E
S11344500A0000005761746368646F6728434F5013
S113446029205265736574202020202020202020DC
S11344702020202020202020202020202020202A2E
S11344800A0000004C6F7373206F6620436C6F63E7
S11344906B2052657365742020202020202020206A
S11344A02020202020202020202020202020202AFE
S11344B00A0000004C6F772D766F6C74616765207D
S11344C044657465637420526573657420202020EC
S11344D02020202020202020202020202020202ACE
S11344E00A0000004C4C5755205265736574202017
S11344F020202020202020202020202020202020B8
S11345002020202020202020202020202020202A9D
S11345100A000000666C617368C6F4B6AF20202000
S11345202020202020202020202020202020202087
S11345302020202020202020202020202020202A6D
S11345400A0000005352414DC6F4B6AF202020208B
S11345502020202020202020202020202020202057
S11345602020202020202020202020202020202A3D
S11345700A0000000A2A2A2A2A64656661756C7496
S11345805F69737220656E7465726564206F6E2056
S1134590766563746F722025642A2A2A2A2A0D0AF2
S11345A00A000000B6CFD1D4B7A2C9FAD4DA257371
S11345B0CEC4BCFEB5C4B5DA2564D0D0A3A10AB676
S11345C0CFD1D4CCF5BCFEB2BBB3C9C1A22E0A0074
S11345D010B5084979441C31074C7C441A34A14273
S11345E006D0081D0A68511888470146A142F8D12F
S11345F010BD00BF08000000140000006FCBFFFFD7
S1134600C8500000B004FF1F000000000AB2C9BC7B
S1134610AFB5BDD2BBB7F9CDBCCFF120D3C3CAB1BE
S1134620A3BA25642075730A0000000025732020B6
S1134630257320202020202020202020202020201E
S113464020202020202020202A0A0000B1B1BEA969
S1134650D3CAB5E7B4F3D1A7C9E3CFF1CDB7D7E94E
S1134660C0FDB3CC0A0000000ACAE4C8EB207320E2
S113467020BFAACABCB2C9BCAFD2BBB7F9CDBCCFAC
S1134680F10A00000AB4A6C0EDD2BBB7F9CDBCCF85
S1134690F120D3C3CAB1A3BA25642075730A0000FC
S11346A0796F75742063686F696365206973203A54
S11346B0204F746865720A00D7EEB4F3D6B5B2BB66
S11346C0C4DCB3ACB9FD50574DBEABB6C8D6B500CB
S11346D0D7EED0A1D6B5B2BBC4DCB3ACB9FD50574C
S11346E04DBEABB6C8D6B50080B503480178C9B293
S11346F00248FEF74DF801BD04ED00E074450000EA
S113470000F009F8002801D0FFF762FF0020FFF74E
S1134710A1F800F002F80120704700F001B8000091
S11347200746384600F002F8FBE7000080B5C046B3
S1134730C046024A11001820ABBEFBE72600020067
S1134740796F75742063686F696365206973203AB3
S113475020300A00796F75742063686F696365207F
S11347606973203A20310A00796F75742063686F89
S1134770696365206973203A20320A00796F757481
S11347802063686F696365206973203A20330A00E7
S1134790796F75742063686F696365206973203A63
S11347A020340A00796F75742063686F696365202B
S11347B06973203A20350A00796F75742063686F35
S11347C0696365206973203A20360A00796F75742D
S11347D02063686F696365206973203A20370A0093
S11347E0796F75742063686F696365206973203A13
S11347F020380A00796F75742063686F69636520D7
S11348006973203A20390A00796F75742063686FE0
S1134810696365206973203A20410A00796F7574D1
S11348202063686F696365206973203A20420A0037
S1134830796F75742063686F696365206973203AC2
S113484020430A00796F75742063686F696365207B
S11348506973203A20440A00796F75742063686F85
S1134860696365206973203A20450A00796F75747D
S11348702063686F696365206973203A20460A00E3
S11348800ABFAACABCB2C9BCAFD2BBB7F9CDBCCFB0
S1134890F10A000046544DC6B5C2CAC5E4D6C3B435
S11348A0EDCEF30046544DCDA8B5C0C9E8D6C3B487
S11348B0EDCEF300B4EDCEF3D4ADD2F23A25730AC3
S11348C00A000000444D41C4A9B4ABCAE4BDE1CA26
S11348D0F80000002A20C6F4B6AFD4ADD2F2A3BAD1
S11348E0000000002A20C6F4B6AFB7BDCABDA3BA03
S11348F0000000002A20D7EEBAF3B8FCD0C2A3BA55
S113490000000000636D64203D20307825580A00C3
S11349100AD0D0A3BA2564200A00000044656320AD
S1134920323220323031330030303A34373A32398F
S113493000000000C046C046C046C046FFF7E0FE87
S90349357E
