S01100006770696F5F64656D6F2E7372656360
S3151FFF0000F8FF00201104FF1F8933FF1F8933FF1FCE
S3151FFF00108933FF1F8933FF1F8933FF1F8933FF1F54
S3151FFF00208933FF1F8933FF1F8933FF1F8933FF1F44
S3151FFF00308933FF1F8933FF1F8933FF1F8933FF1F34
S3151FFF00408933FF1F8933FF1F8933FF1F8933FF1F24
S3151FFF0400FFFFFFFFFFFFFFFFFFFFFFFFFEFFFFFFD9
S3151FFF041062B64FF000004FF000014FF000024FF0A1
S3151FFF042000034FF000044FF000054FF000064FF09A
S3151FFF043000074FF000084FF000094FF0000A4FF07A
S3151FFF0440000B4FF0000C02F0DBF9FEE72DE9F04F32
S3151FFF0450A1B0804617461D46029102AE002070626C
S3151FFF046011AC6FF000490AE017F8011B0298C0474D
S3151FFF04700290002800F07C82706A401C70623878F8
S3151FFF048008B9706A76E22528EED10020F060306148
S3151FFF04907061B061F061306201E040F0010017F852
S3151FFF04A0011F2029F9D023290ED02B2904D02D294E
S3151FFF04B006D030290CD00FE040F0020080B2EEE7E5
S3151FFF04C040F0040080B2EAE740F0080080B2E6E79A
S3151FFF04D040F0100080B2E2E72A290DD129680A1DD4
S3151FFF04E02A600968F162002904D54942F16240F08A
S3151FFF04F0040080B27F1C11E00021F16209E0F16A5E
S3151FFF0500494505D001EB810302EB43013039F16207
S3151FFF05107F1C3A78A2F130010A29F0D339782E29A8
S3151FFF05201CBF4FF0FF31B1621CD117F8011F2A29DB
S3151FFF053006D129680A1D2A600968B1627F1C11E06E
S3151FFF05400021B16209E0B16A494505D001EB81037C
S3151FFF055002EB43013039B1627F1C3A78A2F13001B9
S3151FFF05600A29F0D3308639780FF6E43000F00EFEF5
S3151FFF057008B117F8010B8DF83A009DF83A00682865
S3151FFF058004D1387868280AD1622005E06C2804BF99
S3151FFF059038786C2803D171208DF83A007F1C11A87B
S3151FFF05A0B0603A781046253825D01C3875D0001F05
S3151FFF05B0022872D9133800F09C8009386DD0801E2F
S3151FFF05C000F03781401E00F0DD80401E022864D9EF
S3151FFF05D0001F00F0D780401F34D0401E00F08980D7
S3151FFF05E0401E24D0C01E0CD0801E00F08280C01E6D
S3151FFF05F000F07F8026E1F068411CF160252101553F
S3151FFF06002AE12868011D296000687060B26A002A06
S3151FFF061003D500F0CBFD30611EE1002100F0E2FDA6
S3151FFF062000281ABF7168401AB06A306114E1286842
S3151FFF0630011D296000680021CDE9000111A8706026
S3151FFF06407821F2E09DF83A00622818D0682806D074
S3151FFF06506A280BD06C2819D0712807D016E0286896
S3151FFF0660011D2960716A00680180F5E02A68101D67
S3151FFF06702860706AC1171268C2E90001ECE028689A
S3151FFF0680011D2960716A00680170E5E02868011D78
S3151FFF06902960716A00680160DEE02868C01D20F0CE
S3151FFF06A007002860034603F108002860D3E900010D
S3151FFF06B0CDE90001002904D5F068411CF1602D2109
S3151FFF06C00DE0308E810704D5F068411CF1602B21A8
S3151FFF06D005E0C00704D5F068411CF16020210155D4
S3151FFF06E0F06811A940187060114600A800F0D8F9EC
S3151FFF06F0B2E09DF83A306C2B08BF286811D0712BDA
S3151FFF070008BF286802D06A2B28680AD1C01D20F0AF
S3151FFF07100700286084460CF108002860DCE9000109
S3151FFF072003E0011D296000680021CDE90001682B48
S3151FFF073004BFDDE9000180B20BD0622B04BFDDE9E8
S3151FFF07400001C0B205D0742B18BF7A2B04D1DDE987
S3151FFF075000010021CDE9000196F8300000075FD5A3
S3151FFF0760DDE90001002908BF002859D042F020000B
S3151FFF0770782855D1F06830210155401C411CF16086
S3151FFF078002554DE09DF83A0062280CD0682810D01C
S3151FFF07906A281AD06C2824D0712816D0742820D026
S3151FFF07A07A280CD01DE02868011D296090F90000EA
S3151FFF07B01BE02868011D2960B0F9000015E02868B5
S3151FFF07C0011D29600068002110E02868C01D20F068
S3151FFF07D007002860034603F108002860D3E90001DC
S3151FFF07E004E02868011D29600068C117CDE90001D3
S3151FFF07F0DDE90001002904DAF068411CF1602D21B3
S3151FFF08000DE0308E810704D5F068411CF1602B2166
S3151FFF081005E0C00704D5F068411CF1602021015592
S3151FFF0820F06811A940187060114600A800F0A5F8DE
S3151FFF083012E0F068411CF16029680A1D2A600968E9
S3151FFF0840015509E0F068411CF160252101551AB1D8
S3151FFF0850F068411CF16002557F1CF06AF168401A6F
S3151FFF0860B169401A3169401AF169401A7169401A14
S3151FFF0870316AA0EB010A96F83000400711D42020F9
S3151FFF08808DF84000BAF1010F0BDBD346012310AAE7
S3151FFF089000A9404600F044FC002869D1BBF1010BBB
S3151FFF08A0F4D1F36811AA00A9404600F039FC0028CD
S3151FFF08B05ED130208DF84000D6F818B0BBF1010F7E
S3151FFF08C00ADB012310AA00A9404600F029FC0028D5
S3151FFF08D04ED1BBF1010BF4D13369726800A94046B3
S3151FFF08E000F01EFC002843D130208DF84000D6F8BB
S3151FFF08F01CB0BBF1010F09DB012310AA00A940465B
S3151FFF090000F00EFCA0BBBBF1010BF5D1736930697B
S3151FFF09107168421800A9404600F002FC40BB302018
S3151FFF09208DF84000D6F820B0BBF1010F09DB01237C
S3151FFF093010AA00A9404600F0F3FBC8B9BBF1010B93
S3151FFF0940F5D196F8300040077FF599AD20208DF839
S3151FFF09504000BAF1010FFFF692AD012310AA00A9BD
S3151FFF0960404600F0DDFB18B9BAF1010AF5D186E55D
S3151FFF09704FF0FF3021B0BDE8F08F2DE9FA4B86B05F
S3151FFF098005462F696F2908BF082605D041F02000AD
S3151FFF0990782814BF0A2610263C24D5E90001814674
S3151FFF09A08B469DF81820642A18BF692A05D100298E
S3151FFF09B003DAD9F100096BEB4B0BBBF1000F08BF35
S3151FFF09C0B9F1000F0CD1286B50B9082E44D195F8F9
S3151FFF09D03800000740D53B24302087F83B003BE01B
S3151FFF09E0A4F101084446F017CDE90460484659466D
S3151FFF09F0DDE9042300F022FCCDE90201CDE9009BCE
S3151FFF0A00DDE90223DDE90401A0FB029BDDE900010D
S3151FFF0A10A0EB09003030C0B23A2803D39DF8181057
S3151FFF0A205139081808F80700DDE9029BBBF1000FD3
S3151FFF0A3008BFB9F1000F03D0E868E1198842CFD389
S3151FFF0A40082E09D195F83800000705D5E05D302837
S3151FFF0A5002D0641E3020E055C4F13C00A861E119A5
S3151FFF0A60E960296B884207DA081A2862288F4FF632
S3151FFF0A70EF710840288710E000290ED595F838102A
S3151FFF0A8001F01401102908D1696B6A69891A2A6A4C
S3151FFF0A90891A0C1A012CA8BF2C6208B0BDE8F08B6F
S3151FFF0AA02DE9F24F8EB0054604AFD5E90001CDE91A
S3151FFF0AB002019DF8380040F020008DF800006128E4
S3151FFF0AC00BD0286B002848BF062005D404BF9DF80E
S3151FFF0AD00000672801D1012028636968C1F30A5006
S3151FFF0AE040F2FF7398421CD1080304BF28680028F1
S3151FFF0AF009D10320A8619DF8380061381A2837D31A
S3151FFF0B000FF2606108E00320A8619DF83800613885
S3151FFF0B101A282AD30FF244610322E86800F006FC65
S3151FFF0B20BBE1010017D1284600F03BFC012812DB71
S3151FFF0B30002400209DF80010612920D1E96830228A
S3151FFF0B4001F8012B4A1CEA609DF83820612A0CBF69
S3151FFF0B50782258220FE040F2FE316A6861F31E5277
S3151FFF0B606A60441A4FF0FF30E4E70FF2EC51D3E708
S3151FFF0B700FF2EC51D0E70A706969891C696110B9D8
S3151FFF0B800026B0467FE19DF80000612840F0978060
S3151FFF0B90286B00284CBF2126461C36B2771CD5E989
S3151FFF0BA000ABDDE902010022002300F01DFC3ABF66
S3151FFF0BB08BF00040CDE902A0CDE902ABA4F10408FA
S3151FFF0BC08DF810200DF11109012F33DBDDE902012D
S3151FFF0BD00022002300F020FC2CD21C2102A800F0CB
S3151FFF0BE033FCDDE9020100F0BDFC0446FF1F012FA8
S3151FFF0BF009DB00F0E3FC02460B46DDE9020100F0CC
S3151FFF0C00F5FCCDE9020109F20700072104E004F014
S3151FFF0C100F0200F8012D2411012C01DB491EF6D509
S3151FFF0C20491E5CBF002200F8012DF9D500F2070906
S3151FFF0C30012FCBDA0DF11100A9EB00010DF1110701
S3151FFF0C40B142B8BF0E4636B2002E31D43046884267
S3151FFF0C5006DA04A941184978082928BF0F2100D2AF
S3151FFF0C60002104AA821800E0761E401E12F80139E1
S3151FFF0C708B42F9D00F2904D104A941184A78521C77
S3151FFF0C804A70002803D504AF761C08F1040836B254
S3151FFF0C90701E0DD4C1190A783032D2B23A2A03D345
S3151FFF0CA09DF838303A3B9A1801F80129401EF2D5B4
S3151FFF0CB0286B002840F1E780701E2863E3E0DDE91B
S3151FFF0CC002010022002300F08FFB05D2DDE902019E
S3151FFF0CD081F00041CDE9020124B247F297506043EC
S3151FFF0CE06F4990FBF1F80FFA88F8C8F10704002740
S3151FFF0CF0DFF8B091012C19DBDDE902ABE00707D561
S3151FFF0D00504659463A464B4600F030FD82468B46C3
S3151FFF0D106410384649463A464B4600F027FD0746BC
S3151FFF0D208946002CEAD1CDE902AB21E06442924607
S3151FFF0D30DFF874B114D0E00707D5504659463A4637
S3151FFF0D404B4600F013FD82468B46641038464946D4
S3151FFF0D503A464B4600F00AFD07468946002CEAD164
S3151FFF0D60DDE9020152465B4600F0D2FDCDE90201E5
S3151FFF0D709DF8000066280CBF08F10A000620296BA4
S3151FFF0D804618142EA8BF132630208DF810000DF11C
S3151FFF0D901104464F012E33DBDDE9020100F0F8FB9C
S3151FFF0DA004F1080104220A24B0FBF4F303EB830EBC
S3151FFF0DB0A0EB4E00303001F8010DB3FBF4F000EB52
S3151FFF0DC08004A3EB4403303301F8013D521EEAD1E1
S3151FFF0DD001F10804083E012EDCDBDDE9020100F00C
S3151FFF0DE0D7FB00F0F5FB02460B46DDE9020100F0DB
S3151FFF0DF0FDFB00223B4600F0B9FCCDE90201CBE724
S3151FFF0E000DF11100201A0DF111079DF81110302950
S3151FFF0E1006D1401EA8F1010817F8011F3029F8D087
S3151FFF0E209DF80010662904BF0FFA88F808F1010123
S3151FFF0E3003D065290CBF012100212A6B8E1836B2FC
S3151FFF0E40B042B8BF064636B2002E1CD43146814289
S3151FFF0E5004DAC85D352828BF392000D23020CA19C9
S3151FFF0E60521E00E0761E491E12F801398342F9D041
S3151FFF0E70392802D1C85D401CC855002903D57F1EDE
S3151FFF0E80761C08F101080FFA88F0009033B23A4634
S3151FFF0E909DF83810284600F00BF80FB0BDE8F08F0D
S3151FFF0EA0A0860100000024400000F03F84D7974131
S3151FFF0EB02DE9F04385B00546894617461E46BDF9FF
S3151FFF0EC03040D5F83080012E02DA01260FF298271F
S3151FFF0ED049F0200066280AD0672840F086806FF009
S3151FFF0EE003018C42C0F28780444580F28480641CD4
S3151FFF0EF066280CD095F83800000702D44645B8BFC0
S3151FFF0F00B04624B2B8EB040848BF4FF00008E868A4
S3151FFF0F10A96924B2012C25DA4A1C30230B54B8F1D8
S3151FFF0F20010F03DA95F83810090702D52E21115440
S3151FFF0F30521CAA6118EB040FB8BFC8F1000424B2F4
S3151FFF0F4061426962A044B045B8BF464636B2EE61FC
S3151FFF0F5032463946AB69181800F0E8F9A8EB0600C8
S3151FFF0F60A862C6E00818A64218DA3246394600F0CC
S3151FFF0F70DDF9A9697118A961A01B6862B8F1010F94
S3151FFF0F8003DA95F83800000705D5E8682E220A54BC
S3151FFF0F90E869401CE861C5F82880AAE02246394661
S3151FFF0FA000F0C4F9A8692018A861361BB8F1010F14
S3151FFF0FB003DA95F83810090704D5411CA961E968BA
S3151FFF0FC02E22425436B2B045B8BF464636B23246D7
S3151FFF0FD0E119A869EB68C01800F0A8F9A8693018CD
S3151FFF0FE0A861A8EB0600686283E0B9F1610F16D10D
S3151FFF0FF04FF0700918E0464504DA95F838100907CF
S3151FFF100058BFB046B8F1010848BF4FF00008B9F105
S3151FFF1010670F14BF4FF045094FF0650904E0B9F19B
S3151FFF1020410F08BF4FF05009A9694A1CE86817F816
S3151FFF1030013B0B54B8F1010F03DA95F83810090776
S3151FFF104002D52E211154521CAA61B8F1010F11DBD3
S3151FFF1050761E36B2B045B8BF464636B23246394619
S3151FFF1060AB69181800F062F9A8693018A861A8EBD8
S3151FFF107006006862A869E968471807F8019B002CF4
S3151FFF10805CBF2B2007F8010B03D52D2007F8010B9B
S3151FFF1090644200260DF1080824B2012C0EDB0A223A
S3151FFF10A0214600A800F057FD019808F8010B009C88
S3151FFF10B0761C24B2012CF2DA022E06DA49F0200042
S3151FFF10C0652804BF302007F8010B1EB9302007F82B
S3151FFF10D0010B09E0012E07DB761E02A8305C3030BC
S3151FFF10E007F8010B012EF7DAA869E9684018381AC5
S3151FFF10F0E86195F8380000F0140010280DD16869D3
S3151FFF1100A9690818696A0818E9690818A96A0818F1
S3151FFF1110696B8842BCBF081A286205B0BDE8F08319
S3151FFF1120F8B504460D4616461F46002077B116F83A
S3151FFF1130011BA868A047A86030B1E86A401CE86297
S3151FFF114000207F1EF3D1F2BD4FF0FF30F2BD00002E
S3151FFF1150686A6C747A4C00006E616E004E414E00D9
S3151FFF1160696E6600494E4600300050F8041B61B198
S3151FFF117050F8042BD30744BFA9F101039A18002384
S3151FFF118042F8043B091FFAD1EFE770470278C9B24D
S3151FFF11908A421AB11CBF10F8012FF9E718BF0020AA
S3151FFF11A070470268531C03601170704700F10103FB
S3151FFF11B0810704D010F8011B89B18107FAD1026894
S3151FFF11C0B2F10131914311F0803F04BF50F8042F54
S3151FFF11D0F6E710F8011B11B110F8011BFBE7C01A48
S3151FFF11E070470000C9B2830706D0521E22D310F8DC
S3151FFF11F0013B9942F7D11FE0083A13D302F10402CC
S3151FFF120041EA012141EA014150F8043B121F21BF68
S3151FFF12104B40A3F1013C2CEA030C1CF0803FF3D09B
S3151FFF1220C9B2001F083210F8013B521E28BF91EAB0
S3151FFF1230030FF8D818BF0120401E70471B4213D15A
S3151FFF1240094236D12AB18446B0FBF2F002FB10C227
S3151FFF1250704700F087BCFCD30022002370470B00AA
S3151FFF12600200002100207047904271EB030CF6D35A
S3151FFF127070B5B1FA81F4B3FA83F52C1BA340C4F101
S3151FFF1280200532FA05F63343A2405FF00046E640DB
S3151FFF129002E05B085FEA3202841A71EB030524BF83
S3151FFF12A0204629467641F4D302000B003000002169
S3151FFF12B070BD012ACFD970B5140C20D0B1FA81F4B5
S3151FFF12C0B2FA82F5C4F120046419B4F12006D6D30D
S3151FFF12D0B2405FF00044F440002502E052085FEA87
S3151FFF12E03303C61A71EB020E24BF304671466441A3
S3151FFF12F06D41F3D302000B002000290070BD0C4681
S3151FFF1300B1FBF2F102FB11452D0445EA1045B5FB72
S3151FFF1310F2F402FB145580B240EA0545B5FBF2F025
S3151FFF132002FB105240EA044070BD000062B38B07F8
S3151FFF133008D0521E11F8013B00F8013B00F0248034
S3151FFF13408B07F6D1830740F0208000BF103A07D3E3
S3151FFF135030B4B1E83810103AA0E83810F9D230BCD3
S3151FFF1360530724BFB1E80810A0E8081044BF51F87F
S3151FFF1370043B40F8043BD20724BF31F8022B20F869
S3151FFF1380022B44BF0B7803707047083A07D3B1E8A7
S3151FFF13900810083A40F8043B40F804CBF7D253072E
S3151FFF13A0E4E730B4416801F00042012143681B03A3
S3151FFF13B01B0B436004BF0368002B0ED003684468F2
S3151FFF13C0DD0F45EA440444605B000360491EE302E8
S3151FFF13D0F4D543681B031B0B436043681A434260E4
S3151FFF13E0084630BC704700004FF4001C1CEB410F32
S3151FFF13F094BF1CEB430F09E041EA030C50EA4C0C68
S3151FFF140052EA0C0C03D2994208BF9042704714BF91
S3151FFF14108B428242704700004FF4001C1CEB410FAA
S3151FFF142094BF1CEB430F09E041EA030C50EA4C0C37
S3151FFF143052EA0C0C03D28B4208BF8242704714BF7D
S3151FFF1440994290427047000070B504460D4660688A
S3151FFF1450C0F30A5040F2FF72904207D16068000343
S3151FFF146004BF2068002818D0022070BD010004D1D8
S3151FFF14702046FFF796FF012867DA012D0FDB40F2A3
S3151FFF1480FF71091A8D420AD36068002847BF0020E3
S3151FFF14902F4900202F49C4E90001012070BD414299
S3151FFF14A0A942616806DA2C4A1140401941EA0050E9
S3151FFF14B0606053E001F0004162681203120B42F4B1
S3151FFF14C080126260401E451905F13500352803D38A
S3151FFF14D061600020206070BD002215F11F0F05DA25
S3151FFF14E0203522686068206000206060684213D044
S3151FFF14F0521E9241D243C0F1200325689D4055EAF3
S3151FFF1500D2722568C540666806FA03F32B4323602C
S3151FFF1510636823FA00F06060606808436060B2F199
S3151FFF1520004F03D80BD12078C00708D52068401C71
S3151FFF15302060206818B96068401C60600EE0606814
S3151FFF1540884204BF20680028F8D1002070BD000024
S3151FFF15500000F0FF0000F07FFFFF0F804FF0FF300E
S3151FFF156070BD0000F446400D40EAC120490006D277
S3151FFF157000F014F8004248BF6FF00040604700F0CC
S3151FFF15800DF84FF0004188428CBF08464042604726
S3151FFF1590400D40EAC120490080F00D8040F0004019
S3151FFF15A0490DA1F58061491C05D4D1F11F0154BF17
S3151FFF15B0C840C01770474FF000007047010040F149
S3151FFF15C00980F446404200F005F851F0004160479C
S3151FFF15D0010000BF09D0B0FA80F18840C91CC1F5D0
S3151FFF15E08461090501EBD0214005704770B44FF0A8
S3151FFF15F0004591EA030F44BF6B4000F0B5BA00BF29
S3151FFF1600841A71EB030604D26E40001BB1411219F7
S3151FFF161073414FF4001C1CEB410F34BF7CEB430699
S3151FFF162084E00C0DA4EB1356362E7DDC012E43DC16
S3151FFF163045EAC32343EA525312BFD20292025B0803
S3151FFF1640240545EAC12141EA5051D2EBC0209941F9
S3151FFF165025D407D1B0FA80F610FA06F164D0002020
S3151FFF1660203608E0B1FA81F6B140C6F1200220FA12
S3151FFF167002F21143B0404FEAF474B4EB465434F010
S3151FFF168001064FEA74040AD8D6F50016760D04F044
S3151FFF16900044F04061FA06F25040F1404840C00A4C
S3151FFF16A040EA415021F0004128BF5FEA500550F143
S3151FFF16B0000044EBD12137E045EAC323DB0A45EAA5
S3151FFF16C0C121C90AB6F120050EDD42EA0242120CFC
S3151FFF16D0C5F1200603FA06F6EB4042EA06056D4200
S3151FFF16E0984161F100010DE062FA06F5F24055409F
S3151FFF16F063FA06FC82EA0C02F3405A406D429041A0
S3151FFF170061EB030111F4801F05D1641E620502D030
S3151FFF17106D004041494121F48011430875F1004393
S3151FFF172050F1000041EB045170BC70471CEB410F99
S3151FFF173015D223F0004352EA43060BD04FEA4C0C57
S3151FFF1740BCEB410F04D80C0D661E342EB7DDEBE73D
S3151FFF1750801A994150EA410608BF0021E4E708BFF6
S3151FFF17601CEB430F28BF6FF00001DDE7B0B581EA21
S3151FFF1770030C0CF0004C40F2FF7515EA11541DBF08
S3151FFF178015EA1357AC42AF4239E0E41923EA455332
S3151FFF179043F48013C90241F0004141EA505EC7027C
S3151FFF17A01100A7FB020200284FF00000EEFB0120ED
S3151FFF17B04FF00001E3FB072118BF42F0010240185B
S3151FFF17C000214941E3FB0E01A4F580640F0302D2FA
S3151FFF17D052004041494154F101046CDD470872F143
S3151FFF17E0004250F1000051EB0451A1F580115CBF7F
S3151FFF17F041EA0C01B0BD4CEA05510020B0BD05EA18
S3151FFF18001357AC4214BFAF4241E050EA410E1CBF13
S3151FFF181052EA430E02E061460020B0BD24423C441B
S3151FFF18201BD15FEA070EF6D0090302BF0146002050
S3151FFF1830AEF1140EB1FA81F7AEEB070401FA07FEFC
S3151FFF18400C37C7F1200100FA07F7C8404EEA000E12
S3151FFF185023EA455343F48013A2E733F00043B3FA59
S3151FFF186083F704BFB2FA82FE77440B3FE41BB7F13F
S3151FFF1870200E2FBF02FA0EF3BB40C7F1200E22FA2E
S3151FFF18800EFE38BF43EA0E03BA40641C82E750EAD6
S3151FFF1890410E14BF52EA430E6FF000014FF40017BB
S3151FFF18A017EB430F8ABF194617EB410FB5E74CEAF4
S3151FFF18B005510020B0BDD4F10104B4F120070FDAA2
S3151FFF18C0C4F12007520828BF42F0010210FA07F59C
S3151FFF18D001FA07F7E1BF2A43E0403843E1400FE033
S3151FFF18E0352C98DCC7F1200452EA400220FA07F292
S3151FFF18F018BF42F0010231FA07F0A1400A43002147
S3151FFF190072F1004250F1000051EB0C01B0BD000017
S3151FFF1910F0B540F2FF7581EA030C0CF0004C15EA97
S3151FFF192011541DBF15EA1357AC42AF42E5E0BC4148
S3151FFF1930C1F31301C3F31303801A994143F48013B1
S3151FFF194004D2641E4000494180185941C90241EA29
S3151FFF19505051B1FBF3F603FB1611A2FB0675D7EB2E
S3151FFF1960C020A94102D2761E80185941C90241EAF9
S3151FFF19705051B1FBF3FE03FB1E11A2FB0E75D7EBF6
S3151FFF1980C020A94103D2AEF1010E80185941890229
S3151FFF199041EA9051760546EA8E2EB1FBF3F603FB1D
S3151FFF19A01611A2FB0675D7EB8020A94102D2761E20
S3151FFF19B080185941C90241EA50514EEA060EB1FB42
S3151FFF19C0F3F603FB1611A2FB0675D7EBC020A94141
S3151FFF19D002D2761E80185941C90241EA5051B1FB06
S3151FFF19E0F3F703FB1711A2FB0735D3EBC020A94162
S3151FFF19F067F100070CBF004247F0010766F3D527C3
S3151FFF1A004FEA1E31B80814F5806412DDBD0775F164
S3151FFF1A10004250EB0E5051EB045111F5801F5CBF76
S3151FFF1A2041EA0C01F0BD4CF07F6141F0E04100201F
S3151FFF1A30F0BDBD076D0840EA0E5041F48011D4F189
S3151FFF1A400104B4F120060ADAC4F120060200E040C1
S3151FFF1A5001FA06F3E1401843B24015430EE0342C5A
S3151FFF1A6013DCC6F1200445EA40056D0820FA06F28D
S3151FFF1A70154321FA06F0A1400D43002175F10042DF
S3151FFF1A8050F1000051EB0C01F0BD00205FEA0C0185
S3151FFF1A90F0BDCFB992185B41B3FA83F704BFB2FA11
S3151FFF1AA082F6BF190B3FB7F120062FBF02FA06F3C7
S3151FFF1AB0BB40C7F1200622FA06F638BF3343BA40AA
S3151FFF1AC01CB1E419641E33E77F4231F00041B1FABE
S3151FFF1AD081F404BFB0FA80F6A4190B3CB4F12006BB
S3151FFF1AE02FBF00FA06F1A140C4F1200620FA06F621
S3151FFF1AF038BF3143A0403C1B1AE7AC421ABF05EA69
S3151FFF1B001357AF4212E050EA41061CBF52EA430683
S3151FFF1B10BFE750EA4107304661461CBF41EA055100
S3151FFF1B20F0BD52EA430C08BFC143F0BD00204FF47E
S3151FFF1B30001616EB410F98BF16EB430F08BF16EBA8
S3151FFF1B40410F24BFC14305E016EB430F0CBF614690
S3151FFF1B504CEA0551F0BD91FBF2F303FB1211C0E9ED
S3151FFF1B600031704770470000841A71EB030603D2DA
S3151FFF1B70001BB141121973414FF4001C1CEB410F9F
S3151FFF1B8034BF7CEB430443E00C0DA4EB1356352EF9
S3151FFF1B9050DC45EAC323DB0A45EAC121C912B6F168
S3151FFF1BA020050DDD63FA05F6EB4086EA03051242B3
S3151FFF1BB018BF45F00105C01851F100010CD213E003
S3151FFF1BC062FA06F5F2405540F3415A40B340F340DF
S3151FFF1BD05A408018594107D349085FEA30005FEA28
S3151FFF1BE0350528BF45F0010501F58011420875F13E
S3151FFF1BF0004250F1000041EB045170BC4FF4001C32
S3151FFF1C001CEB410F38BF70470020090D09057047B0
S3151FFF1C101CEB410F10D252EA43060BD0BCEB410F10
S3151FFF1C2005D80C0DAB43661E342EB5DD02E0AB4364
S3151FFF1C308018594170BC704770BC7047C04909680E
S3151FFF1C404CF25132914201D2002107E0BC4909688B
S3151FFF1C50BC4A914201D2012100E00221C0B20028F5
S3151FFF1C600ED1B94A126852F04002B74B1A60B74AF3
S3151FFF1C704FF400731360B64A4FF4007313600DE001
S3151FFF1C80B14A126852F08002AF4B1A60B14A4FF445
S3151FFF1C9000731360B04A4FF400731360C0B2AF4AAC
S3151FFF1CA052F82020890151F017015170C0B2AB497C
S3151FFF1CB051F8200080218170704752EA4101C0B25E
S3151FFF1CC0A64A52F82020927852F01002C0B2A34BB8
S3151FFF1CD053F820309A70C0B2A04A52F8202092784B
S3151FFF1CE052F02002C0B29D4B53F820309A70C0B2FB
S3151FFF1CF09A4A52F82000017170470000012001E047
S3151FFF1D0000BF401C80B296490968B0EB510FF7D34D
S3151FFF1D10704770B504000D00160000222900C9B2D6
S3151FFF1D202000C0B2FFF7C9FFE4B28C4850F8240069
S3151FFF1D30C0788007F8D5E4B2884850F82400C078E9
S3151FFF1D4050F00200E4B2854951F82410C870E4B27E
S3151FFF1D50824850F824000671E4B2804850F82400E8
S3151FFF1D60C0788007F8D5E4B27C4850F82400C078C5
S3151FFF1D7050F00200E4B2794951F82410C870E4B25A
S3151FFF1D80764850F82400807850F00400E4B2734977
S3151FFF1D9051F824108870E4B2704850F82400690087
S3151FFF1DA051F001010171E4B26C4850F82400C0786C
S3151FFF1DB08007F8D5E4B2694850F82400C07850F080
S3151FFF1DC00200E4B2654951F82410C870E4B26348B3
S3151FFF1DD050F82400807810F0EF00E4B25F4951F805
S3151FFF1DE024108870E4B25D4850F82400807850F0C4
S3151FFF1DF00800E4B2594951F824108870E4B25748D5
S3151FFF1E0050F824000579E4B2544850F82400C078EE
S3151FFF1E108007F8D5E4B2514850F82400C07850F037
S3151FFF1E200200E4B24D4951F82410C870E4B24B4882
S3151FFF1E3050F82400807810F0DF00E4B2474951F8CC
S3151FFF1E4024108870E4B2454850F82400807810F0BB
S3151FFF1E50EF00E4B2414951F824108870E4B23F48BD
S3151FFF1E6050F824000579FFF749FF2800C0B270BD5F
S3151FFF1E7070B5040015001E000022C9B22000C0B2B3
S3151FFF1E80FFF71BFFE4B2354850F82400C0788007E0
S3151FFF1E90F8D5E4B2314850F82400C07850F002005C
S3151FFF1EA0E4B22E4951F82410C870E4B22B4850F8FB
S3151FFF1EB024000571E4B2294850F82400C078800732
S3151FFF1EC0F8D5E4B2254850F82400C07850F0020038
S3151FFF1ED0E4B2224951F82410C870E4B21F4850F8E3
S3151FFF1EE024000671E4B21D4850F82400C07880070D
S3151FFF1EF0F8D5E4B2194850F82400C07850F0020014
S3151FFF1F00E4B2164951F82410C870E4B2134850F8CA
S3151FFF1F102400807810F0DF00E4B2104951F8241036
S3151FFF1F208870E4B20D4850F82400807810F0EF0057
S3151FFF1F30E4B20A4951F824108870FFF7DFFE70BD1F
S3151FFF1F401435FF1FA18601003480044000A0044002
S3151FFF1F5004A0044028B004402CB004409834FF1F4F
S3151FFF1F601035FF1F10B500240120FFF767FE102352
S3151FFF1F702A221C210120FFF77BFF0A2000F07BF995
S3151FFF1F8000230E221C210120FFF772FF0A2000F0FB
S3151FFF1F9072F901232A221C210120FFF769FF0A205C
S3151FFF1FA000F069F90D221C210120FFF7B2FE040084
S3151FFF1FB00A2000F060F9E4B21A2C05D0E4B22A2CED
S3151FFF1FC002D0E4B23A2C03D1034800F051FA02E0E3
S3151FFF1FD0024800F04DFA10BDF433FF1FE033FF1F19
S3151FFF1FE070B50400002500260020060007E0012229
S3151FFF1FF01C210120FFF78DFE55FA80F5761CF6B2E0
S3151FFF2000E4B2A642F3D3ADB2E4B295FBF4F52800D2
S3151FFF2010C0B270BDF8B504000026002500270020BA
S3151FFF202000210D0014E001221C210120FFF771FE84
S3151FFF2030070002221C210120FFF76BFEBFB280B2F1
S3151FFF2040C0B250EA072080118005800D86196D1CCE
S3151FFF2050EDB2E4B2A542E6D3E4B2B6FBF4F6300026
S3151FFF206080B2F2BDF8B50400002600250027002028
S3151FFF207000210D0014E001221C210120FFF749FE5C
S3151FFF2080070002221C210120FFF743FEBFB280B2C9
S3151FFF2090C0B250EA072000110005000D86196D1CFE
S3151FFF20A0EDB2E4B2A542E6D3E4B2B6FBF4F63000D6
S3151FFF20B080B2F2BD70B50400002500260020060081
S3151FFF20C007E003221C210120FFF723FE55FA80F5A7
S3151FFF20D0761CF6B2E4B2A642F3D3ADB2E4B295FBD9
S3151FFF20E0F4F52800C0B270BDF8B504000026002520
S3151FFF20F00027002000210D0014E003221C210120D0
S3151FFF2100FFF707FE070004221C210120FFF701FE30
S3151FFF2110BFB280B2C0B250EA072080118005800D82
S3151FFF212086196D1CEDB2E4B2A542E6D3E4B2B6FB47
S3151FFF2130F4F6300080B2F2BDF8B504000026002584
S3151FFF21400027002000210D0014E003221C2101207F
S3151FFF2150FFF7DFFD070004221C210120FFF7D9FD32
S3151FFF2160BFB280B2C0B250EA072000110005000DB2
S3151FFF217086196D1CEDB2E4B2A542E6D3E4B2B6FBF7
S3151FFF2180F4F6300080B2F2BD70B5040000250026BC
S3151FFF21900020060007E005221C210120FFF7B9FDDD
S3151FFF21A055FA80F5761CF6B2E4B2A642F3D3ADB26A
S3151FFF21B0E4B295FBF4F52800C0B270BDF8B5040074
S3151FFF21C0002600250027002000210D0014E0052210
S3151FFF21D01C210120FFF79DFD070006221C21012060
S3151FFF21E0FFF797FDBFB280B2C0B250EA072080113A
S3151FFF21F08005800D86196D1CEDB2E4B2A542E6D3AC
S3151FFF2200E4B2B6FBF4F6300080B2F2BDF8B50400B7
S3151FFF2210002600250027002000210D0014E00522BF
S3151FFF22201C210120FFF775FD070006221C21012037
S3151FFF2230FFF76FFDBFB280B2C0B250EA0720001191
S3151FFF22400005000D86196D1CEDB2E4B2A542E6D35B
S3151FFF2250E4B2B6FBF4F6300080B2F2BD002103E014
S3151FFF2260521E002AFCD1491C814203D2084A12681A
S3151FFF22709208F6E77047002103E0521E002AFCD1A1
S3151FFF2280491C814203D2034A12689208F6E7704738
S3151FFF22900C35FF1F1035FF1F30B4C0B2002806D004
S3151FFF22A0022825D015D3042840D030D34DE0DFF8C0
S3151FFF22B0FC214FF440731360DFF8F4214FF4407392
S3151FFF22C01360DFF8F021126852F48062794B1A60AF
S3151FFF22D03BE0794A4FF440731360784A4FF44073DB
S3151FFF22E01360744A126852F40062724B1A602CE034
S3151FFF22F0734A4FF440731360724A4FF4407313606F
S3151FFF23006C4A126852F480526A4B1A601DE06E4A7D
S3151FFF23104FF4407313606D4A4FF440731360654A61
S3151FFF2320126852F40052634B1A600EE0684A4FF46C
S3151FFF233040731360674A4FF440731360664A12680F
S3151FFF234052F48062644B1A60FFE7C0B2634A52F8C9
S3151FFF23502020D27812F0F302C0B2604B53F8203020
S3151FFF2360DA70C0B25D4A52F8202000239370C0B2C4
S3151FFF2370002808D00022C0B2012804D052F0000264
S3151FFF2380D2B2002A05D0564A12684FF47A735A43BF
S3151FFF239004E0544A12684FF47A735A430B01B2FB97
S3151FFF23A0F3F3C0B24D4C54F82040247814F0E004E8
S3151FFF23B09BB21D0A15F01F052C43C0B2474D55F89A
S3151FFF23C020502C70C0B2454C54F820406370520108
S3151FFF23D00901B2FBF1F19BB2B1EB4311C0B23F4A08
S3151FFF23E052F82020927A12F0E004C0B23B4A52F80C
S3151FFF23F0202011F01F0121439172C0B2374951F8B6
S3151FFF24002010C97851F00C01C0B2344A52F820008F
S3151FFF2410C17030BC7047C0B2304A52F820201279C3
S3151FFF24201206F8D5C0B22D4A52F82000C171704767
S3151FFF243038B504000D00EDB20A2D04D10D21200081
S3151FFF2440C0B2FFF7E8FF2900C9B22000C0B2FFF7ED
S3151FFF2450E2FF31BD38B504000D0005E029782000E5
S3151FFF2460C0B2FFF7E5FF6D1C28780028F6D131BDF6
S3151FFF24700EB400B5C0B041AA010000A800F034F8A1
S3151FFF248000A90020FFF7E6FF40B05DF810FB0EB472
S3151FFF249000B5C0B041AA010000A800F025F800A9A9
S3151FFF24A00020FFF7D7FF40B05DF810FB40A00440A8
S3151FFF24B044A00440348004400CB0044010B00440D4
S3151FFF24C00CC0044008C0044040B0044044B0044060
S3151FFF24D064D0044060D0044028800440A834FF1F06
S3151FFF24E00C35FF1F1435FF1F16B50446009401ABAD
S3151FFF24F00A4600A9064878441630FDF7A7FF00993C
S3151FFF250000220A7000285CBF0098001B16BD00BF83
S3151FFF251093ECFFFF10B5C0B2002800F00581C0B2D3
S3151FFF2520010030291ED032292CD0602931D06429D1
S3151FFF253036D06E293BD0782940D07D2945D08229B8
S3151FFF25404AD08C294FD0962954D0A02959D0AA29D1
S3151FFF25505ED0B42963D0C82968D0E1296DD0FA2986
S3151FFF256072D078E09E4918220A709D4900224A7050
S3151FFF25709B4900228A70C0B2332870D29849002225
S3151FFF2580CA7084E0964918220A70954901224A703B
S3151FFF2590EEE7934918220A70914918224A70E7E716
S3151FFF25A08F4918220A708E491A224A70E0E78C4912
S3151FFF25B018220A708A491F224A70D9E788491322AF
S3151FFF25C00A70874918224A70D2E7854913220A7073
S3151FFF25D083491A224A70CBE7814913220A70804921
S3151FFF25E01C224A70C4E77E490E220A707C491222BA
S3151FFF25F04A70BDE77A490E220A70794915224A7039
S3151FFF2600B6E777490E220A70754918224A70AFE757
S3151FFF261073490E220A7072491B224A70A8E7704936
S3151FFF26200E220A706E491E224A70A1E76C490C22C0
S3151FFF26300A706B491C224A709AE769490B220A7076
S3151FFF264067491E224A7093E765490A220A70644941
S3151FFF26501F224A708CE76420FFF75CFFBFE0C0B202
S3151FFF2660652803D25E490122CA7010E0C0B29728BF
S3151FFF267003D25B490222CA7009E0C0B2C92803D23E
S3151FFF268057490322CA7002E055490F22CA7054499F
S3151FFF2690534AD2780A71C0B21A2803D25048002172
S3151FFF26A0417141E0C0B2332803D24D480121417128
S3151FFF26B03AE0C0B24C2803D249480221417133E0A8
S3151FFF26C0C0B2652803D24648032141712CE0C0B230
S3151FFF26D07E2803D242480421417125E0C0B29728C4
S3151FFF26E003D23F48052141711EE0C0B2B02803D275
S3151FFF26F03B480621417117E0C0B2C92803D23848AB
S3151FFF27000721417110E0C0B2E22803D234480821E5
S3151FFF2710417109E0C0B2FB2803D23148092141713B
S3151FFF272002E02F480F2141712D484078183080B2A3
S3151FFF2730322148432A490978491C89B290FBF1F493
S3151FFF27402848002101702848006850F0805026490C
S3151FFF275008602648007850F08000244908702448F6
S3151FFF27609821017023480078C006FBD421480078C2
S3151FFF2770C0F38100C0B20228F8D11948007810F0C3
S3151FFF27801F001D4908701D48002101701448437919
S3151FFF2790134802791248C1781148807800F090FEDD
S3151FFF27A00F48407810F01F0050F040001349087083
S3151FFF27B0104800788006FBD50E4800784006FBD5EB
S3151FFF27C00B48007810F03F00094908700948007848
S3151FFF27D0C0F38100C0B20328F8D12000C0B210BDDC
S3151FFF27E0A034FF1F014006403480044008C0074045
S3151FFF27F0004006400640064004400640054006408E
S3151FFF280080B500F0E5F800F0FFF800F04BF9DFF8B0
S3151FFF28105001FFF72DFEDFF84C01FFF729FEDFF80A
S3151FFF282048010068DFF84411C978491CB0FBF1F273
S3151FFF2830DFF834010168DFF83801FFF719FEDFF80B
S3151FFF284028010068DFF824114979491CB0FBF1F212
S3151FFF2850DFF814010068DFF814110979491CB0FB72
S3151FFF2860F1F1DFF81001FFF703FEDFF80C01FFF7A9
S3151FFF2870FFFDDFF808010078400703D5DFF80001E9
S3151FFF2880FFF7F6FDDFF8F4000078800703D5DFF8C2
S3151FFF2890F400FFF7EDFDDFF8E4000078C00703D56E
S3151FFF28A0DFF8E400FFF7E4FDDFF8E000007800063D
S3151FFF28B003D5DFF8DC00FFF7DBFDDFF8D00000787C
S3151FFF28C0400603D5DFF8CC00FFF7D2FDDFF8BC00CB
S3151FFF28D00078800603D5DFF8C000FFF7C9FDDFF8D4
S3151FFF28E0AC000078400703D5DFF8B000FFF7C0FD47
S3151FFF28F0DFF898000078800703D5DFF8A400FFF7FD
S3151FFF2900B7FDDFF888000078C00703D5DFF894000E
S3151FFF2910FFF7AEFDDFF89000FFF7AAFDDFF88C008B
S3151FFF2920DFF88C10884204D0DFF88800FFF7A0FD80
S3151FFF293003E0DFF88400FFF79BFDDFF88000FFF75A
S3151FFF294097FDDFF87C00FFF793FDDFF87820DFF8B0
S3151FFF29507810DFF87800FFF78BFD00F0D1F8FEE760
S3151FFF2960802FFF1FA030FF1F1035FF1FA034FF1F33
S3151FFF29703030FF1F6830FF1F0434FF1F00E0074082
S3151FFF2980D030FF1F0031FF1F3031FF1F01E007400F
S3151FFF29906031FF1F9031FF1FC031FF1FF031FF1F37
S3151FFF29A02032FF1F5032FF1F1434FF1F0000FF1F6F
S3151FFF29B00000FF1F8032FF1FB032FF1FBC2FFF1FFC
S3151FFF29C02434FF1F5834FF1F4C34FF1F4C33FF1F88
S3151FFF29D080B500F009F80A4800884FF6FE710840D7
S3151FFF29E00749088001BD000072B606484CF2205108
S3151FFF29F0018004484DF62811018062B6704700001A
S3151FFF2A00002005400E20054080B51C481C49884202
S3151FFF2A100BD0002006E01949194A52F8202041F829
S3151FFF2A202020401CB0F5826FF5D3144800F0D6F86E
S3151FFF2A301449154A1548801A03E013780B70521C68
S3151FFF2A40491C0300581E002BF7D111491148401A84
S3151FFF2A5002E000220A70491C0200501E002AF8D10C
S3151FFF2A600D490E4A0E48801A03E013780B70521C4D
S3151FFF2A70491C0300581E002BF7D101BD0000FF1F85
S3151FFF2A800000FF1F7034FF1F642EFF1FB42EFF1F92
S3151FFF2A900C35FF1F1835FF1FC034FF1FB42EFF1F36
S3151FFF2AA0002FFF1F80B51148006850F478500F495B
S3151FFF2AB008606020FFF72EFD0D4908600C4800686F
S3151FFF2AC04FF47A7148430B4908600A4800680A4960
S3151FFF2AD00968C1F30361491CB0FBF1F007490860A0
S3151FFF2AE05FF4E1310020FFF7D7FB01BD38800440BB
S3151FFF2AF01035FF1F0C35FF1F448004401435FF1F81
S3151FFF2B0038B572B63048FFF7B3FC012301220F21F8
S3151FFF2B10002000F0BFF8012301220421002000F04E
S3151FFF2B20B9F8FFF71FFA29480068C07850F0200050
S3151FFF2B3026490968C8702D2000F053F862B624484D
S3151FFF2B40FFF796FC0A20FFF74BFA04000A20FFF750
S3151FFF2B5061FA05000A20FFF785FA80B20300ADB2BE
S3151FFF2B602A00A4B221001B48FFF782FC0A20FFF7A9
S3151FFF2B70A1FA04000A20FFF7B7FA05000A20FFF79C
S3151FFF2B80DBFA80B20300ADB22A00A4B221001148BE
S3151FFF2B90FFF76EFC0A20FFF7F7FA04000A20FFF77C
S3151FFF2BA00DFB05000A20FFF731FB80B20300ADB214
S3151FFF2BB02A00A4B221000848FFF75AFC4FF47A7087
S3151FFF2BC0FFF74CFBBEE700BF6C33FF1FA834FF1F89
S3151FFF2BD0402FFF1F3434FF1F4034FF1F2549086056
S3151FFF2BE0704710B504005C2C02DB2348FFF74FFC30
S3151FFF2BF0202094FBF0F0002803D0022827D013D300
S3151FFF2C0037E00120202194FBF1F202FB1142904095
S3151FFF2C101A4908600120202194FBF1F202FB1142A1
S3151FFF2C2090401749086024E00120202194FBF1F210
S3151FFF2C3002FB11429040134908600120202194FB9B
S3151FFF2C40F1F202FB114290400F49086011E001208B
S3151FFF2C50202194FBF1F202FB114290400B490860C1
S3151FFF2C600120202194FBF1F202FB114290400849FB
S3151FFF2C70086010BD08ED00E0F82FFF1F80E200E09F
S3151FFF2C8000E100E084E200E004E100E088E200E00A
S3151FFF2C9008E100E0F8B504000D0016001F00EDB2B5
S3151FFF2CA0202D02D2FFB2022F03D32421274800F083
S3151FFF2CB053F8EDB2E4B2264850F82400F6B24FF4AB
S3151FFF2CC08071314340F82510F00705D5F6B2032E64
S3151FFF2CD002D0F6B2022E0DD1E4B21E4850F82400E0
S3151FFF2CE040690121A9408843E4B21A4951F82410CB
S3151FFF2CF048612AE0E4B2174850F8240040690121D1
S3151FFF2D00A9400843E4B2134951F824104861FFB2A2
S3151FFF2D10012F0DD1E4B20F4850F82400006801219E
S3151FFF2D20A9400843E4B20B4951F8241008600CE090
S3151FFF2D30E4B2084850F8240000680121A9408843DF
S3151FFF2D40E4B2044951F824100860F1BD0C2EFF1F91
S3151FFF2D508434FF1F7034FF1F38B504000D0000F0C9
S3151FFF2D603BF82A0021001A48FFF791FB0F2003E0CB
S3151FFF2D70491E0029FCD1401E0028F2D07FF07F415B
S3151FFF2D8000E0491E0029FCD112490968096891F420
S3151FFF2D908041104A126811600E490968096891F44B
S3151FFF2DA000410C4A126811600A490968096891F4C3
S3151FFF2DB08031084A1268116006490968096891F44B
S3151FFF2DC00031044A126811607FF07F41D1E700008E
S3151FFF2DD0002FFF1F7034FF1F80B5012301220E2115
S3151FFF2DE00020FFF757FF012301220F210020FFF7C6
S3151FFF2DF051FF0123012210210020FFF74BFF012363
S3151FFF2E00012211210020FFF745FF01BD433A5C5503
S3151FFF2E10736572735C41646D696E697374726174F5
S3151FFF2E206F725C4465736B746F705CD1EECFF2BECD
S3151FFF2E30FCB5C44B3630C4A3B0E55FD6BBD3D0BBFE
S3151FFF2E40F9B1BE494FB2D9D7F75C7372635C64722F
S3151FFF2E5069766572735C6770696F5C6770696F2EE1
S3151FFF2E606300000000F00F4040F00F4080F00F405E
S3151FFF2E70C0F00F4000F10F400090044000A0044037
S3151FFF2E8000B0044000C0044000D00440006006406C
S3151FFF2E90007006400B1F00000009000000A006403F
S3151FFF2EA000B0064000C0064000D0064000A00E40FE
S3151FFF2EB000B00E4070B4104C24680F4D2D6855F4AA
S3151FFF2EC07F050D4E3560090611F0706151EA0070DE
S3151FFF2ED0110511F470010843190411F470210843F9
S3151FFF2EE006490860002000E0401CC0B29842FBD391
S3151FFF2EF00148046070BC704700F0014044800440E5
S3151FFF2F00B6CFD1D4B7A2C9FAD4DA2573CEC4BCFEC5
S3151FFF2F10B5C4B5DA2564D0D0A3A10AB6CFD1D4CC18
S3151FFF2F20F5BCFEB2BBB3C9C1A2A3ACC7EBBCECB227
S3151FFF2F30E2B4EDCEF3D4ADD2F22E0A0A00000000A2
S3151FFF2F400A2D2D2D2D2D2D2D2D2D2D582D2D2D2D85
S3151FFF2F502D2D2D2D2D2D2D2D2D2D2D2D2D2D2D5951
S3151FFF2F602D2D2D2D2D2D2D2D2D2D2D2D2D2D2D2D6D
S3151FFF2F702D2D2D5A2D2D2D2D2D2D2D2D2D2D0A0080
S3151FFF2F800A0A2A2A2A2A2A2A2A2A2A2A2A2A2A2ABD
S3151FFF2F902A2A2A2A2A2A2A2A2A2A2A2A2A2A2A2A6D
S3151FFF2FA02A2A2A2A2A2A2A2A2A2A2A2A2A2A2A2A5D
S3151FFF2FB02A2A2A2A2A2A2A2A2A2A0A002A2044654C
S3151FFF2FC07369676E6564204279A3BA736E6F7777ED
S3151FFF2FD06F6C6620202020202020202020202020EC
S3151FFF2FE020202020202020202020202020202020BD
S3151FFF2FF02020202A0A0000000A4552522120496E2E
S3151FFF300076616C6964204952512076616C75652023
S3151FFF301070617373656420746F20656E61626C6582
S3151FFF3020206972712066756E6374696F6E210A005F
S3151FFF30302A20C4DABACBC6B5C2CAA3BA2533644D92
S3151FFF3040487A2009D7DCCFDFC6B5C2CA20A3BA2567
S3151FFF305033644D487A202020202020202020202046
S3151FFF30602020202A0A0000002A20666C6578C6B534
S3151FFF3070C2CAA3BA2533644D487A2009666C6173A9
S3151FFF308068C6B5C2CAA3BA2533644D487A20202025
S3151FFF309020202020202020202020202A0A00000078
S3151FFF30A02A200909B1B1BEA9D3CAB5E7B4F3D1A77F
S3151FFF30B0204B363020D1A7CFB0C0FDB3CC20202068
S3151FFF30C020202020202020202020202A0A00000048
S3151FFF30D0536F66747761726520526573657420201E
S3151FFF30E020202020202020202020202020202020BC
S3151FFF30F020202020202020202020202A0A00000018
S3151FFF3100436F7265204C6F636B7570204576656ED6
S3151FFF311074205265736574202020202020202020D4
S3151FFF312020202020202020202020202A0A000000E7
S3151FFF31304A54414720526573657420202020202062
S3151FFF3140202020202020202020202020202020205B
S3151FFF315020202020202020202020202A0A000000B7
S3151FFF3160506F7765722D6F6E2052657365742020C1
S3151FFF3170202020202020202020202020202020202B
S3151FFF318020202020202020202020202A0A00000087
S3151FFF319045787465726E616C2050696E2052657337
S3151FFF31A06574202020202020202020202020202062
S3151FFF31B020202020202020202020202A0A00000057
S3151FFF31C05761746368646F6728434F5029205265A0
S3151FFF31D073657420202020202020202020202020DF
S3151FFF31E020202020202020202020202A0A00000027
S3151FFF31F04C6F7373206F6620436C6F636B20526532
S3151FFF320073657420202020202020202020202020AE
S3151FFF321020202020202020202020202A0A000000F6
S3151FFF32204C6F772D766F6C74616765204465746587
S3151FFF32306374205265736574202020202020202070
S3151FFF324020202020202020202020202A0A000000C6
S3151FFF32504C4C575520526573657420202020202023
S3151FFF3260202020202020202020202020202020203A
S3151FFF327020202020202020202020202A0A00000096
S3151FFF3280666C617368C6F4B6AF202020202020200D
S3151FFF3290202020202020202020202020202020200A
S3151FFF32A020202020202020202020202A0A00000066
S3151FFF32B05352414DC6F4B6AF202020202020202098
S3151FFF32C020202020202020202020202020202020DA
S3151FFF32D020202020202020202020202A0A00000036
S3151FFF32E00A2A2A2A2A64656661756C745F69737276
S3151FFF32F020656E7465726564206F6E2076656374D4
S3151FFF33006F722025642A2A2A2A2A0D0A0A0000001C
S3151FFF331010B5084979441C31074C7C441A34A14225
S3151FFF332006D0081D0A68511888470146A142F8D1E1
S3151FFF333010BD00BF08000000140000002FDEFFFFB6
S3151FFF33400C0000000C35FF1F000000002573202016
S3151FFF335025732020202020202020202020202020F1
S3151FFF336020202020202020202A0A0000B1B1BEA93C
S3151FFF3370D3CAB5E7B4F3D1A7CBD9B6C8D3EBBCA491
S3151FFF3380C7E9C0FDB3CC0A0080B503480178C9B2AF
S3151FFF33900248FFF77CF801BD04ED00E0E032FF1F96
S3151FFF33A000F009F8002801D0FFF7B2FF0020FFF752
S3151FFF33B0A7FB00F002F80120704700F001B80000DC
S3151FFF33C00746384600F002F8FBE7000080B5C04607
S3151FFF33D0C046024A11001820ABBEFBE726000200BB
S3151FFF33E00A383435312020696E6974204661696C4D
S3151FFF33F0656421000A383435312020696E697420CF
S3151FFF34004F4B21002A20C6F4B6AFD4ADD2F2A3BAD2
S3151FFF3410000000002A20C6F4B6AFB7BDCABDA3BAC7
S3151FFF3420000000002A20D7EEBAF3B8FCD0C2A3BA19
S3151FFF343000000000253564253664253764202000EB
S3151FFF34402535642536642537640A000044656320E5
S3151FFF3450323220323031330030303A35353A32325C
S3151FFF346000000000C046C046C046C046FFF798FF93
S7051FFF346543
